:020000040800F2
:10000000000003205D640008590800085B08000830
:100010005D0800085F080008610800080000000093
:10002000000000000000000000000000630800085D
:10003000650800080000000067080008690800085B
:10004000AD640008AD640008AD640008AD6400084C
:10005000AD640008AD640008710800087F0800085E
:10006000AD640008AD640008AD640008AD6400082C
:10007000AD640008AD640008AD640008AD6400081C
:10008000AD640008AD640008AD640008AD6400080C
:10009000AD640008AD640008AD6400088D08000878
:1000A000AD640008AD640008AD640008AD640008EC
:1000B0009D080008AD640008AD640008AD64000848
:1000C000AD640008AD640008AD640008AD640008CC
:1000D000AD640008AD640008AD640008AD640008BC
:1000E000AD640008AD640008AD640008AD640008AC
:1000F000AD640008AD640008AD640008AD6400089C
:10010000AD640008AD640008AD640008AD6400088B
:10011000AD640008AD640008AD640008AD6400087B
:10012000AD640008AD640008AD640008AD6400086B
:10013000AD640008AD640008AD640008AD6400085B
:10014000AD640008AD640008AD640008AD6400084B
:10015000AD640008AD640008AD640008AD6400083B
:10016000AD640008AD640008AD640008AD6400082B
:10017000AD640008AD640008AD6400080000000034
:10018000AD640008AD640008AD640008AD6400080B
:10019000AD640008AD640008AD640008AD640008FB
:0C01A0000000000000000000AD6400083A
:1001AC0010B5054C237833B9044B13B10448AFF3A5
:1001BC0000800123237010BDF00600200000000019
:1001CC005C67000808B5034B1BB103490348AFF348
:1001DC00008008BD00000000F40600205C670008E9
:1001EC00034613F8012B002AFBD1181A013870476B
:1001FC0053B94AB9002908BF00281CBF4FF0FF3182
:10020C004FF0FF3000F074B9ADF1080C6DE904CE7D
:10021C0000F006F8DDF804E0DDE9022304B07047D5
:10022C002DE9F047089D04468E46002B4DD18A429D
:10023C00944669D9B2FA82F252B101FA02F3C2F1D0
:10024C00200120FA01F10CFA02FC41EA030E944061
:10025C004FEA1C48210CBEFBF8F61FFA8CF708FB82
:10026C0016E341EA034306FB07F199420AD91CEB5A
:10027C00030306F1FF3080F01F81994240F21C818C
:10028C00023E63445B1AA4B2B3FBF8F008FB1033D4
:10029C0044EA034400FB07F7A7420AD91CEB040409
:1002AC0000F1FF3380F00A81A74240F207816444D9
:1002BC00023840EA0640E41B00261DB1D44000235E
:1002CC00C5E900433146BDE8F0878B4209D9002DC2
:1002DC0000F0EF800026C5E9000130463146BDE84C
:1002EC00F087B3FA83F6002E4AD18B4202D38242B6
:1002FC0000F2F980841A61EB030301209E46002D65
:10030C00E0D0C5E9004EDDE702B9FFDEB2FA82F2B9
:10031C00002A40F09280A1EB0C014FEA1C471FFA17
:10032C008CFE0126200CB1FBF7F307FB131140EAFE
:10033C0001410EFB03F0884208D91CEB010103F1CB
:10034C00FF3802D2884200F2CB804346091AA4B28D
:10035C00B1FBF7F007FB101144EA01440EFB00FE61
:10036C00A64508D91CEB040400F1FF3102D2A645C6
:10037C0000F2BB800846A4EB0E0440EA03409CE765
:10038C00C6F12007B34022FA07FC4CEA030C20FA12
:10039C0007F401FA06F31C43F9404FEA1C4900FA32
:1003AC0006F3B1FBF9F8200C1FFA8CFE09FB1811AF
:1003BC0040EA014108FB0EF0884202FA06F20BD922
:1003CC001CEB010108F1FF3A80F08880884240F272
:1003DC008580A8F102086144091AA4B2B1FBF9F0B6
:1003EC0009FB101144EA014100FB0EFE8E4508D9B1
:1003FC001CEB010100F1FF346CD28E456AD9023836
:10040C00614440EA0840A0FB0294A1EB0E01A1421A
:10041C00C846A64656D353D05DB1B3EB080261EB88
:10042C000E0101FA07F722FA06F3F1401F43C5E962
:10043C00007100263146BDE8F087C2F12003D84098
:10044C000CFA02FC21FA03F3914001434FEA1C47DA
:10045C001FFA8CFEB3FBF7F007FB10360B0C43EACC
:10046C00064300FB0EF69E4204FA02F408D91CEB7C
:10047C00030300F1FF382FD29E422DD9023863447A
:10048C009B1B89B2B3FBF7F607FB163341EA03411A
:10049C0006FB0EF38B4208D91CEB010106F1FF3869
:1004AC0016D28B4214D9023E6144C91A46EA004660
:1004BC0038E72E46284605E70646E3E61846F8E6F2
:1004CC004B45A9D2B9EB020864EB0C0E0138A3E73B
:1004DC004646EAE7204694E74046D1E7D0467BE71C
:1004EC00023B614432E7304609E76444023842E794
:1004FC00704700BFF0B58BB00024059406940794A8
:10050C000894099401943C4B1A6B42F080021A63D4
:10051C001A6B02F080020192019A02941A6B42F05B
:10052C0004021A631A6B02F004020292029A0394F8
:10053C001A6B42F001021A631A6B02F00102039269
:10054C00039A04941A6B42F002021A631B6B03F0B9
:10055C0002030493049B294F01220421384600F026
:10056C00CFFB274E22464FF47041304600F0C8FBBB
:10057C0040F2031305934FF488130693079405A9CF
:10058C00384600F0BFFA042305930125069507951C
:10059C00089405A9384600F0B5FA4FF4805305933A
:1005AC0006950795089405A9304600F0ABFA4FF470
:1005BC0060430593069502230793089405A93046DA
:1005CC0000F0A0FA2A462946062000F02FFA062051
:1005DC0000F064FA2A462946072000F027FA072083
:1005EC0000F05CFA22462146172000F01FFA172073
:1005FC0000F054FA0BB0F0BD00380240000002408D
:10060C000004024072B6FEE700B595B0302200211E
:10061C0008A805F089FF0023039304930593069320
:10062C0007930193204A116C41F080511164126CB4
:10063C0002F080520192019A02931C4B1A6842F408
:10064C0040421A601B6803F440430293029B01234F
:10065C0008934FF48033099302220E924FF48003D7
:10066C000F9304231093A82111911292139308A8AD
:10067C0000F05CFB98B90F2303930223049300232F
:10068C0005934FF4A05306934FF480530793052121
:10069C0003A800F0B1FD20B915B05DF804FBFFF71D
:1006AC00B1FFFFF7AFFF00BF003802400070004001
:1006BC0008B500F07DF9FFF7A7FFFFF71BFF00F06F
:1006CC0033F800F0F9F8154801F0A0F801220421E4
:1006DC00134800F015FB05F067FE05F0D9F9104C36
:1006EC0001224FF40041204600F00AFB01224FF496
:1006FC008041204600F004FB01224FF400512046BB
:10070C0000F0FEFA074B01221A7005F0EDFA054BCA
:10071C001B78012BF9D005F097FDE0E7640700206A
:10072C0000040240F20B002008B50E480E4B03608B
:10073C004FF48273436000238360C3600222026122
:10074C00012242614FF400728261C3610362436211
:10075C0083620A23C36200F0A9FE00B908BDFFF74B
:10076C0051FFFBE70C0700200038004070B588B043
:10077C000023039304930593069307930268204B7D
:10078C009A4201D008B070BD0022009203F50033EC
:10079C00196C41F480411964196C01F48041009189
:1007AC0000990192196B41F004011963196B01F066
:1007BC0004010191019902921A6B42F002021A6330
:1007CC001B6B03F002030293029B0C230393022482
:1007DC000494059403260696052507950DEB030155
:1007EC00084800F08FF94FF4806303930494059448
:1007FC000696079503A9044800F084F9C2E700BFE8
:10080C0000380040000802400004024000B583B0EC
:10081C00002100910C4B5A6C42F480425A645A6C81
:10082C0002F480420092009A01911A6C42F08052BC
:10083C001A641B6C03F080530193019B052000F09C
:10084C00E3F803B05DF804FB00380240FEE7FEE776
:10085C00FEE7FEE7FEE770477047704708B500F00B
:10086C00C1F808BD08B505F0BBF9012000F050FA3D
:10087C0008BD08B505F0ECF8022000F049FA08BDF7
:10088C0008B505F021F94FF4807000F041FA08BD6D
:10089C0008B505F071F8024801F001F808BD00BF79
:1008AC0064070020034AD2F8883043F47003C2F87E
:1008BC008830704700ED00E000B587B0002302934C
:1008CC000393049305930093019316484FF08042D1
:1008DC00026029224260836040F2CF72C2600361E1
:1008EC008023836101F0F6F890B94FF480530293A2
:1008FC0002A90C4801F027F968B900230093019371
:10090C006946084801F09EF940B907B05DF804FB50
:10091C00FFF778FEE9E7FFF775FEEEE7FFF772FEEB
:10092C00F3E700BF640700200368B3F1804F00D0E9
:10093C00704700B583B00021019103F50E331A6C9A
:10094C0042F001021A641B6C03F001030193019B3A
:10095C000A461C2000F06AF81C2000F09FF803B037
:10096C005DF804FB10B504460E4B18784FF47A73FF
:10097C00B3FBF0F30C4A1068B0FBF3F000F0AEF8E8
:10098C0068B90F2C01D901200AE0002221464FF052
:10099C00FF3000F04BF8054B1C60002000E00120FC
:1009AC0010BD00BF04000020000000200800002043
:1009BC0008B50B4B1A6842F400721A601A6842F4BC
:1009CC0080621A601A6842F480721A60032000F088
:1009DC001BF80320FFF7C6FFFFF718FF002008BD28
:1009EC00003C0240034A1168034B1B780B44136014
:1009FC00704700BFAC07002004000020014B1868B2
:100A0C00704700BFAC070020074AD36823F4E063AB
:100A1C001B041B0C000200F4E060034343F0BF63B3
:100A2C0043F40033D360704700ED00E000B5194B80
:100A3C00DB68C3F30223C3F1070CBCF1040F28BF1E
:100A4C004FF0040C03F1040EBEF1060F18D9033B52
:100A5C004FF0FF3E0EFA0CFC21EA0C0199400EFA05
:100A6C0003F322EA0303194300280BDB0901C9B283
:100A7C0000F1604000F5614080F800135DF804FB64
:100A8C000023E5E700F00F000901C9B2024B19542D
:100A9C00F4E700BF00ED00E014ED00E0002807DBF8
:100AAC0000F01F02400901239340024A42F8203013
:100ABC00704700BF00E100E000280CDB00F01F02D3
:100ACC004009012393402030034A42F82030BFF301
:100ADC004F8FBFF36F8F704700E100E00138B0F12A
:100AEC00807F0BD24FF0E0235861054AF02182F849
:100AFC0023100020986107221A617047012070476B
:100B0C0000ED00E000230F2B00F2F18070B582B0F5
:100B1C0061E085685E000324B44025EA0405CC68D6
:100B2C00B4402C438460456825EA02054C68C4F344
:100B3C0000129A402A4342605BE0DC08083450F80B
:100B4C00246003F0070295000F22AA4026EA020E49
:100B5C000A69AA4042EA0E0240F824205DE009220C
:100B6C0000E0002202FA0EF22A430234604D45F8EE
:100B7C002420604A94686FEA0C0224EA0C054E6843
:100B8C0016F4801F01D04CEA04055A4CA560E468A9
:100B9C0002EA04054E6816F4001F01D04CEA040565
:100BAC00544CE560646802EA04054E6816F4003F94
:100BBC0001D04CEA04054F4C6560246822404D6816
:100BCC0015F4803F01D04CEA04024A4C22600133F8
:100BDC000F2B00F28A8001229A400C6804EA020C66
:100BEC0032EA0404F3D14C6804F00304013C012CF8
:100BFC008FD94A6802F00302032A09D0C4685D0049
:100C0C000322AA4024EA02048A68AA402243C26052
:100C1C004A6802F00302022A8FD004684FEA430E9E
:100C2C00032202FA0EF224EA02044A6802F00302DA
:100C3C0002FA0EF2224302604A6812F4403FC6D018
:100C4C00002201922C4A546C44F480445464526C3B
:100C5C0002F480420192019A9C08A51C244A52F885
:100C6C00255003F003024FEA820E0F2202FA0EF215
:100C7C0025EA0205214A90423FF473AF02F58062E7
:100C8C00904222D002F58062904220D002F5806220
:100C9C0090421ED002F5806290421CD002F5806218
:100CAC0090421AD002F58062904218D002F5806210
:100CBC00904216D002F58062904214D002F5806208
:100CCC0090423FF44CAF0A224CE701224AE7022241
:100CDC0048E7032246E7042244E7052242E70622BE
:100CEC0040E707223EE708223CE702B070BD7047A0
:100CFC0000380140003C0140003802400000024036
:100D0C000AB1816170470904816170477047000026
:100D1C0008B5054B5B69034200D108BD024B586115
:100D2C00FFF7F4FFF9E700BF003C0140002800F09A
:100D3C00E08170B582B00446036813F0010F3BD01C
:100D4C009F4B9B6803F00C03042B2CD09C4B9B6893
:100D5C0003F00C03082B21D06368B3F5803F4FD010
:100D6C00B3F5A02F52D0964B1A6822F480321A6039
:100D7C001A6822F480221A606368002B50D0FFF7A7
:100D8C003DFE05468E4B1B6813F4003F14D1FFF754
:100D9C0035FE401B6428F5D90320B1E1884B5B6814
:100DAC0013F4800FD8D0864B1B6813F4003F03D08C
:100DBC006368002B00F09F81236813F0020F54D05E
:100DCC007F4B9B6813F00C0F3ED07D4B9B6803F060
:100DDC000C03082B33D0E368002B68D0794B01222D
:100DEC001A60FFF70BFE0546754B1B6813F0020FDC
:100DFC0054D1FFF703FE401B0228F5D903207FE1F5
:100E0C006F4A136843F480331360B5E76C4B1A6870
:100E1C0042F480221A601A6842F480321A60ABE7FE
:100E2C00FFF7ECFD0546664B1B6813F4003FC3D07F
:100E3C00FFF7E4FD401B6428F5D9032060E1604B0B
:100E4C005B6813F4800FC6D15D4B1B6813F0020F67
:100E5C0003D0E368012B40F05081594A136823F00A
:100E6C00F803216943EAC1031360236813F0080FE8
:100E7C0042D063696BB3534B0122C3F8802EFFF74A
:100E8C00BDFD05464E4B5B6F13F0020F34D1FFF7DF
:100E9C00B5FD401B0228F5D9032031E1484A1368FF
:100EAC0023F0F803216943EAC1031360DDE7454BE6
:100EBC0000221A60FFF7A2FD0546414B1B6813F098
:100ECC00020FD2D0FFF79AFD401B0228F5D9032060
:100EDC0016E13C4B0022C3F8802EFFF78FFD054630
:100EEC00374B5B6F13F0020F06D0FFF787FD401BEB
:100EFC000228F5D9032003E1236813F0040F77D0FF
:100F0C002F4B1B6C13F0805F33D1002301932C4BC0
:100F1C001A6C42F080521A641B6C03F080530193DC
:100F2C00019B0125284B1B6813F4807F23D0A368F9
:100F3C00012B34D0052B38D0214B1A6F22F0010233
:100F4C001A671A6F22F004021A67A368002B3DD0AF
:100F5C00FFF754FD06461A4B1B6F13F0020F46D1D8
:100F6C00FFF74CFD801B41F288339842F3D90320E4
:100F7C00C6E00025D6E7144A136843F48073136067
:100F8C00FFF73CFD0646104B1B6813F4807FCED157
:100F9C00FFF734FD801B0228F5D90320B0E0084A86
:100FAC00136F43F001031367CFE7054B1A6F42F041
:100FBC0004021A671A6F42F001021A67C5E700BFF4
:100FCC00003802400000474200700040FFF716FD59
:100FDC000646524B1B6F13F0020F08D0FFF70EFDA5
:100FEC00801B41F288339842F3D9032088E0EDB995
:100FFC00A369002B00F08380484A926802F00C022F
:10100C00082A51D0022B17D0454B00221A66FFF745
:10101C00F5FC0446414B1B6813F0007F42D0FFF7F0
:10102C00EDFC001B0228F5D9032069E03B4A136C48
:10103C0023F080531364DBE7394B00221A66FFF769
:10104C00DDFC0546354B1B6813F0007F06D0FFF71F
:10105C00D5FC401B0228F5D9032051E0E369226A34
:10106C001343626A43EA8213A26A5208013A43EAC2
:10107C000243E26A43EA0263284A5360284B012286
:10108C001A66FFF7BBFC0446244B1B6813F0007F69
:10109C0006D1FFF7B3FC001B0228F5D903202FE083
:1010AC0000202DE000202BE0012B2BD01B4B5B688C
:1010BC0003F48001E269914226D103F03F02216AD8
:1010CC008A4223D1616A47F6C0721A40B2EB811F83
:1010DC001ED103F44031A26A5208013AB1EB024F1F
:1010EC0018D103F07063E26AB3EB026F14D10020E5
:1010FC0006E001207047012002E0012000E0002002
:10110C0002B070BD0120FBE70120F9E70120F7E7F1
:10111C000120F5E70120F3E70120F1E70038024058
:10112C000000474208B5314B9B6803F00C03042BBD
:10113C0057D0082B57D12D4B5A6802F03F025B68F1
:10114C0013F4800F2AD0294B5968C1F3881C4FEA3D
:10115C004C11B1EB0C006EEB0E0E4FEA8E1343EA02
:10116C0090638101091A63EB0E03DB0043EA5173B0
:10117C00C90011EB0C0C43F10003590200234FEA98
:10118C004C2041EADC51FFF733F8184B5B68C3F392
:10119C00014301335B00B0FBF3F025E0134B5968BE
:1011AC00C1F3881C4FEA4C11B1EB0C006EEB0E0E28
:1011BC004FEA8E1343EA90638101091A63EB0E0325
:1011CC00DB0043EA5173C90011EB0C0C43F1000333
:1011DC00990200234FEA8C2041EA9C51FFF708F852
:1011EC00D3E7034800E0034808BD00BF00380240C5
:1011FC0000127A000024F400002800F09B8070B5E7
:10120C000D4604464F4B1B6803F00F038B4208D26C
:10121C00CBB24C4A1370136803F00F038B4240F0AF
:10122C008B80236813F0020F17D013F0040F04D037
:10123C00454A936843F4E0539360236813F0080F16
:10124C0004D0414A936843F4604393603E4A9368E8
:10125C0023F0F003A1680B439360236813F0010F94
:10126C0032D06368012B21D09A1E012A25D9364A27
:10127C00126812F0020F61D033498A6822F003021F
:10128C0013438B60FFF7BAFB06462F4B9B6803F0AA
:10129C000C036268B3EB820F16D0FFF7AFFB801B19
:1012AC0041F288339842F0D9032042E0264A126872
:1012BC0012F4003FE0D101203BE0234A126812F007
:1012CC00007FD9D1012034E01E4B1B6803F00F03C3
:1012DC00AB4207D9EAB21B4B1A701B6803F00F0321
:1012EC00AB422DD1236813F0040F06D0164A936835
:1012FC0023F4E053E1680B439360236813F0080F69
:10130C0007D0114A936823F46043216943EAC1036F
:10131C009360FFF707FF0C4B9B68C3F303130B4A57
:10132C00D35CD8400A4B18600A4B1868FFF71AFBBD
:10133C00002070BD012070470120FAE70120F8E77A
:10134C000120F6E7003C02400038024074670008B8
:10135C0000000020080000202DE9F04782B005466F
:10136C00884617461E46FFF749FB0A9B1B1A03EBE0
:10137C000609FFF743FB82462B4B1B68C3F3CB33A9
:10138C0009FB03F301932B689C6838EA04030CBF38
:10139C004FF0010C4FF0000CBC4540D0B6F1FF3FB4
:1013AC00F1D0FFF72BFBA0EB0A0048450AD2B9F1AC
:1013BC00000F07D0019A02B14A46019B013B0193F1
:1013CC009146E0E72A68536823F0E00353606B68AA
:1013DC00B3F5827F0BD0AB6AB3F5005F14D0012359
:1013EC0085F85130002385F85030032018E0AB68A5
:1013FC00B3F5004F02D0B3F5806FECD12A681368B7
:10140C0023F040031360E6E72A68136823F40053C3
:10141C0013602A68136843F400531360DFE700205D
:10142C0002B0BDE8F08700BF0000002070B584B0AA
:10143C0004460D46164600920B4601220221FFF788
:10144C008BFFD0B9174B1B68174AA2FB03235B0D0C
:10145C004FF47A7202FB03F303936368B3F5827F54
:10146C0011D0039B3BB1039B013B039323689B6807
:10147C0013F0800FF5D104B070BD636D43F0200301
:10148C0063650320F7E700962B4600228021204657
:10149C00FFF762FF0028EED0636D43F02003636515
:1014AC000320E8E700000020819F5E1600285AD038
:1014BC0010B50446436A33B94368B3F5827F05D04F
:1014CC000023C36102E00023036143610023A36294
:1014DC0094F85130002B40D0022384F8513022680C
:1014EC00136823F040031360636803F48273A268EB
:1014FC0002F404421343E26802F4006213432269CB
:10150C0002F002021343626902F001021343A26962
:10151C0002F400721343E26902F038021343226AA8
:10152C0002F080021343A26A02F4005221681343B2
:10153C000B60638B03F00403626A02F010022168F3
:10154C0013434B602268D36923F40063D3610020FA
:10155C006065012384F8513010BD84F8503020466A
:10156C00FFF704F9B8E7012070472DE9F04383B089
:10157C001F460A9D90F85030012B00F0168104464E
:10158C0088469146012380F85030FFF737FA06461B
:10159C0094F85130DBB26268012B0AD0B2F5827F2D
:1015AC0040F0F080A268002A40F0F380042B40F059
:1015BC00F280B8F1000F00F0F080B9F1000F00F0EC
:1015CC00EE80002F00F0ED8094F85130DBB2042B4C
:1015DC0002D0052384F8513000236365C4F8389099
:1015EC00E787A787C4F83080E786A78623646364FF
:1015FC0023681A6812F0400F03D11A6842F04002B7
:10160C001A60E368B3F5006F11D063680BB1012F5A
:10161C000BD1226B236812781A73236B013323636B
:10162C00E38E9BB2013B9BB2E38601276EE06368BD
:10163C000BB1012F0BD1226B23681288DA60236B5C
:10164C0002332363E38E9BB2013B9BB2E3860127FB
:10165C001BE023689A6812F0010F0ED0E28F92B251
:10166C005AB1DA68A36B1A80A36B0233A363E38FBE
:10167C009BB2013B9BB2E3870127FFF7BFF9801BAD
:10168C00A84202D3B5F1FF3F1ED1E38E9BB21BB92A
:10169C00E38F9BB2002B5CD023689A6812F0020F88
:1016AC00D7D0E28E92B2002AD3D0002FD1D0226BA9
:1016BC001288DA60236B02332363E38E9BB2013B07
:1016CC009BB2E3860027C4E7012384F85130032042
:1016DC0059E023689A6812F0010F0ED0E28F92B293
:1016EC005AB1DA68A36B1A70A36B0133A363E38F4F
:1016FC009BB2013B9BB2E3870127FFF77FF9831B6A
:10170C00AB4202D3B5F1FF3F1ED1EDB1E38E9BB2DC
:10171C0013B9E38F9BB2E3B123689A6812F0020FFE
:10172C00D7D0E28E92B2002AD3D0002FD1D0226B28
:10173C0012781A73236B01332363E38E9BB2013B44
:10174C009BB2E3860027C4E7012384F851300320C1
:10175C0019E0324629462046FFF768FE70B9A368A7
:10176C0033B901932368DA6801929B680193019B5A
:10177C00636DC3B9012384F8513004E02023636501
:10178C00012000E00220002384F8503003B0BDE8B3
:10179C00F0830220F7E70220F5E70120F3E70120B0
:1017AC00F1E70120EFE70120EDE70220EEE710B4AE
:1017BC00036A046A24F001040462846924F0F00CC6
:1017CC004CEA021223F00A030B43826103625DF8B8
:1017DC00044B704710B4036A046A24F010040462CA
:1017EC00846924F4704C4CEA023223F0A00343EADF
:1017FC000113826103625DF8044B7047836823F028
:10180C0070030B4343F007038360704790F83D303F
:10181C00DBB2012B37D1022380F83D300268D3684C
:10182C0043F00103D3600368194A934220D0B3F10B
:10183C00804F1DD0A2F57C42934219D002F58062F4
:10184C00934215D002F58062934211D002F5784292
:10185C0093420DD002F57052934209D0A2F5943206
:10186C00934205D01A6842F001021A6000207047BA
:10187C009A6802F00702062A07D01A6842F00102A1
:10188C001A6000207047012070470020704700BF8D
:10189C00000001407047704770477047704770B543
:1018AC0004460368DE681D6915F0020F10D016F0AF
:1018BC00020F0DD06FF002021A6101230377036847
:1018CC009B6913F0030F5ED0FFF7E6FF002323772D
:1018DC0015F0040F12D016F0040F0FD023686FF020
:1018EC0004021A610223237723689B6913F4407F57
:1018FC004FD02046FFF7D0FF0023237715F0080FB9
:10190C0012D016F0080F0FD023686FF008021A617E
:10191C00042323772368DB6913F0030F40D02046A0
:10192C00FFF7BAFF0023237715F0100F12D016F033
:10193C00100F0FD023686FF010021A610823237761
:10194C002368DB6913F4407F31D02046FFF7A4FFF6
:10195C000023237715F0010F02D016F0010F2DD1C3
:10196C0015F0800F02D016F0800F2FD115F0400F1C
:10197C0002D016F0400F31D115F0200F02D016F026
:10198C00200F33D170BDFFF786FF2046FFF785FF90
:10199C009CE72046FFF77FFF2046FFF77EFFABE773
:1019AC002046FFF778FF2046FFF777FFBAE720467F
:1019BC00FFF771FF2046FFF770FFC9E723686FF050
:1019CC0001021A612046FFF765FFC9E723686FF033
:1019DC0080021A61204600F07CF9C7E723686FF09B
:1019EC0040021A612046FFF759FFC5E723686FF0E4
:1019FC0020021A61204600F06BF9C3E70368344AF1
:101A0C00904212D0B0F1804F0FD0A2F57C429042A0
:101A1C000BD002F58062904207D002F580629042B2
:101A2C0003D002F57842904203D123F070034A6848
:101A3C001343274A90422AD0B0F1804F27D0A2F509
:101A4C007C42904223D002F5806290421FD002F576
:101A5C00806290421BD002F57842904217D002F57A
:101A6C007052904213D002F5806290420FD002F572
:101A7C00806290420BD0A2F59832904207D002F5CA
:101A8C008062904203D002F58062904203D123F42D
:101A9C004073CA68134323F080034A6913430360FD
:101AAC008B68C3620B688362094B984203D003F5C1
:101ABC008063984201D10B6903630123436103697D
:101ACC0013F0010F03D0036923F001030361704786
:101ADC000000014040B310B5044690F83D30F3B11E
:101AEC00022384F83D30214651F8040BFFF786FFA2
:101AFC00012384F8463084F83E3084F83F3084F873
:101B0C00403084F8413084F8423084F8433084F813
:101B1C00443084F8453084F83D30002010BD80F806
:101B2C003C30FEF701FFDBE70120704710B48468FE
:101B3C0024F47F4C42EA03220A4342EA0C028260FC
:101B4C005DF8044B704790F83C30012B78D010B501
:101B5C000446012380F83C30022380F83D300268B3
:101B6C00936823F47F4323F0770393600B68602B17
:101B7C004CD029D8402B54D00CD9502B22D1CA6828
:101B8C0049680068FFF713FE50212068FFF736FE06
:101B9C00002005E0202B0DD009D9302B0AD00120D4
:101BAC00012384F83D30002384F83C3010BD0BB188
:101BBC00102B05D119462068FFF720FE0020EFE717
:101BCC000120EDE70120EBE7B3F5805F34D0B3F5EE
:101BDC00005F0CD1CB684A6889680068FFF7A6FFE4
:101BEC002268936843F4804393600020D8E7702BFD
:101BFC0024D1CB684A6889680068FFF797FF226890
:101C0C00936843F0770393600020C9E7CA6849687A
:101C1C000068FFF7DFFD60212068FFF7EFFD002073
:101C2C00BEE7CA6849680068FFF7C1FD402120681B
:101C3C00FFF7E4FD0020B3E70020B1E70120AFE798
:101C4C000220704790F83C30012B3DD010B401239A
:101C5C0080F83C30022380F83D3003685A689C6859
:101C6C0022F0700C0A6842EA0C025A600368174AA8
:101C7C0093421AD0B3F1804F17D0A2F57C42934215
:101C8C0013D002F5806293420FD002F5806293422A
:101C9C000BD002F57842934207D002F57052934272
:101CAC0003D0A2F59432934204D124F080044A6804
:101CBC0014439C60012380F83D30002380F83C30B5
:101CCC0018465DF8044B7047022070470000014035
:101CDC007047704700B587B08DF80F004FF47A73DA
:101CEC00009301230DF117020DF10F010348FFF7CB
:101CFC003CFC9DF8170007B05DF804FB0C070020B6
:101D0C000023024A1360024A13807047B007002078
:101D1C00280B002008B5C3881B0B013B072B0DD8E3
:101D2C00DFE803F00406040404040409042008BDDD
:101D3C0003F0B8F8FBE703F04BFBF8E70520F6E7F8
:101D4C0008B5114B186830B1002101F09BFD002043
:101D5C000D4B186008BD4FF4807004F0C7FB0346B0
:101D6C0078B10A4AD2F800C050689168C3F800C034
:101D7C005860996092899A81184603F029FB0020DB
:101D8C00E8E70720E6E700BFB0070020140B0020AF
:101D9C0010B582B0044602224FF401710DF1060019
:101DAC0004F054FABDF806000440ADF806401720C4
:101DBC00FEF782FE02224FF401710DF1060004F0D1
:101DCC00D1FA1720FEF76AFE02B010BD10B582B032
:101DDC00044602224FF401710DF1060004F036FAAC
:101DEC00BDF806000443ADF806401720FEF764FE6C
:101DFC0002224FF401710DF1060004F0B3FA172022
:101E0C00FEF74CFE02B010BD00B583B00023ADF858
:101E1C000630022240F202510DF1060004F016FACF
:101E2C00BDF8063013F4006F02D113F4805F05D0B7
:101E3C00044B00221A7003B05DF804FB014B012225
:101E4C001A70F8E7B607002010B500F58071044C45
:101E5C000822C900204604F0F9F9204610BD00BF45
:101E6C00C807002010B582B04FF48073ADF806306F
:101E7C00C40004F60604022221460DF1060004F00B
:101E8C0071FA022221460DF1060004F0DFF9BDF8CB
:101E9C00063013F4807FF4D002B010BD10B582B0C0
:101EAC000023ADF80630C40004F6060402222146D5
:101EBC000DF1060004F056FA022221460DF106003F
:101ECC0004F0C4F9BDF8063013F4807FF4D102B0ED
:101EDC0010BD000038B59E4B1A8842F6FE739A422C
:101EEC0040F2278104460020FFF7AEFF43880288AA
:101EFC0013F0010F40F0208112F0010F40F01E8111
:101F0C00C18811F0010F3CD0818801F00C0004282D
:101F1C0001D0162536E011F0020F3DD0212B3DD912
:101F2C00B3F5807F3CD8B2F5805F3BD3B2F5405F10
:101F3C0001D3162526E00120FFF786FF03464188D2
:101F4C00028811F0010F40F0FB8012F0010F40F0FD
:101F5C00F980C08810F0010F71D09B8813F00C0F22
:101F6C006FD113F0020F6ED021296ED9B1F5807F9D
:101F7C006DD8B2F5805F6CD3B2F5405F6BD20025A3
:101F8C0000E016250DB9032C0ED80DB9022C64D81F
:101F9C00002D00F0C980CDE01625F3E71625F1E7FA
:101FAC001625EFE71625EDE76A4B01221A70032080
:101FBC00FFF74AFF4288018812F0010F40F0C480FD
:101FCC0011F0010F40F0C280C38813F0010302D05E
:101FDC00002A00F0958053B35F4B1B88934201D0CD
:101FEC001E25D5E7002B00F08D80442A00F28C8052
:101FFC00838813F00C0F40F08980584A1278022A1B
:10200C0008D0022A00F08480554A12888A4207D0F0
:10201C001E25BDE7B1F5805FF3D3B1F5405FF0D27B
:10202C0013F0020FB1D04B4B00221A70ADE7002A0F
:10203C0070D1494B1B88002BA7D01E25A8E716256D
:10204C00A3E71625A1E716259FE716259DE716257C
:10205C009BE7162599E7162597E70220FFF7F4FE74
:10206C004288018812F0010F40F0868011F0010FB8
:10207C0040F08480C38813F0010301D0002A7FD084
:10208C00002B34D0374B1B88934201D01D2551E0D7
:10209C00002B77D0442A77D8838803F00C02042ACB
:1020AC0001D01D2546E02D4A1278022A07D0022ABB
:1020BC006CD02D4A12888A4207D01D253AE0B1F522
:1020CC00805FF4D3B1F5405FF1D213F0400F0AD02A
:1020DC00264A0121117013F0020F3FF459AF1D4B2A
:1020EC0000221A7054E7214A00211170F3E7002AEC
:1020FC004ED11C4B1B88002B3FF44AAF1D2519E019
:10210C001E2545E71E2543E71E2541E71E253FE713
:10211C001E253DE71E253BE72046FFF795FEC288AE
:10212C00134B1A800134E4B2124B1B78A342F3D840
:10213C0000E01425284638BD1725FBE71725F9E7DD
:10214C001725F7E71725F5E71725F3E71725F1E727
:10215C00E8070020D0070020EC070020E007002053
:10216C00E4070020EE070020E6070020DB07002034
:10217C00BE070020EA0700201725DBE71725D9E763
:10218C001D25D7E71D25D5E71D25D3E71D25D1E74F
:10219C001D25CFE7F0B585B00023ADF80C30ADF8B8
:1021AC000A3001930093684A9489684A92891440D2
:1021BC00674A1380674A13700220FFF745FE0288B6
:1021CC00654B1A80838813F0020F40F0878003253B
:1021DC000320FFF739FE0388604A1380828812F0CF
:1021EC00020F7DD103225E49B1F800E00EFB0232F2
:1021FC005C4909888A4205DD5B48008808448342B3
:10220C00C0F25E8259480088824205DD584A128825
:10221C0002449342C0F256824F4AB2F800C0554A6B
:10222C00128805FB02C2914205DA4F4D2D882944D4
:10223C008C45C0F24982904205DA4D490988084420
:10224C008445C0F24382934203DA73449C45C0F246
:10225C003F8202224FF418610DF10E0003F0F6FFDD
:10226C0004224FF41A610DEB020003F0EFFF04227D
:10227C0040F6A411684603F0E9FF0098324B5B88E6
:10228C00324A5188BDF80E2012F4106533D012F486
:10229C00C06600F01F82B6F5806F00F01D826CB135
:1022AC0014F0040F03D112F4007F40F0178214F0E5
:1022BC00080F03D112F4806F40F01282019F47B1D6
:1022CC00A7F5F42CACF5907CDFF8B0E0F44500F207
:1022DC000982B6F5C06F05D000260DE0012577E721
:1022EC00012280E7C8B1B84219D314F0100F00F0E6
:1022FC00FB81012600E000261F4C2478002C3FD0E7
:10230C007DB99A1E92B2012A40F2F081022900F0A6
:10231C00EF81032946D13020FEE00026ECE70026B1
:10232C00EAE712F4806F05D1032B00F0E381032957
:10233C0000F0E28112F4007F34D1022B00F0DE8138
:10234C0002292FD13020E7E0D00A00208C0A00208F
:10235C00F0070020D4070020E6070020E407002047
:10236C00EC0700207E0A0020820A00207C0A002054
:10237C00800A0020EE070020870A0020E05E48C398
:10238C00002D40F0D580904B1A88002A00F0C680B2
:10239C008E4B1988002900F0C780222101238C4A1A
:1023AC0001249483032B00F0D680022B00F0D980FB
:1023BC00884A12782AB9002B00F0A281002900F07B
:1023CC00A18103B911B1844A01241470824A127894
:1023DC0042B17D4A1288002A00F0CA807F4A4FF42D
:1023EC00806414809A1E92B2012A03D9022901D06A
:1023FC00032908D17A4A01241470734A128812B93D
:10240C00764A00241480724A5380764A5180002206
:10241C00754C2280754C2280754C2280754C228024
:10242C00002E40F0AF80022B00F0CA80032902D0AE
:10243C006D4B01221A80704B00221A8002224FF43D
:10244C0084610DF10A0003F001FFBDF80A205E4B18
:10245C001B8813B1002A40F0E7800023ADF80C3044
:10246C00664A1380654B1B8823B9654A1278002A8B
:10247C0040F04A8123B1624B1B78002B00F046815F
:10248C00554B1B783BB1504B1B8823B1534A1388D7
:10249C0043F48063138000235A4A13805A4A1380F2
:1024AC005A4A13805A4A13805A4A13705A4A137064
:1024BC005A4A13804B4A82F84030454A82F84030E1
:1024CC001385BDF80E3013F4007F18D0019959B163
:1024DC004A095348A0FB0202D2095248814200F239
:1024EC00C280484A0120108013F4806F07D0009AF4
:1024FC00914240F2C180434B1A88454B1A80324BB3
:10250C001B88002B40F0D480304B1B88002B40F0F4
:10251C00D38003F009FA002005B0F0BD2B4B1B88CB
:10252C0023B1134601213AE7012338E7194636E770
:10253C00254B1B880BB156B103232449098800296C
:10254C003FF430AF12F4806F03D003212AE702234B
:10255C00F3E7022126E7019A1D4C6262214C62626C
:10256C0026E7019A1A4C626292B21E4C62621FE715
:10257C00164A1288002A3FF435AF184A4FF400640B
:10258C0014802FE7019B98420AD3B0FBF3F291B26F
:10259C00174C218003FB12022AB90131218002E081
:1025AC00134A01211180B0FBF3F18AB20E4C228048
:1025BC0003FB110000283FF43EAF013222803AE7C2
:1025CC000B4B01221A8031E7EE070020EC070020AC
:1025DC00D00A0020D0070020D8070020F0070020E8
:1025EC00D30700208C0A0020BC070020BA0700206B
:1025FC00F6070020F4070020880A0020B40700200A
:10260C00DB070020C2070020C0070020C407002001
:10261C00C6070020D2070020DA070020DE070020C2
:10262C00C55A7C0A1FA1070002224FF4806103A83F
:10263C0003F00CFEBDF80C207AB10232BDF80A1082
:10264C0046F2A71302FB0133DB08314AA2FB03233A
:10265C00C3F30F232F4A138004E70023ADF80A308D
:10266C002C4A1380FEE6520092B22B48A0FB0202C9
:10267C00D2082A48028037E753092949A1FB0313E2
:10268C00DB0928498A420AD8274B01221A80264A9C
:10269C00224B1988138803EB510313802FE75B003F
:1026AC009BB21D4AA2FB0323DB081F4A1380EEE7F3
:1026BC000220FFF7F3FB27E70320FFF7EFFB28E7E8
:1026CC001E2029E71E2027E71D2025E71D2023E7D4
:1026DC001D2021E730201FE730201DE730201BE7AD
:1026EC00302019E7362017E7302015E7302013E7A4
:1026FC00302011E730200FE730200DE730200BE7BA
:10270C00292009E7292007E71F2005E71F2003E7F9
:10271C0089B5F814B4070020CDCCCCCCC20700206E
:10272C00C55A7C0A1FA10700C6070020094B1B785D
:10273C0053B9094B1B7853B1084BC8221A80084B6C
:10274C0000221A80FF207047064B18887047FF2024
:10275C00704700BFD9070020D3070020DE070020F8
:10276C00DC070020F20700200023024A1370024A03
:10277C0013707047D4070020D607002008B51D4BF6
:10278C001B88002B2ED11C4B1B88002B2ED14FF2FB
:10279C00F330FFF7FDFA0023184A1370184A137030
:1027AC00184A1370184A1370184A1370184A138079
:1027BC00184A1380184A1380184A1380184A138039
:1027CC00184A1380184A1380184A1380184A82F842
:1027DC004030184A1380184A1370184A1370184A5C
:1027EC00137008BD0220FFF73DFBCCE70320FFF779
:1027FC0039FBCCE7EE070020EC070020D4070020C3
:10280C00D8070020D3070020D2070020DA070020C9
:10281C00F6070020F4070020C2070020C0070020A4
:10282C00C4070020C6070020BC070020BA07002000
:10283C008C0A0020DE070020DB070020D5070020D3
:10284C00870A0020014B00221A707047870A00206B
:10285C0000B583B0ADF806100F4B1B78834201D046
:10286C000D4B18704FF6FF7399420DD10A4B1B7824
:10287C00ADF8063002224FF498710DF1060003F00A
:10288C0071FD03B05DF804FB02224FF49A710DF157
:10289C00060003F067FDE9E7E00700202DE9F041B1
:1028AC000E46474B4FF6FF721A80464B01221A70A8
:1028BC0010F010072BD0444A137823F01003137038
:1028CC00012700F00F05404B1C782401E4B22C4486
:1028DC00E4B2482C2FD8222C28D3A4F12203262B87
:1028EC007ED8DFE803F02F7D357D7D7D7D7D7D7D80
:1028FC007D7D7D7D7D7D7D7D7D7D7D7D7D7D7D7DFC
:10290C007D7D7D7D7D7D2F7D3B7D7D7D3B002E4BBB
:10291C001B7813F0100F04D000F00F02012A40F0C6
:10292C00258203F00F03284A1370CAE7122C09D032
:10293C004FF0000856E0842C10D0882C0ED0822C3E
:10294C0040F0D2800220FFF7C5FA1FFA80F80BE0A6
:10295C001E491F4803F046FA804628B91D4B1878CB
:10296C00FFF7B8FA1FFA80F8B8F1000F3AD0164BFF
:10297C001B78042B00F0AC81082B00F0A581022BF6
:10298C0000F0AA81B8F1FF0F40F0C581124B012273
:10299C001A70A4B2114B1C80242C00F0B58100F2EB
:1029AC00AD81123CA4B2944200F2AA81044B4FF4C4
:1029BC00FA621A80024A1388323B1380D6E100BFB8
:1029CC00B8070020D1070020E0070020EE07002008
:1029DC00EC070020EA070020D7070020E2070020C0
:1029EC004FF000089D4B00221A80A4F11103772BA5
:1029FC0000F28F81DFE813F040018000BC0165011B
:102A0C008D018D018D0165018D018D018D018D0172
:102A1C008D018D018D018D012A0142016501AC00F2
:102A2C008D018D018D0165018D018D018D018D0152
:102A3C008D018D018D018D017B0065018D0165017D
:102A4C008D018D018D0165018D018D018D018D0132
:102A5C008D018D018D018D011D0108016501420162
:102A6C008D018D018D01D2008D018D018D018D01A6
:102A7C008D018D018D018D018D018D018D018D01DA
:102A8C008D018D018D018D018D018D018D018D01CA
:102A9C008D018D018D018D018D018D018D018D01BA
:102AAC008D018D018D018D018D018D018D018D01AA
:102ABC008D018D018D018D018D018D018D018D019A
:102ACC008D018D018D018D018D018D018D018D018A
:102ADC008D018D018D018D011001FB006501F3004D
:102AEC008D018D018D0142014FF000087AE7FFF74F
:102AFC00A9FE4FF013080EE1FFF786F9584B1B782F
:102B0C00002B00F0F880B8F1000F7FF43BAF00F021
:102B1C00F9FC804668B1B8F1000F3FF433AFB8F15F
:102B2C00FF0F3FF42FAF4F4B1B7873B100F036FD06
:102B3C0028E74C4B00221A7003F023F9804600283A
:102B4C00E9D1494B01221A70E5E703F01CF9EDE7D6
:102B5C00FFF720FB804668B1B8F1000F3FF412AFCD
:102B6C00B8F1FF0F3FF40EAF3E4B1B789BB1FFF754
:102B7C0005FE07E73B4B00221A703C4803F005F9B1
:102B8C0080460028E8D1394B1888FFF71FF9384BDD
:102B9C0001221A70E0E703F0FAF8E8E7FFF7C6FD48
:102BAC00804668B1B8F1000F3FF4ECAEB8F1FF0FFE
:102BBC003FF4E8AE2B4B1B7873B1FFF7D5FDE1E684
:102BCC00284B00221A7003F0E4F880460028E9D163
:102BDC00284B01221A70E5E703F0DEF8EDE703F06D
:102BEC00DBF8FFF7C1FD1F4B00221A70CAE603F099
:102BFC00D3F88046FFF7B8FD1A4B00221A70B8F1D3
:102C0C00000F7FF4BFAE422403F0C1F8FFF7B6FD0E
:102C1C00144B00221A70B5E603F0BEF88046FFF79D
:102C2C00A3FD104B00221A70B8F1000F7FF4AAAE6E
:102C3C00412403F0ACF88046FFF7A0FD094B0022BD
:102C4C001A70B8F1000F7FF49DAE212400F0A6FCA1
:102C5C0003F099F88046FFF7F5FD93E6E2070020B4
:102C6C00B6070020D1070020FD090020F007002046
:102C7C00D5070020D6070020FFF7E4FD8FB9504B95
:102C8C001B78002B77D14F4B1B7813F00C0F75D0A2
:102C9C004D4B1B884BB94D4B1B8863B94FF0FE084D
:102CAC0039E0204603F06CF8E9E70220FFF7F6F86C
:102CBC004FF0FE082FE00320FFF7F0F84FF0FE086E
:102CCC0029E04FF0110826E003F066F8FFF74CFD01
:102CDC0003F05DF8FFF752FDB8F1160F03D0394B36
:102CEC0002221A704EE600F059FC03F04CF8354BFA
:102CFC0001221A7046E64FF0510843E6482C03D0E7
:102D0C00334BC8221A8055E6314B42F228321A80D6
:102D1C0050E64FF012082B4B187800F00F039D4231
:102D2C0047D0B8F1000F00D166B1284310F0080F5E
:102D3C0008D0284B1B7823BB234B1B8833BB234B5E
:102D4C001B883BBBB8F1000F2CD01E4B1B78082BFB
:102D5C0024D01C4A137843F0100313701E4B00222E
:102D6C001A704146174B1878FFF772FDBDE8F081D9
:102D7C004FF01308CFE74FF0FE08CCE74FF0FE08FA
:102D8C00C9E703F009F8FFF7EFFCD5E70220FFF7DE
:102D9C0069F8D7E70320FFF765F8D3E7094B04225E
:102DAC001A70D6E716B145F01005B046054B1D70EC
:102DBC00D4E70021084B1970FFF74AFDD6E700BF96
:102DCC00D9070020E0070020EE070020EC070020C8
:102DDC00B8070020D6070020D707002038B5784B5D
:102DEC001B78002B3BD0774BB3F90030002B62D112
:102DFC00754B1B88C3F30714242B34D011D8123B0A
:102E0C009BB2012B00F2D680704B1B7843B300F0C1
:102E1C00C5FB6F4B1B78002B00F0CE806D4B1D88D3
:102E2C0012E0482B0FD16C4B1B7863B36B4B1B78A8
:102E3C00002B30D06A4B1B78002B33D1694B1B888D
:102E4C0093BB1A2528E000254CB15D4B00221A706B
:102E5C000DB144F0100429462046FFF7F9FC38BDAB
:102E6C0002F091FFD3E7594B1B784BB1FFF786FC6F
:102E7C00574B1B78002B00F0A180564B1D88E3E7C5
:102E8C0002F085FFF2E7574B1D887DB9564B0122A6
:102E9C001A700824D8E72D254C4B1B7843B1FFF74B
:102EAC0063FCD1E71A25F7E71B25F5E71B25F3E7AC
:102EBC0002F072FFF3E7444B1B88242B40D016D84A
:102ECC00123B9BB2012BCAD8404B1B78002BC6D0AF
:102EDC003E4B00221A7002F054FF054648BB434B90
:102EEC0001221A70384B1C7804F00F04ACE7482B05
:102EFC00B5D1364B1B78002BB1D0374B1B78002B40
:102F0C003FD03B4BB3F90030002BA8DD394AB2F966
:102F1C0000209342A3DC0023354A1380354A1380EA
:102F2C0002F037FF054620BB2F4B01221A700824F4
:102F3C008BE7FF2893D002F026FF00F02FFB8EE7E3
:102F4C00224B1B78002B8AD0204B00221A702A4867
:102F5C0002F01BFF054620B9284B01221A700424ED
:102F6C0073E7FF283FF47BAF02F011FFFFF706FC7D
:102F7C0075E7FF283FF473AF02F00EFFFFF7F4FB89
:102F8C006DE7184B1B8823B1154B1B78002B3FF4B6
:102F9C0066AF02F0FEFE054620B9134B01221A70F3
:102FAC00082452E7FF283FF45AAF02F0F5FEFFF772
:102FBC00DBFB54E7002547E7012545E7012543E7FF
:102FCC00D7070020B8070020E2070020D107002017
:102FDC00D9070020F2070020D3070020D2070020D9
:102FEC00D4070020EE070020D6070020FD090020A2
:102FFC00DE070020DC070020F0070020D5070020AA
:10300C002C4B1B78002B54D02B4B1B883BB12B4AE1
:10301C001288934203D82A4B00221A7009E0274ADF
:10302C001288934202D90132244B1A80244B01227C
:10303C001A70234B1B784BB1224B1B8833B1224A9D
:10304C001288934218D901321F4B1A801C4B1B78E3
:10305C004BB31E4B1A8D1E4B1B899A4210D21D4B23
:10306C0001221A701C4BB3F90030002B21DD1B4AD6
:10307C001388013313807047114B00221A70E5E757
:10308C00144B1B78ABB1134B00221A700F4B01225F
:10309C0083F84020104BB3F90030002B09DD0F4BA7
:1030AC0000221A8070470B4B1B7813B1094B00227E
:1030BC001A707047D3070020C2070020C0070020F9
:1030CC00D2070020C6070020C4070020D00A002029
:1030DC001C000020DA070020DE070020DC0700209F
:1030EC0000B583B01D4B1B8873B91D4B1B7843B1C6
:1030FC001C4B1B782BB11C4B1B7823B31B4B1B7825
:10310C0033B303B05DF804FB0023ADF806300222A4
:10311C004FF488610DF1060003F098F8BDF8063005
:10312C0013F0010FE1D1124B1B88002BDDD00D4B9E
:10313C001B781BB90F4B00221A70D6E71B210420F9
:10314C00FFF7ACFBDDE72C210420FFF7A7FBD8E74A
:10315C001A210420FFF7A2FBD3E700BFB40700201D
:10316C00D3070020D6070020D2070020DA07002062
:10317C00EE070020D407002010B582B00024ADF873
:10318C000640022204210DF1060003F05FF8BDF8A1
:10319C0006301B0A274A1370022206210DEB010090
:1031AC0003F054F8BDF806309B029BB203F6FF7394
:1031BC00214A1380FEF728FE04E02046FEF752FE5B
:1031CC000134E4B21B4B1B78A342F6D800F030F963
:1031DC0000241A4B1C701A4B1C701A4B1C701A4B87
:1031EC001C701A4B1C701A4B1C701A4B1C801A4BFF
:1031FC001C801A4B1C801A4B1C801A4B1C801A4BBF
:10320C001C701A4B1C701A4B1C801A4B1C801A4BCE
:10321C001C801A4B1C800120194B18702146FFF79B
:10322C0017FB184B1C80184B1C70FEF769FD02B085
:10323C0010BD00BFEA070020E8070020D1070020DE
:10324C00D7070020D4070020D6070020D507002080
:10325C00DB070020B4070020C0070020C2070020B5
:10326C00C4070020C6070020D3070020D907002080
:10327C00F2070020F0070020EE070020EC070020EA
:10328C00E0070020E2070020D807002010B582B02C
:10329C000023ADF806300123ADF8043000F0F2FB4A
:1032AC00484B1B78002B4CD103F02CF8044610F043
:1032BC00010F03D0444B1B78002B49D014F0100F96
:1032CC000BD0414B1B7843B9404B187810F0100FC2
:1032DC0003D120F01003012B4AD13B4B1B78002B60
:1032EC004FD1384B1B7853B3BDF8043013F0010F9A
:1032FC004AD014F4007F4FD1BDF8043013F0020310
:10330C0002D0334A12781AB1A3B9314B1B788BB166
:10331C0000F088FA2E4B1B78002B48D0BDF80430F7
:10332C0043F40073ADF80430022240F60E0101A8FC
:10333C0003F018F802F0E6FF10F4807F3ED102B0E3
:10334C0010BD022240F60E0101A802F07FFFABE790
:10335C0002224FF490710DF1060002F077FF24F079
:10336C001104A4B200219DF80600FFF797FAA5E717
:10337C0024F01004A4B2002100F00F00FFF78EFA25
:10338C00ABE7FFF72BFDACE7104B1878002100F0F2
:10339C000F00FFF783FAACE70E48002303800222EC
:1033AC000D4B198802F0DEFF00F0F2F9A4E7BDF82E
:1033BC00043023F40073ADF80430B5E700F0DEFA06
:1033CC00BDE700BFFD090020D7070020E007002063
:1033DC00FC090020F80700207E0A00204A88531CB4
:1033EC009BB2B1F804C09C4509D0B1F800C09C4513
:1033FC0007D0023241F822004B8000207047002396
:10340C00F3E7072070470246038841888B420CD0B3
:10341C00991C50F8210001339BB21380918899427A
:10342C0000D070470023138070470020F9E700009C
:10343C0010B582B0224B22221A80224B4FF480729C
:10344C001A804FF48053204A1380204A1380204B5B
:10345C0000241C805C800A229A801E4B1C805C809D
:10346C009A801D4B1C601D4B1C601D4B1C601D4B22
:10347C001C601D4B1C70ADF80640022240F60E017C
:10348C000DF1060002F0E2FEBDF8063023F40073E5
:10349C00ADF80630022240F60E010DF1060002F0E6
:1034AC0061FF124B1C70124B1C70124B1C70124B98
:1034BC001C70124B1C70124B1C7002B010BD00BF64
:1034CC00800A0020820A00207C0A00207E0A00204C
:1034DC00140A0020480A0020100A0020080A0020C4
:1034EC00040A00200C0A0020FC090020FD09002021
:1034FC00000A0020FF090020840A0020860A002010
:10350C00850A002038B50020FEF79EFC43881D4C30
:10351C00238003881C4D2B800120FEF795FC4388EB
:10352C001A4A138001881A4A11802888228802447A
:10353C008A4202DD0B44984222DB0020FEF7AEFCEF
:10354C000120FEF7ABFC0F4B188802F0CFFF114B9C
:10355C00186030B10024104B1C7002F0CFFF2046D5
:10356C0038BD0D4B01221A700A2002F0BFFF094B27
:10357C00186018B1002402F0C1FFF0E70224FAE74A
:10358C001624ECE7800A00207C0A0020820A002026
:10359C007E0A0020100A0020FE09002010B582B01F
:1035AC0000202F4B1870FEF75DFC0120FEF75AFC33
:1035BC002C4B186808B102F0A1FF2B4B186828B1EE
:1035CC00284B1B68984201D002F098FF274B1868D3
:1035DC0048B1244B1B68984205D0234B1B6898427A
:1035EC0001D002F08BFF00241E4B1C601F4B1C6093
:1035FC001D4B1C601E4B1C70ADF80640022240F6A1
:10360C000E010DF1060002F021FEBDF8063023F488
:10361C000073ADF80630022240F60E010DF10600E3
:10362C0002F0A0FE134B1C70134B1C70134B1C7040
:10363C00134B1C70134B1C701348FFF7E4FE10B9AE
:10364C000028F9D101E002F059FF1048FFF7DBFE2A
:10365C0010B90028F9D101E002F050FF02B010BD02
:10366C00FD090020080A00200C0A0020040A002092
:10367C00FC090020000A0020FF090020840A002019
:10368C00860A0020850A0020140A0020480A00201F
:10369C0008B58388C3F30323032B01D0022008BD94
:1036AC00FEF738FBFBE70000F0B583B02F4B1B781F
:1036BC0003F00F03012B55D004462D4B1B78002B28
:1036CC0052D02C4B1D781DB10725284603B0F0BDF8
:1036DC000788BA1D92B2284B198802F043FE0023CA
:1036EC00ADF80630022240F60C010DF1060002F096
:1036FC00ADFDBDF806309BB2ADF80630BDF8063016
:10370C0013F4006F14D11D4B1E88F21BD2B2063A73
:10371C00D2B21B4B00211980012A15D9164B1988DE
:10372C00314489B20239022289B2154802F01AFEDC
:10373C00144B1B6893B1144B00221A60114B1C6084
:10374C000C4B01221A70C0E7B91D21F00101C2F126
:10375C0002022144184602F0D9FEDFE70A4B0B4A5D
:10376C001A60EBE7F025B0E7F025AEE7E0070020A4
:10377C00FD090020000A00207E0A0020820A002099
:10378C00F8070020040A0020100A0020FC08002082
:10379C0008B51D4B00221A701C4B186810B11C4B3D
:1037AC001B6893B11B4B1A68184B1A60184B18689E
:1037BC0088B1FFF779FF164B00221A60164B1B7865
:1037CC0013B113F0020F0ED108BD02F097FE0F4B90
:1037DC0000221A60E6E71148FFF715FE0028EDD02D
:1037EC00FFF762FFEAE723F002030B4A13700C4B5E
:1037FC001868FEF7A5FA0028E6D0074A137843F0BC
:10380C0002031370E0E700BF000A0020080A002042
:10381C000C0A0020040A0020840A0020480A002018
:10382C00100A002010B5124B1C685CB1114B1B78B0
:10383C0013B1114B1B6863B12046FFF735FF0C4BDE
:10384C0000221A600D4A1378B3FA83F35B091370E4
:10385C0010BD0120FEF706FB094B1A68064B1A60D7
:10386C000120FEF71BFB034B00221A70E4E700BF9C
:10387C00080A0020000A00200C0A0020FC09002085
:10388C00040A002038B51D4B1B7803F00F03012BE5
:10389C0032D005460C468388C3F30B038380184A49
:1038AC00127812F0070F02D1154A01211170144A37
:1038BC00127843EA0233AB802846FFF7F5FE38B99D
:1038CC000F4A13780133137064B2002C0DDB38BD32
:1038DC000C492846FFF782FD10B144F08004F3E751
:1038EC00074A137801331370EEE704F07F04064B9C
:1038FC001A7814431C70EAE7F020E8E7E007002090
:10390C00850A0020480A0020840A002010B50446CD
:10391C0083880188B1F5807F0DD81A0B1AB1154B2D
:10392C001B78934222D0134B1A7013492046FFF791
:10393C0055FD68B910BD0422028023F470638380A6
:10394C000123C380082303810021FFF79BFFF1E7CC
:10395C0004222280A28822F47062A2800122E280DA
:10396C00208100212046FFF78DFFE3E702F0C6FD22
:10397C00E0E700BF860A0020140A002010B582B0D0
:10398C000222384B19880DF1060002F05FFC364B11
:10399C001B78012B10D0BDF8063006339BB2ADF866
:1039AC000630324A127812B9314A1278D2B1314B00
:1039BC0001221A7002B010BD0A2002F097FD0446D5
:1039CC000028E8D0002101604160018104230380BC
:1039DC000123C38007230381FFF754FF204602F025
:1039EC008DFDD8E7234A00211170234A10888342A9
:1039FC0001D9ADF8060002F079FD204B1860E8B152
:103A0C00BDF80620174B198802F020FC0023ADF8F6
:103A1C000430022240F6040101A802F017FCBDF8A4
:103A2C0004309BB2ADF80430BDF8043013F4006FD1
:103A3C0008D1124B1868FFF769FFBBE70D4B012249
:103A4C001A70B7E70E4800230380064B19880A4BFF
:103A5C001B88194489B20239022289B202F0F6FBA2
:103A6C00E7E700BF7C0A0020FE090020000A0020C6
:103A7C00840A0020FF090020800A0020100A002080
:103A8C00F807002010B500E0BCB10F48FFF7BBFCF5
:103A9C0004460028F8D0FFF7FBFD0028F4D00422E0
:103AAC002280A28822F47062A2800122E28020810E
:103ABC0000212046FFF7E6FEE6E7044B1B7803B92E
:103ACC0010BDFFF75BFFFBE7140A0020FF09002085
:103ADC0010B5044601F0E8FD00E0406810B1038920
:103AEC00A342FAD110BD10B5B2F80CE0CEF303200E
:103AFC0023B35FFA8EFE072838D0082802D00123A2
:103B0C00002014E09369187813691B8903FB00F0FB
:103B1C000730C008F9B902301DE003EB430C1469FF
:103B2C0004EB4C0CBCF802C060440133DBB27345AF
:103B3C00F3D90730C00871B902300CE007280BD05C
:103B4C00B1B108280DD0136901EB410103EB410120
:103B5C0048880730C01010BD136958880730C01052
:103B6C00F9E7136918890730C010F4E70020F2E771
:103B7C000120F0E7302383700E4BA3FB01234FEAA7
:103B8C00531C027802EB53130370642303FB1C11C8
:103B9C00C9B2094AA2FB0132D30890F801C00CEB60
:103BAC00D202427003EB8303A1EB430130318170ED
:103BBC00704700BF1F85EB51CDCCCCCC2DE9F0412B
:103BCC0084B01D4654699389C3F30323D1B10F46C6
:103BDC00072B17D0092B24D0002D52D02A4B6C4622
:103BEC000FCB07C4237039460DF10900FFF7C2FF54
:103BFC006B4607CB28606960AA601B782B734FF06B
:103C0C000C080AE02046FCF7EBFA1FFA80F825B105
:103C1C0042462146284602F079FC404604B0BDE8F5
:103C2C00F0811FFA81F82046FCF7DAFA461C26448C
:103C3C00012444451FD83378FD2B19D8444507D0AF
:103C4C000134A4B23046FCF7CBFA01300644F0E75D
:103C5C003046FCF7C5FA1FFA80F8002DBCD0B8F13D
:103C6C00000FB9D042463146284602F04FFC04E022
:103C7C004FF0000801E04FF00008B8F1000FCCD174
:103C8C00AAE74FF00C08C8E70C0000208389C3F3A7
:103C9C000323082B05D0006901EB410100EB410027
:103CAC00704709B9006970470069063070472DE903
:103CBC00F047804620278740BFB201F0F5FC05464F
:103CCC004FF0000A15E0B5F80C904646002401E0D0
:103CDC000134A4B2B6B15FFA89F39C4212D8E1B2B6
:103CEC002846FFF7D3FF83883B42F1D00026EFE74D
:103CFC006D6875B12B89B3F5805FF9D3B8F1000FFE
:103D0C00E1D14646002EF3D10AF1010A1FFA8AFAD4
:103D1C00EEE75046BDE8F0872DE9F04F83B08246C0
:103D2C000191174600934FF0200909FA00F91FFA88
:103D3C0089F90B88B3F5805F0DD0254B1D685DBBF1
:103D4C00002D3FD02B89019A1380214B1D603846E2
:103D5C0003B0BDE8F08F01F0A7FC05460028EED1BA
:103D6C000C9B002BEBD01B230C9A1370E7E795F8F8
:103D7C000CB05646002401E00134E4B2CEB15C45EF
:103D8C0017D821462846FFF781FF838813EA090FCD
:103D9C00F2D00026F0E76D68002DD1D0012FCFD9DD
:103DAC00B5F80880B8F5805FF5D3BAF1000FDED115
:103DBC005646002EEFD1009B23F8028B0093023F56
:103DCC00BFB2E8E74FF6FF73019A1380BDE700BF5F
:103DDC00380B00200A307047F0B5B1F80CE0CEF388
:103DEC00032E044600B11020BEF1070F00F0B18085
:103DFC00012227E00D69063530E0B3F5187F0ED0AF
:103E0C0007D3A3F2622C1FFA8CFCBCF1010F40F219
:103E1C008D80964214D96B88184480B210E00F3014
:103E2C0080B220F00F0080B2964209D90B2B02D041
:103E3C00B3F5187F02D16B88184480B2103080B271
:103E4C00013292B2A6B29642C0F08480BEF1080F45
:103E5C00D0D00D6902EB420305EB43052B882F2BC9
:103E6C00CBD8032BD5D3A3F1030CBCF12C0FD0D89A
:103E7C0001A757F82CF000BF2B3E0008393F000873
:103E8C001F3E00082B3E0008393F0008393F000850
:103E9C001F3E00081F3E00082B3E00081F3E000876
:103EAC001F3E00081F3E00081F3E00081F3E000872
:103EBC001F3E00081F3E00081F3E00081F3E000862
:103ECC001F3E00081F3E00081F3E00081F3E000852
:103EDC001F3E00081F3E00081F3E00081F3E000842
:103EEC001F3E00081F3E00082B3E0008393F00080B
:103EFC001F3E00081F3E00081F3E00081F3E000822
:103F0C001F3E00081F3E00081F3E00081F3E000811
:103F1C001F3E00081F3E00081F3E00081F3E000801
:103F2C001F3E00082B3E0008393F00081F3080B2AE
:103F3C0020F01F0080B2964282D9A3F262239BB27A
:103F4C00012B02D9203080B27AE76B88184480B2FA
:103F5C0076E70020F0BD00BF22297AD8DFE801F017
:103F6C0012144961797979797979797979797979C9
:103F7C0079797979797979797979797979797979A5
:103F8C00797938000020704741F63243984205D0C9
:103F9C0041F6334398420CD012207047354B1B88A6
:103FAC00002BF5D0344B9B8913F0020FF0D000207E
:103FBC007047324B9B8913F0020F4CD02D4B1B8852
:103FCC00002B4AD12E4B1B88002B48D11220704756
:103FDC0041F63343984201D012207047274B9B89FE
:103FEC0013F0020F3DD0234B1B88002B3BD112202A
:103FFC00704741F63243984205D041F6334398421C
:10400C0008D0122070471C4B9B8913F0040FF4D07E
:10401C0000207047194B9B8913F0040F25D11220F7
:10402C00704741F63243984205D041F633439842EB
:10403C0008D012207047104B9B8913F0080FF4D056
:10404C00002070470D4B9B8913F0080F0FD11220E5
:10405C0070471220704712207047122070470020C2
:10406C0070471220704700207047002070470020D6
:10407C00704700BFEE070020D00A00208C0A0020F9
:10408C00EC0700202DE9F04F8BB0049007911446FB
:10409C001F46149E9DF8543003931FFA81FBBB8975
:1040AC00C3F303220992DBB20893072A05D0B0F5BB
:1040BC00805F02D3BB691B780893039BABB1099B50
:1040CC00072B00F0E781049BB3F5805FC0F0E5811E
:1040DC00089B0293FD694DB3039B00933346224624
:1040EC0007990498A8470590E8E1089B5B45C0F048
:1040FC00D78107993846FFF7C9FD828882B1D3B2C0
:10410C005B00A249097803F00E0301F00F018B420A
:10411C0009D212F0070F40F0C68106230593CDE1BA
:10412C00CDF808B0D6E7CDF808B0D3E7049BB3F5CB
:10413C00805F80F09D81079D002D00F0A081BC69FF
:10414C0029463846FFF7A2FD40880730C210C00848
:10415C0005F18043013B54F8231011F0010F22D0DC
:10416C0021F001010904090C00220AE00B881B0A4A
:10417C00338031F8024F43EA042326F8023B013224
:10418C0092B2B2EB500FF1D310F0010F00F08E8110
:10419C00338803F47F4333800A8843EA1223338045
:1041AC00002305938AE10B8833804B887380043A93
:1041BC000431301D02F0AAF9002305937EE1A046DC
:1041CC00C8F30F1A09EB4A0BE1B23846FFF75EFD54
:1041DC00054603795B006D4A127803F00E0302F07A
:1041EC000F029342C0F00181069B9C4206D0039AB9
:1041FC00002A00F01C819C42C0F01981002C4BD08D
:10420C002B88B3F5E06F05D36A88082A4BD802F1E6
:10421C002F039BB2372B58D8372B00F24A81DFE89B
:10422C0013F0720086008600AA0046008600AA00E1
:10423C0046004600CD005A005A004801480148018A
:10424C0048014801B900480148014801B90048013A
:10425C004801480148014801B9004801480186005D
:10426C00AA0046004801480148014801480148019C
:10427C004801480148014801480148018600AA004C
:10428C004600860086008600860086008600860032
:10429C0086004FF0000893E7099B072BB0D0089BD2
:1042AC0026F8023BC3E0102A65D0202AB2D118F0C0
:1042BC000F0F40F00D8139F81A303380BBF8023003
:1042CC007380043601230793B1E0A3F518739BB2F6
:1042DC00032B00F2F18018F00F0F40F0FF806A887A
:1042EC000732D2105946304602F010F96B881A0981
:1042FC0006EB420613F00F0F00F0B18033783380D9
:10430C000123079393E0039B002B00F0DB806B8869
:10431C0013F00F0F04D0984418F00F0F00D1023691
:10432C00C3F3031306EB4306012307937FE06A886C
:10433C00174B33F8123008F00F0293401FFA83FC2E
:10434C0039F81A000AB9002131803188039B63B116
:10435C000CEA00030B4333806B88984418F00F0F62
:10436C007AD102360123079361E00CEA0003134172
:10437C000B433380F0E718F00F0F40F0A68039F8AC
:10438C001A3026F8023B0123079350E0E007002087
:10439C008467000818F00F0F40F09D8039F81A3030
:1043AC003380BBF802307380BBF80430B380BBF8A9
:1043BC000630F38008360123079338E018F00F0F0E
:1043CC0040F08F806A880732D2105946304602F08E
:1043DC009DF86B881A0906EB420613F00F0F41D0BB
:1043EC00337833800123079321E018F00F0F01D1AC
:1043FC00002333806B8813F00F0F06D0434413F067
:10440C000F0F02D1002373800236002304E0002238
:10441C0026F8022F0133DBB26A88C2F303129342EF
:10442C00F5DBAB8813F0070F1FD10623059301347E
:10443C00A4B2029B9C4228D8D7F81890002C3FF4C9
:10444C00BEAE049BB3F5805FFFF423AF3946E0B2F8
:10445C00FFF7C2FC8046B3E601230793E7E701238D
:10446C000793E4E701230793E1E71A230593DEE7BB
:10447C005C46002305930793CDF818B0D9E7079B4A
:10448C0005935C46CDF818B0D3E7079BB3B1002376
:10449C00059313E00523059310E0052305930DE028
:1044AC00112305930AE01A23059307E000230593D3
:1044BC0004E01823059301E01823059305980BB02D
:1044CC00BDE8F08F18230593F8E705230593F5E76E
:1044DC0005230593F2E705230593EFE705230593E1
:1044EC00ECE705230593E9E72DE9F04F8BB0059038
:1044FC000C4615461E46DDF850809DF8543004934A
:10450C001FFA81FBB389C3F303220692DBB2079334
:10451C00072A1AD0B36993F800A0BAF1000F16D18C
:10452C00A0F5E053103B9BB21F2B1BD9A0F5B05349
:10453C009BB2B3F5007F18D3A0F5D0539BB2B3F563
:10454C00007F04D2DDF81CA001E04FF0000A049BB0
:10455C0073B1069B072B00F0328214BB0DB398F895
:10456C0000A01EE0DDF81CA0F1E7DDF81CA0EEE7D2
:10457C00DA45C0F0278221463046FFF787FB818859
:10458C008A1002F00E02A34B1B7803F00F039A4221
:10459C0006DA11F0380F40F018820723039324E059
:1045AC00DA46BCB1059AA2F5E053103B9BB21F2B27
:1045BC000BD9A2F5B0539BB2B3F5007F05D3A2F58E
:1045CC00D0539BB2B3F5007F13D2B3691B789BB960
:1045DC00099300E00994376A8FB1049B009343461A
:1045EC002A4621460598B847039003980BB0BDE8BE
:1045FC00F08F00230993EEE701230993EBE7002DDD
:10460C0000F0E6815C4607230393002308931BE12B
:10461C00069B072B00F04081B8F80030DAB20799FE
:10462C009142C0F0D881A9F8003008F102080123AA
:10463C00089307E1102A7FD0202A40F0388110F02F
:10464C000F0F40F0E081099B6BB1B9F80020B8F86E
:10465C0000309A4240F0DA81B9F80220B8F8023002
:10466C009A4240F0D681B8F80030A9F80030B8F87A
:10467C000230A9F8023008F1040801230893E1E0A4
:10468C00A3F518739BB2032B00F2AB8110F00F0F44
:10469C0040F0C8816A880732D2104146484601F082
:1046AC0035FF6B881B0908EB430801230893C9E00D
:1046BC00049B002B00F098816B8813F00F0F05D032
:1046CC00184410F00F0F01D108F10208C3F30313C3
:1046DC0008EB430801230893B4E06A884E4B33F887
:1046EC00121000F00F0C01FA0CF297B2B9F800306E
:1046FC0023EA02031AB29E46049B8BB1B8F8002041
:10470C003A404EEA0203A9F800306B88184410F0C6
:10471C000F0F40F04A8108F102080123089391E041
:10472C00B8F8003033EA010740F061810B4003FA1E
:10473C000CF313439BB2E6E710F00F0F40F05A81D5
:10474C00B8F80050099B23B1B9F80030AB4240F0E7
:10475C005481059BA3F5E053103B9BB21F2B0ED845
:10476C00A5F5B0539BB2B3F5007F08D3A5F5D05394
:10477C009BB2B3F5007F02D3002D40F04181059B25
:10478C00A3F5E153123B9BB2012B06D9A9F80050BB
:10479C0008F102080123089354E0012CF6D1B9F872
:1047AC000030AB4207D029460598FFF7D5FB0390A4
:1047BC0000287FF41AAF194B01221A70E6E710F0AB
:1047CC000F0F40F02981B8F80030A9F80030B8F884
:1047DC000230A9F80230B8F80430A9F80430B8F85F
:1047EC000630A9F8063008F108080123089329E0DF
:1047FC0010F00F0F40F013816A880732D210414637
:10480C00484601F083FE6B881B0908EB4308012323
:10481C00089317E0E007002084670008870A00204F
:10482C00002C00F0BD806B8813F00F0F05D01844DE
:10483C0010F00F0F01D108F102081B0908EB430817
:10484C00182303930134A4B2544500F2B180D6F876
:10485C001890E7B239463046FFF718FA054631464C
:10486C003846FFF7B9FAAB889B1003F00E036F4A7A
:10487C00127802F00F029342D2DB1CB1C0F30F137B
:10488C0009EB43095C4504D0049B002BDAD05C4552
:10489C00D8D3002C3FF4BCAE2B88B3F5E06F06D315
:1048AC006A88082A3FF6C6AE02F12F039BB2372B5B
:1048BC003FF6E6AE372B00F2918001A252F823F0BE
:1048CC00BD460008E7460008E746000845470008D3
:1048DC004B460008E7460008454700084B460008D1
:1048EC004B460008FD470008994600089946000809
:1048FC00E9490008E9490008E9490008E9490008C4
:10490C00E9490008CB470008E9490008E9490008D3
:10491C00E9490008CB470008E9490008E9490008C3
:10492C00E9490008E9490008E9490008CB470008B3
:10493C00E9490008E9490008E7460008454700082E
:10494C004B460008E9490008E9490008E949000814
:10495C00E9490008E9490008E9490008E949000863
:10496C00E9490008E9490008E9490008E949000853
:10497C00E9490008E7460008454700084B4600088F
:10498C00E7460008E7460008E7460008E746000847
:10499C00E7460008E7460008E7460008E746000837
:1049AC0008F10208182303934CE70123089349E705
:1049BC00089B002B3FF419AE0023039315E6052347
:1049CC00039312E6112303930FE61A2303930CE6C9
:1049DC000023039309E61323039306E6182303939A
:1049EC0003E61823039300E618230393FDE5122333
:1049FC000393FAE505230393F7E51C230393F4E5EE
:104A0C0012230393F1E505230393EEE51C23039393
:104A1C00EBE51C230393E8E505230393E5E5052368
:104A2C000393E2E505230393DFE500BFE0070020D5
:104A3C00F8B5067A06F01006454B1B78B34200F029
:104A4C0085800446434B1B88093B9BB2404A167039
:104A5C001D46414A10680344404A1268934212D9D9
:104A6C00151A3F4B00221A70237A238110F0010F84
:104A7C000DD140083B4A176837F8102043EA02234F
:104A8C002381002225E0364B01221A70ECE7354ACF
:104A9C001168400831F9102022F0FF0213432381E2
:104AAC0001306A1E01EB400104F10A0001F02EFDF9
:104ABC0012E0111837F811C0013137F811301B0210
:104ACC001BB243EA1C23111D04EB41014B80013244
:104ADC0092B2B2EB550FECD3E388C3F30B03E38034
:104AEC0043F44053E380238903F47F4323811C4A1E
:104AFC001278BAB133432381062D18D80A232380A8
:104B0C00C5F107039BB25B009BB22289134323813F
:104B1C00134B1B78012B0ED10F4A13682B441360D7
:104B2C00002014E046F0010633432381E4E7ABB2E6
:104B3C0003332380ECE70B4C206801F0DFFC0020F2
:104B4C002060054B1860084B187000E00120F8BD80
:104B5C00250B0020820A00202C0B0020300B00209B
:104B6C00240B0020440B0020360B0020F0B583B042
:104B7C00038903F01001814A1278914200F0E88019
:104B8C0004467F4A1288093A91B203F010027B481E
:104B9C0002707C4A1068002800F0EE807A4A156892
:104BAC007A4A1268AD1A13F0010F17D0A942C0F05F
:104BBC00A98021880339A94205D36FEA630606F060
:104BCC000706AE4206D0072D40F2B680A94201D0AE
:104BDC000E2698E06E4900260E7008E06C4E4FF0E1
:104BEC00010C86F800C0A94280F0A8800D4612F096
:104BFC00010F21D1618952081B0A43EA012320F8D5
:104C0C00123001236A1CB3EB520F33D2DA1C04EBC3
:104C1C0042025288191D04EB41014E885B49096818
:104C2C0003EB510157480068120A42EA062220F8A9
:104C3C00112001339BB2E5E7520810F8123020F82E
:104C4C001230504851490A6852080668B4F90830C5
:104C5C0023F0FF0336F812703B4326F8123000683D
:104C6C000B685B0801336A1E04F10A0100EB430078
:104C7C0001F04CFC464B1B780BB1002643E0454B36
:104C8C001B7801933F4B1B680093434B1B683E4AB8
:104C9C0012684249097842480088FFF725FC06460D
:104CAC00FF2806D0374F386801F028FC00233B6002
:104CBC0029E03C4B02221A70364B1A783A4B1A7088
:104CCC00364B1A78394B1A70354B1A88384B1A8078
:104CDC002D4B1A68374B1A602A4B1A68364B1A60E0
:104CEC002D4B1B681A6A354B1A60354B01221A7012
:104CFC00344B1C600023264A1370334A1370234A2A
:104D0C00136036E00E2626BB0A232380E388C3F308
:104D1C000B03E38043F44053E380184B1B787BB1C7
:104D2C00302323811A4B1B78012B0CD00023174AFC
:104D3C001360254A13701CE00E26E4E70E26E2E70A
:104D4C0020232381EEE7114A13682B44136010E0F3
:104D5C00012600230E4A13701B4A1370094B186866
:104D6C0020B101F0CBFB074B00221A60074B00224D
:104D7C001A60304603B0F0BD0326EAE7250B00208D
:104D8C00800A0020440B0020300B00202C0B00204C
:104D9C00240B0020230B0020480B0020370B002095
:104DAC00340B0020580B0020260B0020590B002040
:104DBC00500B0020540B00204C0B00203C0B00200F
:104DCC00220B0020400B0020360B002010B5039C5A
:104DDC00602906D029B1B4F808C02CF0FF0CA4F857
:104DEC0008C0002842D1E088C0F30B00E08040F4FA
:104DFC004050E080402908D000292ED10A2323807E
:104E0C00238943F0200323813FE0029901390329D0
:104E1C000FD80A232380029BDBB2C3F1040342F0B8
:104E2C00030242EA83032289134343F040032381A4
:104E3C002BE002998B420BD20A332380029BA38175
:104E4C001B0CE38142F0410223891A4322811CE0AE
:104E5C00029B9BB20A332380F0E7602915D00A230A
:104E6C002380238943F0600323810EE00A232380EF
:104E7C00E388C3F30B03E38043F40053E380802304
:104E8C002381064B53F82030E36002212046FEF7C5
:104E9C00F9FC08B1024B1C6010BD00BFA4670008F0
:104EAC00B00700202DE9F04F89B00789B0F80090C9
:104EBC00994B1E78002E40F0FF8105465FFA87FB68
:104ECC0007F0E004402C05D039D8002C00F0C0814C
:104EDC00202C2DD16B894FEA032A0AEB172A1FFAD3
:104EEC008AFA1B0A03935046FEF7F2FD0490002841
:104EFC0000F0CC810BF01002059213460246039988
:104F0C005046FEF7F0FD0290402C29D00BF0020326
:104F1C000696DDF8088000220792202C45D0059BD0
:104F2C00002B70D0039B012B6BD94FF005090FE0C0
:104F3C004FF00008CDF808804FF0030908E0602C12
:104F4C0000F086814FF00008CDF808804FF003097F
:104F5C00B9F1FF0F40F0A481304609B0BDE8F08FE5
:104F6C00B9F10A0F40F0AA81431E032B09D805F1B1
:104F7C000C0307930023AB81EB810696804601233B
:104F8C00CBE7664BB3F80080A8F11008029B4345B1
:104F9C0005D805F11003079306963346BDE7334653
:104FAC000122069200220792B7E75BB1B9F10A0F12
:104FBC0040F08681CBF38108C8F1040805F10C039D
:104FCC000793ACE7EB89B5F80C8008EB034808F1C4
:104FDC001002534B1B889A420DD9063B994540F061
:104FEC00718105F110030793A9F10A03434596D289
:104FFC000123069393E708F10A039945F1D008269B
:10500C00AAE701230593069B002B00F0AF80012338
:10501C00444A1370444A1370444B059A1A70444B1B
:10502C00A3F800A0434B039A1A70434B049A1A60DE
:10503C00402C25D0414BC3F80080414B186820B15F
:10504C0001F05CFA3E4B00221A603C4B18680130B0
:10505C0020F0010001F04AFA394B1860A0B1402C45
:10506C0019D0A9F10A08424605F1100101F04EFAD7
:10507C00344B00221A70B146334BC3F8008067E7FB
:10508C002E4B029A1A60D8E7059B002B00F0058185
:10509C004FF005095CE7059B01930090049B029A75
:1050AC0003995046FEF7EEFF8146002829D0FF28D1
:1050BC00E2D1264B04221A70254B059A1A70254B07
:1050CC00039A1A70244BA3F800A0244B029A1A607E
:1050DC001B4B1A68224B1A60049BDA69214B1A602D
:1050EC000D4B01221A70204B1D602B8903F47F435A
:1050FC002B8107F0F0073B432B81124B60221A7077
:10510C002AE742460E4B196805F1100001F0FEF932
:10511C000C4B60221A70AFE7220B0020820A002091
:10512C00800A0020240B0020250B0020230B0020DC
:10513C00340B0020370B0020480B0020300B0020D4
:10514C00440B0020360B00202C0B0020580B0020A9
:10515C00260B0020590B0020500B0020540B002074
:10516C004C0B00203C0B0020400B0020029B43B951
:10517C00554BA3F800A0554B039A1A70544B049A44
:10518C001A60402C31D0059B0193079B0093049B24
:10519C00424603995046FFF7A7F98146FF287FF452
:1051AC00D7AE01234B4A13704B4A059911704B4AE9
:1051BC00039911704A4AA2F800A04A4AC2F800802A
:1051CC00494A07991160049A116A484A1160484A81
:1051DC001370484B1D602B8903F47F422A8107F022
:1051EC00F00313432B81069EB6E6059B0193079BA8
:1051FC000093049B029A03995046FEF743FF8146A5
:10520C00FF287FF4A5AE334B03221A70324B059A5C
:10521C001A70324B039A1A70314BA3F800A0314B21
:10522C00029A1A60304B079A1A60049BDA692F4B6A
:10523C001A602F4B01221A702E4B1D602B8903F420
:10524C007F432B8107F0F0073B432B81069E83E6BF
:10525C00294B1B78A34206D04FF00008CDF80880EC
:10526C004FF0030974E644B92846FFF77FFC8146EA
:10527C004FF00008CDF808806AE62846FFF7D8FB07
:10528C0081464FF00008CDF8088061E64FF0000829
:10529C00CDF808804FF008095AE64FF0040957E69C
:1052AC000195029B00931FFA88F30BF01002214624
:1052BC004846FFF78BFD4FE609264DE608264BE6E0
:1052CC00082649E6082647E6340B0020370B002059
:1052DC00480B0020580B0020260B0020590B0020F7
:1052EC00500B0020540B00204C0B00203C0B0020DA
:1052FC00220B0020400B0020360B00202A4B1B7881
:10530C00002B50D02DE9F04383B005460C461146D6
:10531C00264BD3F8008098F8082002F0E00902F040
:10532C001007B9F1400F0FD000261F4B00221A7046
:10533C00CDF80480009433463A4649462846FFF798
:10534C0045FD03B0BDE8F083194B1E88103EB6B284
:10535C00A6420AD3631E032B1DD808F10C00884209
:10536C00E3D0224601F0D2F8DFE70123114A137093
:10537C00114A1370114B1F70114B1C60114B6022A2
:10538C001A70114B1960324608F1100001F0BEF88A
:10539C000E4B1E60C9E708F110008842C5D02246AA
:1053AC0001F0B4F8C1E77047220B0020400B00203D
:1053BC00820A0020240B0020250B0020230B002048
:1053CC00300B0020360B0020440B00202C0B00204F
:1053DC002DE9F04184B0044600238DF80F30057A96
:1053EC0005F07F05052D30D00388072B40F24B814B
:1053FC00032D00F0AE80052D00F0AB80012D29D0DF
:10540C0003238DF80F3002219DF80F309BB10A2336
:10541C002380238923F07F039BB2238143F007036E
:10542C002381002363819DF80F00984A52F82020B5
:10543C00E260974A13802046FEF724FA10B1954B90
:10544C001C60002004B0BDE8F0810388092BCFD884
:10545C000620F7E7A589052D01D90221D4E7EDB285
:10546C008D4B20686168A26807C3A2891A80681EE8
:10547C00C6B265BB864B00221A8008E02846FEF7B0
:10548C0016FCA31D2A1D23F812000135EDB2042DC4
:10549C00F4D9122323809DF80F30002B40F0ED80BF
:1054AC00238923F07F039BB2238143F002032381E2
:1054BC00774A12886281002A00F0E18023F0800391
:1054CC009BB2238143F08003238182219CE7704BA4
:1054DC001988F1B1714B1A880C3A92B204F10C0391
:1054EC006F480088ADF80C000139694801800DF156
:1054FC000F01009103A93046FEF70EFC684BBDF876
:10550C000C201A80654B1B881B1A9BB2063B9BB266
:10551C00C0E73046FEF7CBFB4FF48053ADF80C30B0
:10552C005E4B1988A1F10E0292B204F10E034500F4
:10553C00B2EB400F09DA0C3989B2A81A4D1E284477
:10554C0090FBF1F152480180D1E7514900200880CD
:10555C00CDE7A089ADF80C00B0F5805F04D205232F
:10556C008DF80F3002214FE7FEF7B2FA06460028FD
:10557C007ED0032D19D0A77BFEF72CFC83789F429D
:10558C0035D911238DF80F3000239DF80F20002AF8
:10559C0077D162812380238923F07F039BB22381FF
:1055AC0001351D43258102212EE7FEF713FC03680C
:1055BC00C4F80E30002332461946BDF80C00FEF735
:1055CC00FDFA00F10C039BB2344A1288063A93425E
:1055DC0001D90C23D9E704F1120332460021BDF89E
:1055EC000C00FEF7EBFA00F10C039BB2CDE7394649
:1055FC003046FEF74BFB036823618388A382A37BB1
:10560C00E3813046FEF7E6FB4388C3F30323083BF4
:10561C009BB2012B0FD877B9224B186859689A683E
:10562C00C4F81600C4F81A10C4F81E201B7B84F8AA
:10563C0022301C23A9E7002332463946BDF80C0062
:10564C00FEF7BCFA00F110039BB2144A1288063A1A
:10565C00934201D9102398E704F1160332463946D8
:10566C00BDF80C00FEF7AAFA00F110039BB28CE710
:10567C0008238DF80F300221C6E60221C4E6022170
:10568C00C2E60221C0E60620DCE600BFA4670008E3
:10569C00280B0020B0070020140B0020820A0020E9
:1056AC002A0B00200C000020014B1868704700BF2B
:1056BC005C0B0020002831D010B40446194B1B6839
:1056CC0063B11A8901898A420ED82BB31A89914287
:1056DC0026D013D35A68D2B11346F6E7114B186093
:1056EC0000206060206006E0002020600D4B1A68EE
:1056FC00626014601C605DF8044B70471A6822608D
:10570C0063601A6802B154601C600020F3E75C60AF
:10571C00236000206060EEE70120ECE70120704779
:10572C000120E8E75C0B00200D4B1B6803E00C4BE1
:10573C001A6070475B688BB11A898242FAD119687A
:10574C005A6801B14A6002B11160002119605960B8
:10575C001989034B1B681B899942E8D0704700BF1D
:10576C005C0B002010B5064B1C6803E020896468B4
:10577C00FFF7DAFF002CF9D1014B00221A6010BDA3
:10578C005C0B002010B50446002100E0283422896F
:10579C004FF6FF739A4205D02046FFF78BFF014668
:1057AC000028F3D0084610BD08B5064B00221A603D
:1057BC000548FFF7E7FF00B108BD0448FFF7E2FF1B
:1057CC00FAE700BF5C0B00205802002028000020E4
:1057DC0008B51D4A4FF0200CA2F800C000235380DE
:1057EC005360936044F21F0090811849116153611A
:1057FC009383136282F84030154AA2F800C053809C
:10580C00536093609081116153619383136282F8AA
:10581C004030104A1370FFF7C7FF88B900230E4AB7
:10582C0013700E4A13700E4A13800E4A13700E4AF0
:10583C0013600E4A13600E4A13600E4A136008BDC3
:10584C00FFF790FFEAE700BFD00A002020A1070075
:10585C008C0A0020870A0020580B0020260B002001
:10586C00500B0020590B0020540B00204C0B002037
:10587C003C0B0020440B002010B582B0224B1C685E
:10588C00002C29D0214B1B780093214B1B68214AFB
:10589C0012682149097821480088A0470446FF284E
:1058AC001AD01F4B1B78022B23D017D8012B04D1F5
:1058BC00002211462046FFF721FD0023184A1370E1
:1058CC00164A1380144A1370124A1360104A13605C
:1058DC000E4A13700C4A136002B010BD033BDBB2CE
:1058EC00012BEAD80A4B1A680A4B1968FFF706FD18
:1058FC00E3E70C4B18680028DAD000F0FFFD094BE9
:10590C0000221A60D4E700BF3C0B0020260B0020BD
:10591C004C0B0020540B0020590B0020500B002086
:10592C00580B0020440B002010B5064C204600F00C
:10593C00CFFA054B1A88054B1988204600F068FDF4
:10594C0010BD00BF680B0020EC070020E40700200E
:10595C0010B5064C064B1A88064B1988204600F0E9
:10596C0095FC204600F036FB10BD00BFAC0B0020B0
:10597C00EE070020E607002008B50A4B5B681BB950
:10598C00094A138801331380084B1B783BB1084B31
:10599C00B3F90030002B02DD013B054A1380FDF703
:1059AC002FFB08BDD00A0020F40B0020D7070020E5
:1059BC00B80700201E4B1B7853B91E4B1B783BB10C
:1059CC001D4B9B8B012B04D01C4B1B78012B12D035
:1059DC007047194A002353609383194A5360938389
:1059EC00184A1380154B01221A704FF080435A6AE3
:1059FC00154B1A60704710B44FF080435B6A114925
:105A0C000888114A14681B1B4FF4FA7404FB03F347
:105A1C000E4C04FB003308484360094843600023E4
:105A2C000B801360054A13705DF8044B704700BF80
:105A3C00D3070020D8070020D00A0020F00B00204C
:105A4C008C0A0020F40B0020640B002040420F0055
:105A5C0008B50A4B00221A80094B1B781BB1094B65
:105A6C005B88032B03D0084B00221A8008BD074B20
:105A7C001B88002BF7D1FFF757FFF4E7C407002072
:105A8C00D50700208C0A0020BA070020BC07002094
:105A9C0008B5FDF771FBFFF79BFE0020044B188047
:105AAC00044B1860044B1870044B01221A7008BD8B
:105ABC00F40B0020640B0020F00B0020F10B0020F5
:105ACC0008B500F001FB08BD394B1B7803B97047D2
