:020000040800F2
:1000000000000320A57700086D0800086F080008AD
:100010007108000873080008750800080000000057
:100020000000000000000000000000007708000849
:1000300079080008000000007B0800087D0800081F
:10004000E9770008E9770008E9770008E977000810
:10005000E9770008E97700086577000873770008FA
:10006000E9770008E9770008E9770008E9770008F0
:10007000E9770008E9770008E9770008E9770008E0
:10008000E9770008E9770008E9770008E9770008D0
:10009000611D0008E9770008E97700085577000836
:1000A000E9770008E9770008E9770008E9770008B0
:1000B00081770008E9770008E9770008E977000808
:1000C000E9770008E9770008E9770008E977000890
:1000D000E9770008E1200008C5210008BD220008DA
:1000E000E9770008E9770008E9770008E977000870
:1000F000E9770008E9770008E9770008E977000860
:10010000E9770008E9770008E9770008E97700084F
:10011000E9770008E9770008E11E0008E9770008A0
:10012000E9770008E9770008E9770008E97700082F
:10013000E9770008E9770008E9770008E97700081F
:10014000851D0008E9770008E9770008E9770008CD
:10015000E9770008E9770008E9770008A12300089B
:10016000E9770008E9770008E9770008E9770008EF
:10017000E9770008E9770008E9770008E9770008DF
:10018000E9770008E9770008E9770008E9770008CF
:10019000E9770008E9770008E9770008E9770008BF
:0C01A000E9770008E9770008E97700081B
:1001B00010B5054C237833B9044B13B10448AFF3A1
:1001C00000800123237010BDF8060020000000000D
:1001D000507A000808B5034B1BB103490348AFF33D
:1001E000008008BD00000000FC060020507A0008D6
:1001F000034613F8012B002AFBD1181A0138704767
:1002000070B54FF0FF0C4CF4E06C1CEA11541DBFAC
:100210001CEA135594EA0C0F95EA0C0F00F0DEF877
:100220002C4481EA030621EA4C5123EA4C5350EA5C
:10023000013518BF52EA033541F4801143F48013AD
:1002400038D0A0FB02CE4FF00005E1FB02E506F03E
:100250000042E0FB03E54FF00006E1FB03569CF093
:10026000000F18BF4EF0010EA4F1FF04B6F5007F99
:1002700064F5407404D25FEA4E0E6D4146EB06060B
:1002800042EAC62141EA55514FEAC52040EA5E5094
:100290004FEACE2EB4F1FD0C88BFBCF5E06F1ED83E
:1002A000BEF1004F08BF5FEA500E50F1000041EB75
:1002B000045170BD06F0004646EA010140EA020022
:1002C00081EA0301B4EB5C04C2BFD4EB0C0541EA44
:1002D000045170BD41F480114FF0000E013C00F359
:1002E000AB8014F1360FDEBF002001F0004170BD7D
:1002F000C4F10004203C35DA0C341BDC04F1140496
:10030000C4F1200500FA05F320FA04F001FA05F221
:1003100040EA020001F0004221F0004110EBD370EE
:1003200021FA04F642EB06015EEA430E08BF20EA1A
:10033000D37070BDC4F10C04C4F1200500FA04F3BD
:1003400020FA05F001FA04F240EA020001F000414F
:1003500010EBD37041F100015EEA430E08BF20EAC2
:10036000D37070BDC4F1200500FA05F24EEA020E0A
:1003700020FA04F301FA05F243EA020321FA04F039
:1003800001F0004121FA04F220EA020000EBD370F0
:100390005EEA430E08BF20EAD37070BD94F0000FF0
:1003A0000FD101F00046400041EB010111F4801F24
:1003B00008BF013CF7D041EA060195F0000F18BFD5
:1003C000704703F00046520043EB030313F4801F11
:1003D00008BF013DF7D043EA0603704794EA0C0FCB
:1003E0000CEA135518BF95EA0C0F0CD050EA4106E1
:1003F00018BF52EA4306D1D181EA030101F000415E
:100400004FF0000070BD50EA410606BF1046194685
:1004100052EA430619D094EA0C0F02D150EA013691
:1004200013D195EA0C0F05D152EA03361CBF1046D2
:1004300019460AD181EA030101F0004141F0FE4171
:1004400041F470014FF0000070BD41F0FE4141F4F5
:10045000780170BD81F0004102E000BF83F00043ED
:1004600030B54FEA41044FEA430594EA050F08BF4F
:1004700090EA020F1FBF54EA000C55EA020C7FEA13
:10048000645C7FEA655C00F0E2804FEA5454D4EB90
:100490005555B8BF6D420CDD2C4480EA020281EA5A
:1004A000030382EA000083EA010180EA020281EA92
:1004B0000303362D88BF30BD11F0004F4FEA0131E4
:1004C0004FF4801C4CEA113102D0404261EB4101F3
:1004D00013F0004F4FEA03334CEA133302D0524279
:1004E00063EB430394EA050F00F0A780A4F1010435
:1004F000D5F1200E0DDB02FA0EFC22FA05F280186F
:1005000041F1000103FA0EF2801843FA05F3594154
:100510000EE0A5F120050EF1200E012A03FA0EFCD3
:1005200028BF4CF0020C43FA05F3C01851EBE371FD
:1005300001F0004507D54FF0000EDCF1000C7EEB1A
:1005400000006EEB0101B1F5801F1BD3B1F5001F58
:100550000CD349085FEA30004FEA3C0C04F1010477
:100560004FEA445212F5800F80F09A80BCF1004FA0
:1005700008BF5FEA500C50F1000041EB045141EA22
:10058000050130BD5FEA4C0C404141EB0101013CEB
:1005900028BFB1F5801FE9D291F0000F04BF0146DA
:1005A0000020B1FA81F308BF2033A3F10B03B3F1AC
:1005B00020020CDA0C3208DD02F1140CC2F10C023C
:1005C00001FA0CF021FA02F10CE002F11402D8BF9A
:1005D000C2F1200C01FA02F120FA0CFCDCBF41EA66
:1005E0000C019040E41AA2BF01EB0451294330BD35
:1005F0006FEA04041F3C1CDA0C340EDC04F1140412
:10060000C4F1200220FA04F001FA02F340EA0300E8
:1006100021FA04F345EA030130BDC4F10C04C4F12E
:10062000200220FA02F001FA04F340EA030029460E
:1006300030BD21FA04F0294630BD94F0000F83F458
:10064000801306BF81F480110134013D4EE77FEA3B
:10065000645C18BF7FEA655C29D094EA050F08BF87
:1006600090EA020F05D054EA000C04BF1946104668
:1006700030BD91EA030F1EBF0021002030BD5FEAAC
:10068000545C05D14000494128BF41F0004130BDD4
:1006900014F580043CBF01F5801130BD01F0004528
:1006A00045F0FE4141F470014FF0000030BD7FEA9B
:1006B000645C1ABF194610467FEA655C1CBF0B4696
:1006C000024650EA013406BF52EA033591EA030FAD
:1006D00041F4002130BD00BF90F0000F04BF0021A5
:1006E000704730B54FF4806404F132044FF00005D8
:1006F0004FF0000150E700BF90F0000F04BF002151
:10070000704730B54FF4806404F1320410F00045B6
:1007100048BF40424FF000013EE700BF42004FEAB1
:10072000E2014FEA31014FEA02701FBF12F07F432E
:1007300093F07F4F81F06051704732F07F4208BFE5
:10074000704793F07F4F04BF41F40021704730B5EC
:100750004FF4607401F0004521F000411CE700BF38
:1007600050EA010208BF704730B54FF000050AE0BB
:1007700050EA010208BF704730B511F0004502D5BC
:10078000404261EB41014FF4806404F132045FEABE
:10079000915C3FF4D8AE4FF003025FEADC0C18BF67
:1007A00003325FEADC0C18BF033202EBDC02C2F159
:1007B000200300FA03FC20FA02F001FA03FE40EAEB
:1007C0000E0021FA02F11444BDE600BF4FEA4102D7
:1007D000B2F1E04324BFB3F5001CDCF1FE5C0DD99F
:1007E00001F0004C4FEAC0024CEA5070B2F1004FE9
:1007F00040EB830008BF20F00100704711F0804FEC
:1008000021D113F13872BCBF01F00040704741F4B0
:1008100080114FEA5252C2F11802C2F1200C10FAB4
:100820000CF320FA02F018BF40F001004FEAC12398
:100830004FEAD32303FA0CFC40EA0C0023FA02F33C
:100840004FEA4303CCE77FEA625307D150EA013312
:100850001EBF4FF0FE4040F44000704701F00040E2
:1008600040F0FE4040F40000704700BF7047FEE7D4
:10087000FEE7FEE7FEE770477047704770470000ED
:1008800040F0BF6040F40030014BD860704700BFBB
:1008900000ED00E0C378FBB1154BDB68DB43C3F32D
:1008A0000222C2F10401C9B20F23134142788A40E7
:1008B000D2B281780B4013431B01DBB202780D49A1
:1008C0000A4482F80033037803F01F005B09012219
:1008D000824041F823207047037803F01F015B0931
:1008E00001228A402033034941F82320704700BF8A
:1008F00000ED00E000E100E008B50C4B98420AD0A2
:1009000001214FF0806000F033FC00214FF0806047
:1009100000F02EFC08BD01214FF0007000F028FC13
:1009200000214FF0007000F023FCF3E7006400406A
:10093000036823F002030360036843F001030360CC
:100940000023426812F0010F05D14FF6FF72934267
:1009500001D00133F5E7436813F0010F6BD08B79B9
:10096000012B3BD0036823F080030360CB79012B7C
:1009700039D0036823F0400303600B7A012B37D092
:10098000036823F0200303604B7A012B35D0036802
:1009900023F0100303608B7A012B33D0036823F01C
:1009A00008030360CB7A012B31D0036823F00403E2
:1009B00003608A78CB781B0643EA82730A7943EA9C
:1009C00002434A7943EA02530A88013A1343C36156
:1009D000036823F00103036000231EE0036843F073
:1009E00080030360C2E7036843F040030360C4E789
:1009F000036843F020030360C6E7036843F0100375
:100A00000360C8E7036843F008030360CAE70368AC
:100A100043F004030360CCE70133426812F0010F96
:100A200003D04FF6FF729342F6D1436813F0010FE3
:100A300003D000207047002070470120704700005D
:100A400010B5837A012202FA03F33F4AD2F800126A
:100A500041F00101C2F80012D2F81C126FEA030C37
:100A600021EA0301C2F81C12027BD2B9364AD2F83D
:100A70000C120CEA0101C2F80C12B0F806E044882E
:100A8000817A44EA0E44483142F831408488018832
:100A900090F80AE041EA04410EF1480E02EBCE0262
:100AA0005160027B012A20D0C27A002A37D1264920
:100AB000D1F804220CEA0202C1F80422028932B9F8
:100AC0002149D1F814220CEA0202C1F81422028949
:100AD000012A2BD0427B012A2FD01B4AD2F80032A8
:100AE00023F00103C2F8003210BD174AD2F80C12ED
:100AF0001943C2F80C12B0F800E04488817A44EA45
:100B00000E44483142F83140B0F804E0C188847A9C
:100B100041EA0E41483402EBC4025160C4E70A497D
:100B2000D1F804221A43C1F80422C7E70649D1F8D4
:100B300014221A43C1F81422CCE70349D1F81C222D
:100B40001343C1F81C32C8E70064004000238371DE
:100B5000C371037243728372C3728370C3700323C1
:100B600003710223437101230380704703468268A7
:100B700012F0806F09D1826812F0006F4FD1826845
:100B800012F0805F5BD0022000E0002070B5864646
:100B900000F1180212019C5804F001049C500A7ADA
:100BA000002A3ED100F1180212019C584D7A0E68BD
:100BB00045EA46552C439C508A7A02F00F028A720D
:100BC0000EF118024FEA021C03EB0212546824F0E3
:100BD0000F04546054688D7A2C4354608C7B4A7B9C
:100BE000120442EA04620C7B42EA0422CC7A2243D9
:100BF00003EB0E1ECEF888218C7C4A7C120442EA5C
:100C000004620C7C42EA0422C97B0A43CEF88C21A0
:100C100053F80C2042F0010243F80C2070BD012073
:100C2000B4E700F1180424011D594E6842EAC602D7
:100C300091F809C042EA0C022A431A51BCE7042089
:100C4000704710B401F11B031B01C35803F00403E8
:100C50001372002B3FD101F11B031B01C3585B0D25
:100C6000136001F11B031C0100EB0313045904F092
:100C7000020454725C6804F00F0494725B681B0AEF
:100C8000D37400EB0113D3F8B841D472D3F8B84150
:100C9000240A1473D3F8B841240C5473D3F8B84120
:100CA000240E9473D3F8BC41D473D3F8BC41240A06
:100CB0001474D3F8BC414FEA144C82F811C0D3F835
:100CC000BC311B0E937469B9C36843F02003C36041
:100CD0005DF8044B704701F11B031B01C358DB088F
:100CE0005360BEE7036943F020030361F0E71AB1E4
:100CF0004369194341617047436923EA0101416136
:100D000070470000036823F00103036000230360C1
:100D100043608360C3600361212343613C4B98427D
:100D20002DD03C4B98422ED03B4B984230D03B4B81
:100D3000984232D03A4B984234D03A4B984235D010
:100D4000394B984236D0394B984237D0384B98427D
:100D500039D0384B98423AD0374B98423CD0374B39
:100D600098423ED0364B984240D0364B984241D0C4
:100D7000354B984242D0354B984243D07047103B98
:100D80003D229A607047283B4FF474629A60704726
:100D9000403B4FF474129A607047583B4FF07462B6
:100DA0009A607047703B2A4ADA607047883B294A4C
:100DB000DA607047A03B284ADA607047B83B4FF0D2
:100DC0003D52DA607047103B3D229A607047283BE5
:100DD0004FF474629A607047403B4FF474129A600B
:100DE0007047583B4FF074629A607047703B184AE6
:100DF000DA607047883B174ADA607047A03B164AB2
:100E0000DA607047B83B4FF03D52DA60B6E700BF9A
:100E1000106002402860024040600240586002407A
:100E20007060024088600240A0600240B8600240EA
:100E3000106402402864024040640240586402404A
:100E40007064024088640240A0640240B8640240BA
:100E50003D000020400F002000003D2010B403683A
:100E6000134A1A400B68CC6823434C6923438C69AE
:100E70002343CC6923430C6A23434C6A23438C6A83
:100E800023434C6B23438C6B23431343036042691E
:100E900022F00702CB6A0C6B2343134343610B69B7
:100EA00043604B6883608B68C3605DF8044B704798
:100EB0003F801CF021B1036843F0010303607047D9
:100EC000036823F0010303607047036813F0010F08
:100ED00001D0012070470020704700008379002B6B
:100EE00036D010B4204B1A68016822EA01021A6059
:100EF0005A68016822EA01025A60027902F18042CE
:100F000002F59E3211680468214311609A680168F5
:100F100022EA01029A60DA68016822EA0102DA60D4
:100F20004379102B0AD003F1804303F59E331A68EE
:100F300001680A431A605DF8044B70470A4B9A68CF
:100F400001680A439A60DA6801680A43DA60F2E7E6
:100F5000037903F1804303F59E331A68016822EA9E
:100F600001021A60704700BF003C0140014B58610C
:100F7000704700BF003C014000230F2B4ED830B516
:100F800016E0C2681FFA83FE4FEA4E044FF0030ECC
:100F90000EFA04FE22EA0E02C260C26891F807E06F
:100FA0000EFA0CFC42EA0C02C26001330F2B34D85B
:100FB00001229A400C68A243F7D104684FEA430C1F
:100FC000032202FA0CF26FEA020E24EA0202026025
:100FD00002680C7904FA0CF4224302600A79013A9F
:100FE000D2B2012ACDD882680EEA020282608268FB
:100FF0004C7904FA0CF42243826044689DB24FF0AD
:10100000010E0EFA05FE24EA0E04446044688A7953
:10101000AA4092B222434260B3E730BD70470183D9
:10102000704741837047436959404161704700B53B
:1010300001F007039B0002FA03FCC908083150F8CD
:1010400021204FF00F0E0EFA03F322EA030340F8BB
:10105000213050F8212042EA0C0240F821205DF8AE
:1010600004FB000010B4294B9B6803F00C03042B15
:1010700023D0082B24D013B1254B036001E0244B6F
:101080000360224CA368C3F303132249CB5CDAB29A
:101090000368D3404360A268C2F382228A5CD2B262
:1010A00023FA02F28260A268C2F342328A5CD2B2B0
:1010B000D340C3605DF8044B7047174B0360E0E713
:1010C000124B59685A6802F03F0211F4800F12D097
:1010D000114BB3FBF2F30D4A5268C2F3881202FBC4
:1010E00003F30A4A5268C2F3014201325200B3FBD1
:1010F000F2F30360C5E7064BB3FBF2F3034A526811
:10110000C2F3881202FB03F3EBE700BF0038024092
:101110000024F4000000002000127A0021B1054AEA
:10112000136B184310637047024A136B23EA0000E5
:10113000106370470038024021B1054A136C184310
:1011400010647047024A136C23EA00001064704771
:101150000038024021B1054A536C1843506470476F
:10116000024A536C23EA0000506470470038024082
:1011700021B1054A136A184310627047024A136A84
:1011800023EA0000106270470038024021B1054A8E
:10119000536A184350627047024A536A23EA0000B8
:1011A000506270470038024008B52A4B98420FD071
:1011B000294B984217D0294B98421FD0284B984270
:1011C00027D0284B98422FD0274B984237D008BDC4
:1011D00001214FF48050FFF7D9FF00214FF48050D8
:1011E000FFF7D4FFF3E701214FF48040FFF7C0FF82
:1011F00000214FF48040FFF7BBFFE8E701214FF4E7
:101200000040FFF7B5FF00214FF40040FFF7B0FFAB
:10121000DDE701214FF40050FFF7B8FF00214FF444
:101220000050FFF7B3FFD2E701214FF48010FFF722
:10123000ADFF00214FF48010FFF7A8FFC7E70121A1
:101240004FF40010FFF7A2FF00214FF40010FFF74A
:101250009DFFBCE70030014000380040003C0040EA
:101260000034014000500140005401402DE9F0419C
:10127000038803F441520F88B1F802808E88CD882C
:101280000C89B1F80AE0B1F80CC0CB8947EA08072D
:101290003E4335432C434EEA040E4CEA0E0C43EA1F
:1012A0000C0313430380838B9BB223F400639BB234
:1012B00083830B8A0382BDE8F08129B103889BB246
:1012C00043F040030380704703889BB223F0400340
:1012D0009BB203807047808980B2704781817047DC
:1012E0000389194201D00120704700207047000097
:1012F00010B401F0030292000F2404FA02FC8908E2
:10130000084B023153F8214024EA0C0443F82140F1
:1013100053F821409040044343F821405DF8044BCA
:10132000704700BF0038014008B5584B984231D093
:10133000B0F1804F37D0564B98423DD0554B984234
:1013400043D0554B984249D0544B98424FD0544BC0
:10135000984255D0534B98425BD0534B984261D042
:10136000524B984269D0524B984271D0514B98429F
:1013700079D0514B98427FD0504B984212D10121E5
:101380004FF48070FFF7F4FE00214FF48070FFF7F8
:10139000EFFE07E001210846FFF7F8FE00210120DB
:1013A000FFF7F4FE08BD01210846FFF7E1FE00212A
:1013B0000120FFF7DDFEF5E701210220FFF7D8FE4F
:1013C00000210220FFF7D4FEECE701210420FFF703
:1013D000CFFE00210420FFF7CBFEE3E70121082028
:1013E000FFF7C6FE00210820FFF7C2FEDAE7012161
:1013F0001020FFF7BDFE00211020FFF7B9FED1E756
:1014000001212020FFF7B4FE00212020FFF7B0FECD
:10141000C8E701210220FFF7B9FE00210220FFF7F3
:10142000B5FEBFE701214FF48030FFF7AFFE00218A
:101430004FF48030FFF7AAFEB4E701214FF40030EB
:10144000FFF7A4FE00214FF40030FFF79FFEA9E74D
:1014500001214FF48020FFF799FE00214FF48020F6
:10146000FFF794FE9EE701214020FFF781FE002157
:101470004020FFF77DFE95E701218020FFF778FEF1
:1014800000218020FFF774FE8CE700BF00000140C0
:101490000004004000080040000C00400010004024
:1014A000001400400004014000400140004401409D
:1014B0000048014000180040001C0040002000408F
:1014C00003889BB21B4A904212D002F58062904280
:1014D0000ED0B0F1804F0BD0A2F58032904207D0F1
:1014E00002F58062904203D002F58062904203D1FF
:1014F00023F070034A8813430F4A904208D002F544
:101500008062904204D023F440739BB20A89134353
:1015100003804B68C3620B880385064B984203D057
:1015200003F58063984201D18B7A0386012383827D
:10153000704700BF000001400010004029B103883F
:101540009BB243F001030380704703889BB223F0F2
:1015500001039BB20380704722B183899BB2194378
:10156000818170478389C94389B21940818170475D
:10157000C94389B201827047028A83890B401142B4
:1015800002D01BB90020704700207047012070472F
:10159000C94389B20182704730B585B004460D4613
:1015A000038A9BB223F44053CA881343038283897E
:1015B0009BB223F4B05323F00C03898828896A89ED
:1015C00001430A431343A381A38A9BB223F44073CC
:1015D000AA891343A3826846FFF744FD1F4B9C4230
:1015E00005D003F580639C4201D0029B00E0039B81
:1015F000A28912F4004F1FD103EB830303EB830393
:101600002A689200B3FBF2F3154AA2FB03125209B7
:101610001101642002FB1033A28912F4004F14D18F
:101620001B0132330E4AA2FB0323C3F343130B43C4
:101630009BB2238105B030BD03EB830303EB83032F
:101640002A685200B3FBF2F3DEE7DB003233044AD0
:10165000A2FB0323C3F342130B43E9E7001001404D
:101660001F85EB5129B183899BB243F400538381D9
:10167000704783899BB223F400539BB283817047E8
:1016800039B183896FEA43436FEA53439BB2838145
:1016900070478389C3F30E0383817047C1F3080148
:1016A0008180704722B1838A9BB21943818270473F
:1016B000838AC94389B2194081827047C1F3421CB1
:1016C00001F01F01012303FA01F19C4508D0BCF190
:1016D000020F07D014303AB1036819430160704714
:1016E0000C30F8E71030F6E7036823EA01010160E7
:1016F00070470388194201D00120704700207047CD
:10170000C1F3421201F01F0C012303FA0CF3012A6A
:101710000FD0022A11D0828A92B21340090A012204
:1017200002FA01F1028892B20A4053B15AB900207C
:101730007047828992B21340F0E7028A92B2134056
:10174000ECE70020704701207047000030B587B0FB
:1017500001210846FFF7E2FC01214FF48040FFF72A
:10176000F9FC00248DF80C408DF80F404FF4807583
:10177000029502A91248FFF7FFFB08212046FFF758
:10178000B7FD04958DF814400C238DF81530012514
:101790008DF8165004A8FFF7A1FB4FF4C060FFF7C7
:1017A0006FF817238DF804308DF805408DF806503A
:1017B0008DF8075001A8FFF76DF807B030BD00BFE6
:1017C0000000024030B587B001210846FFF7A6FCB3
:1017D00001214FF48040FFF7BDFC00258DF80C502F
:1017E0008DF80F500124029402A91248FFF7C4FBA0
:1017F00029462846FFF77CFD04948DF814500C23ED
:101800008DF815308DF8164004A8FFF767FB4FF4EC
:10181000C060FFF735F806238DF804308DF80540D9
:101820008DF806408DF8074001A8FFF733F807B0A0
:1018300030BD00BF0000024030B587B0012108462E
:10184000FFF76CFC01214FF48040FFF783FC00247C
:101850008DF80C408DF80F400225029502A9124820
:10186000FFF78AFB01212046FFF742FD04958DF822
:1018700014400C238DF8153001248DF8164004A86F
:10188000FFF72CFB4FF4C060FEF7FAFF07238DF83B
:1018900004308DF805408DF806408DF8074001A80A
:1018A000FEF7F8FF07B030BD0000024008B5042184
:1018B0000148FFF7B4FB08BD0000024000B583B04B
:1018C00001210846FFF72AFC0423009301238DF829
:1018D000043002228DF8052000228DF806208DF8B4
:1018E000073069460348FFF747FBFFF7DFFF03B008
:1018F0005DF804FB0000024030B587B0134C204671
:10190000FFF752FC0023ADF80430ADF80830022296
:10191000ADF80A200125ADF80C504FF40072ADF877
:101920000E20ADF81030ADF812300723ADF81430AA
:101930004FF48273ADF8063001A92046FFF796FCFC
:1019400029462046FFF7B9FC07B030BD00380040FB
:10195000F0B583B001214FF48040FFF7EDFB01218A
:101960000620FFF7DBFB234E05220A213046FFF756
:101970005EFB214D052202212846FFF758FB052278
:1019800003212846FFF753FB02248DF804408DF80D
:10199000054000278DF806708DF807404FF48063EE
:1019A000009369463046FFF7E7FA0423009369463F
:1019B0002846FFF7E1FA0823009369462846FFF717
:1019C000DBFA01212046FFF7A9FB4FF48053009377
:1019D00001238DF804308DF805408DF806708DF8E0
:1019E000073069463046FFF7C7FAFFF785FF03B0B7
:1019F000F0BD00BF000402400008024010B50446DC
:101A000002210A48FFF76CFC0028F9D0214607485C
:101A1000FFF764FC01210548FFF762FC0028F9D0BC
:101A20000248FFF758FCC0B210BD00BF00380040AC
:101A300010B584B0044601210846FFF77DFB4FF046
:101A40008040FFF771FCC82000FB04F402942923B6
:101A5000ADF804300024ADF80C40ADF8064001A903
:101A60004FF08040FFF72CFD01214FF08040FFF741
:101A70007FFD012211464FF08040FFF76DFD0121EF
:101A80004FF08040FFF75AFD4FF4C060FEF7F8FEBC
:101A90001C238DF800308DF8014001238DF80230B1
:101AA0008DF803306846FEF7F5FE04B010BD000067
:101AB00030B583B001214FF00070FFF73DFB0121ED
:101AC0000846FFF72BFB144C09220B212046FFF799
:101AD000AEFA09220C212046FFF7A9FA4FF48053F1
:101AE000009302258DF804508DF8055000238DF8E1
:101AF000063001238DF8073069462046FFF73CFA8F
:101B00004FF4006300938DF8045069462046FFF7B8
:101B100033FA03B030BD00BF0000024030B583B0DF
:101B200001214FF08060FFF707FB01210220FFF742
:101B3000F5FA134C092205212046FFF778FA09220D
:101B400006212046FFF773FA4023009302258DF803
:101B500004508DF8055000238DF8063001238DF8D0
:101B6000073069462046FFF707FA202300938DF8D7
:101B7000045069462046FFF7FFF903B030BD00BFAF
:101B80000004024010B584B001214FF00070FFF74F
:101B9000D3FA134C2046FEF7AFFE01A8FEF7D6FF9E
:101BA00000238DF80A308DF80B308DF80C308DF84D
:101BB0000D308DF80E308DF80F308DF806308DF821
:101BC000073002238DF808308DF809300623ADF870
:101BD000043001A92046FEF7ABFE04B010BD00BFE3
:101BE0000064004010B584B001214FF00070FFF791
:101BF000A3FA01214FF08060FFF79EFA124C2046B5
:101C0000FEF77AFE01A8FEF7A1FF00238DF80A3047
:101C10008DF80B308DF80C308DF80D308DF80E30BE
:101C20008DF80F308DF806308DF8073002238DF8CF
:101C300008308DF809300623ADF8043001A920469C
:101C4000FEF776FE04B010BD0068004000B583B01A
:101C50004FF4C060FEF714FE14238DF80430002307
:101C60008DF8053002238DF8063001238DF80730FA
:101C700001A8FEF70FFE03B05DF804FB00B583B0CA
:101C80004FF4C060FEF7FCFD40238DF804300023C4
:101C90008DF8053002238DF8063001238DF80730CA
:101CA00001A8FEF7F7FD03B05DF804FB10B584B0A2
:101CB00000238DF80A308DF80B3001248DF80C408C
:101CC000ADF80030ADF80230ADF80430ADF80630B4
:101CD000ADF808308DF80D406846FEF7B1FE22469B
:101CE00002210248FFF703F804B010BD0064004071
:101CF00010B584B00E238DF80A3000238DF80B3018
:101D000001248DF80C40ADF80030ADF80230ADF88C
:101D10000430ADF80630ADF808308DF80D40684657
:101D2000FEF78EFE224602210248FEF7E0FF04B0D5
:101D300010BD00BF0068004008B5FFF7B9FEFFF70F
:101D400021FFFFF783FFFFF7B1FF08BD08B5FFF7DD
:101D5000E5FEFFF747FFFFF791FFFFF7C9FF08BD5B
:101D600008B5054A00210548FEF76BFF4FF4804196
:101D70000348FFF758F908BD14070020006400402D
:101D80000004024008B54FF400510448FFF74BF936
:101D9000034A00210348FEF754FF08BD0004024037
:101DA0003C070020006800400B4B1B680B4AA2FB5D
:101DB00003239B09013BB3F1807F0BD24FF0E0225C
:101DC0005361074BF02183F823100023936107230D
:101DD00013617047FEE700BF10000020D34D621072
:101DE00000ED00E0F0B583B001210220FFF796F985
:101DF0004FF40043009301278DF8047002248DF8FE
:101E0000054000268DF806608DF80740124D6946A2
:101E10002846FFF7B1F84FF4804300938DF8047023
:101E20008DF805408DF806608DF807406946284614
:101E3000FFF7A2F84FF4005300938DF804708DF86B
:101E400005408DF806608DF8074069462846FFF783
:101E500093F803B0F0BD00BF0004024000B583B0AA
:101E60004FF4E060FEF70CFD36238DF804300023BC
:101E70008DF805308DF8063001238DF8073001A864
:101E8000FEF708FD03B05DF804FB000010B584B058
:101E900001211020FFF750F940F2E733029340F29E
:101EA0004733ADF804300A4C01A92046FFF708FB80
:101EB00001212046FFF75CFB012211462046FFF777
:101EC0004BFB01212046FFF739FB04B010BD00BFDA
:101ED0000010004008B5FFF7C1FFFFF7D7FF08BDAE
:101EE00008B501210D48FFF747FB00B908BD0121E6
:101EF0000A48FFF74DFB9FED0A0AB0EE402AF0EECC
:101F0000401AB0EE401AF0EE400A0121054800F0F8
:101F10004FFE022000F0ACFEE8E700BF00100040DA
:101F200000000000200C00200346D8B1D1B1827817
:101F30000A70C2794A70407B1A7B42EA00224A80CA
:101F4000D87B9A7B42EA00228A8093F8210093F89A
:101F50002020120442EA0062D87F42EA00229B7FDE
:101F60001A438A607047000010B4032816D8DFE8CF
:101F700000F002677B8F50490C7800EB00134F4A4A
:101F800002EBC3039C704A78DA71B1F902209A819E
:101F9000B1F90420DA818A68C3F81E2000EB001230
:101FA000464B03EBC2039A7883F85220D97999659E
:101FB000B3F90C4006EE904AF8EEE66ADFED407A9F
:101FC00066EEA76A16EE904ADC65B3F90E4007EE9E
:101FD000104AB8EEC77ADFED3B7A27EE277A17EE84
:101FE000104A1C66B3F91A40DC66D3F81E4007EEAF
:101FF000904AF8EEE77A9FED346A67EE867A9FEDB5
:10200000336A67EE867A17EE904A5C66304C02EBD4
:1020100002134FF4CC7C0CFB00F000EBC303234411
:1020200083F85220996516EE901AD96517EE101AAA
:102030001966184617EE903A43665DF8044B7047F0
:1020400024490C7800EB00131C4A02EBC3039C707C
:102050004A78DA71B1F902209A81B1F90420DA8163
:102060008A68C3F81E2099E71B490C7800EB00131F
:10207000124A02EBC3039C704A78DA71B1F902206C
:102080009A81B1F90420DA818A68C3F81E2085E7B5
:1020900012490C7800EB0013084A02EBC3039C7052
:1020A0004A78DA71B1F902209A81B1F90420DA8113
:1020B0008A68C3F81E2071E770070020A40C002076
:1020C0000000803B0000003C00008038F90FC94050
:1020D000C40E002064070020880700207C07002031
:1020E00030B583B040F225512F48FFF709FB40B1CE
:1020F0002D4A13889BB2009393889BB2009303B040
:1021000030BD40F224412848FFF7FAFA0028F6D003
:10211000254A13889BB2019393889BB20193234B6A
:102120001B6C13F4002F1FD1214D00212846FEF710
:10213000C1FE1E4B5A6CC2F180021E4C22808022CE
:102140005A641A6C42F400221A6401212846FEF7F0
:10215000B1FE23884E2BD2D117491848FFF7E4FE71
:102160000020FFF701FFCAE7114D00212846FEF7C6
:10217000A1FE0E4B5A6CC2F180020E4C22808022CE
:102180005A641A6C22F400221A6401212846FEF7D0
:1021900091FE23884E2BB2D107490948FFF7C4FEB0
:1021A0000020FFF7E1FEAAE70010014000640240B2
:1021B000406402409A0B0020700700209407002022
:1021C0001408002030B583B040F225513448FFF7A1
:1021D00097FA40B1324A13889BB2009393889BB21E
:1021E000009303B030BD40F224412D48FFF788FA38
:1021F0000028F6D02A4A13889BB2019393889BB299
:102200000193284BD3F8883013F4002F23D1264DA7
:1022100000212846FEF74EFE224BD3F88C20C2F157
:102220008002224C22808022C3F88C20D3F88820A0
:1022300042F40022C3F8882001212846FEF73AFE26
:1022400023884E2BCDD11A491A48FFF76DFE032083
:10225000FFF78AFEC5E7144D00212846FEF72AFE47
:10226000104BD3F88C20C2F18002104C22808022C7
:10227000C3F88C20D3F8882022F40022C3F88820E9
:1022800001212846FEF716FE23884E2BA9D10849C6
:102290000948FFF749FE0320FFF766FEA1E700BFEC
:1022A000004400400060024088600240980B00201B
:1022B0007C070020940800201409002030B583B06A
:1022C00040F225512F48FFF71BFA40B12D4A1388E1
:1022D0009BB2009393889BB2009303B030BD40F251
:1022E00024412848FFF70CFA0028F6D0254A138825
:1022F0009BB2019393889BB20193234B9B6A13F487
:10230000002F1FD1214D00212846FEF7D3FD1E4B83
:10231000DA6AC2F180021E4C22808022DA629A6A56
:1023200042F400229A6201212846FEF7C3FD238869
:102330004E2BD2D117491848FFF7F6FD0120FFF7C1
:1023400013FECAE7114D00212846FEF7B3FD0E4BE0
:10235000DA6AC2F180020E4C22808022DA629A6A26
:1023600022F400229A6201212846FEF7A3FD238869
:102370004E2BB2D107490948FFF7D6FD0120FFF7E0
:10238000F3FDAAE7004800400060024028600240D8
:10239000960B00206407002094090020140A0020F6
:1023A00030B583B040F225513048FFF7A9F940B16C
:1023B0002E4A13889BB2009393889BB2009303B07C
:1023C00030BD40F224412948FFF79AF90028F6D0A1
:1023D000264A13889BB2019393889BB20193244BA6
:1023E0009B6A13F4002F21D1224D00212846FEF7CD
:1023F00061FD1E4B9B881E4BDA6AC2F180021E4CA7
:1024000022808022DA629A6A42F400229A620121D2
:102410002846FEF74FFD23884E2BD0D11749184888
:10242000FFF782FD0220FFF79FFDC8E7114D002155
:102430002846FEF73FFD0E4BDA6AC2F180020E4CD1
:1024400022808022DA629A6A22F400229A620121B2
:102450002846FEF72FFD23884E2BB0D107490948A7
:10246000FFF762FD0220FFF77FFDA8E7001401409F
:102470000064024028640240940B0020880700207A
:10248000940A0020140B00202DE9F04397B0074672
:102490000E46154601210846FEF740FE0121102098
:1024A000FEF758FEDFF83091072209214846FEF773
:1024B000BEFD07220A214846FEF7B9FD00248DF82B
:1024C00056404FF001088DF8578003238DF85530A2
:1024D00002238DF854304FF4C063149314A9484676
:1024E000FEF74AFD374B1093ADF84440ADF8464037
:1024F000ADF84840ADF84C400C23ADF84A3010A977
:102500003148FFF749F825238DF83C308DF83D40E0
:102510008DF83E408DF83F800FA8FEF7BBF941468D
:102520004FF48000FEF7FAFD2848FEF7EBFB274842
:10253000FEF7CBFC0028FAD14FF000630093002493
:10254000039405944FF480630693079408940994C8
:102550004FF440330A930B94DFF87080694640468D
:10256000FEF77CFCDFF86090012240214846FFF72F
:1025700099F8012240F224414846FFF79FF821468E
:102580004046FEF797FC03E000211048FEF792FC5E
:102590000F4B1B6C13F0010FF6D10D4B0D4A9A64D3
:1025A000DF641E655D641A6C42F480221A640121A6
:1025B0000648FEF77FFC01210348FFF753F817B0E8
:1025C000BDE8F083003E4900001001404064024035
:1025D0000064024004100140000002402DE9F04375
:1025E00097B007460E46154601210820FEF796FDD6
:1025F00001214FF40030FEF79FFDDFF84C910722D8
:1026000005214846FEF713FD072206214846FEF73E
:102610000EFD00248DF856404FF001088DF85780CC
:1026200003238DF8553002238DF854306023149322
:1026300014A94846FEF7A0FCA9F5E43941464846EE
:10264000FFF71EF83B4B1093ADF84440ADF8464001
:10265000ADF84840ADF84C400C23ADF84A3010A915
:102660004846FEF799FF26238DF83C308DF83D4013
:102670008DF83E408DF83F800FA8FEF70BF94146DC
:102680004FF40010FEF74AFD2B48FEF73BFB2A48AB
:10269000FEF71BFC0028FAD14FF0006300930024E2
:1026A000039405944FF48063069307940894099467
:1026B0004FF440330A930B94DFF87C806946404620
:1026C000FEF7CCFBDFF87C90012240214846FEF764
:1026D000E9FF012240F224414846FEF7EFFF214680
:1026E0004046FEF7E7FB03E000211348FEF7E2FB5C
:1026F000124BD3F8883013F0010FF5D10F4B104A6D
:10270000C3F89020C3F89470C3F89860C3F88C5055
:10271000D3F8882042F48022C3F88820012106489B
:10272000FEF7C8FB01210748FEF79CFF17B0BDE884
:10273000F08300BF003E4900886002400060024014
:102740000444004000440040000C02402DE9F043E6
:1027500097B007460E46154601210820FEF7DEFC1D
:1027600001214FF48020FEF7E7FCDFF834910722C7
:1027700008214846FEF75BFC072209214846FEF780
:1027800056FC00248DF856404FF001088DF8578014
:1027900003238DF8553002238DF854304FF44073E5
:1027A000149314A94846FEF7E7FBA9F5E239414620
:1027B0004846FEF765FF354B1093ADF84440ADF841
:1027C0004640ADF84840ADF84C400C23ADF84A30D7
:1027D00010A94846FEF7E0FE27238DF83C308DF81F
:1027E0003D408DF83E408DF83F800FA8FEF752F82F
:1027F0002748FEF787FA2648FEF767FB0028FAD13C
:102800004FF0006300930024039405944FF4806319
:1028100006930794089409944FF440330A930B9459
:10282000DFF86C8069464046FEF718FBDFF86C90D5
:10283000012240214846FEF735FF012240F22441A3
:102840004846FEF73BFF21464046FEF733FB03E0D8
:1028500000210F48FEF72EFB0E4B9B6A13F0010F71
:10286000F6D10C4B0C4A1A635F639E63DD629A6A71
:1028700042F480229A6201210548FEF71BFB0121E8
:102880000648FEF7EFFE17B0BDE8F083003E4900B2
:1028900028600240006002400448004000480040B8
:1028A000000C02402DE9F04397B007460E4615464E
:1028B00001210420FEF732FC01212020FEF74AFC12
:1028C000DFF83491082206214846FEF7B0FB0822C3
:1028D00007214846FEF7ABFB00248DF856404FF029
:1028E00001088DF8578003238DF8553002238DF8A9
:1028F0005430C023149314A94846FEF73DFB394BCE
:102900001093ADF84440ADF84640ADF84840ADF8FE
:102910004C400C23ADF84A30A9F5744910A948463B
:10292000FEF73AFE424640214846FEF7BBFE4723EB
:102930008DF83C308DF83D408DF83E408DF83F805D
:102940000FA8FDF7A7FF2848FEF7DCF92648FEF799
:10295000BCFA0028FAD14FF02063009300240394BE
:1029600005944FF4806306930794089409944FF4F8
:1029700040330A930B94DFF8708069464046FEF7B7
:102980006DFADFF87090012240214846FEF78AFE7A
:10299000012240F224414846FEF790FE214640467F
:1029A000FEF788FA03E000210F48FEF783FA0F4B89
:1029B0009B6A13F0010FF6D10C4B0D4A1A635F634B
:1029C0009E63DD629A6A42F480229A62012106487F
:1029D000FEF770FA01210748FEF744FE17B0BDE884
:1029E000F08300BF003E49002864024000640240BA
:1029F00004140140001401400008024008B50A48D0
:102A000080228118FFF740FD084880228118FFF7D7
:102A1000E5FD074880228118FFF798FE05488022CF
:102A20008118FFF73FFF08BD94070020940800209D
:102A300094090020940A0020F8B504460D46174674
:102A400000260BE015F8011B2046FEF727FE80212B
:102A50002046FEF74EFE0028F9D00136B742F1D8E5
:102A600040212046FEF745FE0028F9D0F8BD0000C1
:102A700082B0002301930093344A136843F48033F7
:102A80001360324B1B6803F400330093019B013346
:102A90000193009B1BB9019BB3F5A04FF1D12B4BC8
:102AA0001B6813F4003F06D001230093009B012B09
:102AB00004D002B0704700230093F7E7234B1A6C51
:102AC00042F080521A6422490A6842F440420A6085
:102AD0009A689A609A6842F400429A609A6842F44E
:102AE000A0529A601B4A5A601A6842F080721A60BB
:102AF000164B1B6813F0007FFAD0154A136843F495
:102B000080331360124B5B6813F4803FFAD0104A95
:102B1000136843F4003313600D4B5B6813F4003FFC
:102B2000FAD00D4B40F205721A60A3F580639A68E3
:102B300022F003029A609A6842F002029A60034B04
:102B40009B6803F00C03082BF9D1B2E70038024070
:102B50000070004008544004003C024010B5104C86
:102B6000D4F8883043F47003C4F888300D4B1A68E9
:102B700042F001021A60002199601A6822F0847202
:102B800022F480321A60084A5A601A6822F48022BD
:102B90001A60D960FFF76CFF4FF00063A36010BDAF
:102BA00000ED00E00038024010300024000000007A
:102BB00010B5044610EE100A0023222284F82220C9
:102BC00084F8233084F8243084F825300A2284F8ED
:102BD000282084F82930E18410EE903AC4F8363089
:102BE00011EE103AC4F83A30FDF798FD08A3D3E986
:102BF0000023FDF705FBFDF7E9FDC4F832000023D3
:102C0000C4F82E30C4F82A3010BD00BFAFF30080E6
:102C1000D7BB3FDEAB965C4030B505468E464FF0E5
:102C2000FF304FF0000C17E0104C84EA400006E043
:102C3000520801331F2B0DD80028F5DB40000A4253
:102C4000F6D080F0986080F48E3080F4DB7080F0F5
:102C50000100EDE70CF1010CF44505D255F82C10FC
:102C60004FF000420023E5E730BD00BFB71DC104AF
:102C700070B58AB00546424B00EB401203EB4204AC
:102C8000FE2103F81210EE236370E38CA37000237F
:102C9000E370228D2271FF226271A371E371002221
:102CA000A260D4F82A2007EE902AFDEEE77A17EE0C
:102CB000902AA281D4F82E2007EE902AFDEEE77A22
:102CC00017EE902AE281D4F8322007EE902AFDEE2A
:102CD000E77A17EE902A2261D4F8362007EE902A80
:102CE000FDEEE77A17EE902AA282D4F83A2007EE9A
:102CF000902AFDEEE77A17EE902AE2822376637639
:102D0000D4F83E30C4F81A3007212046FFF784FF7C
:102D1000C4F81E00A44601AE2034B646DCF800001C
:102D2000DCF80410DCF80820DCF80C30AEE80F000A
:102D30000CF1100C7646A445EFD1BCF80030AEF88B
:102D40000030032D08D8DFE805F002090F15222214
:102D500001A90C48FFF770FE0AB070BD222201A93C
:102D60000948FFF769FEF7E7222201A90748FFF7A4
:102D700063FEF1E7222201A90548FFF75DFEEBE7BC
:102D80009C0B00200010014000480040001401404E
:102D9000004400400023024A1360024A1380704737
:102DA000241500209C18002008B5C3881B0B013B8C
:102DB000072B0DD8DFE803F004060404040404091B
:102DC000042008BD03F0BCF8FBE703F04FFBF8E775
:102DD0000520F6E708B5114B186830B1002101F065
:102DE0009FFD00200D4B186008BD4FF4807004F06B
:102DF000FDFC034678B10A4AD2F800C050689168D9
:102E0000C3F800C05860996092899A81184603F00F
:102E10002DFB0020E8E70720E6E700BF241500208F
:102E20008818002030B583B0044602224FF40171A7
:102E30000DF1060004F08AFBBDF806000440ADF871
:102E40000640074C4FF40005C4F8805002224FF4AE
:102E500001710DF1060004F0FBFB256003B030BDED
:102E600000E100E030B583B0044602224FF4017166
:102E70000DF1060004F06AFBBDF806000443ADF84E
:102E80000640074C4FF40005C4F8805002224FF46E
:102E900001710DF1060004F0DBFB256003B030BDCD
:102EA00000E100E000B583B00023ADF80630022257
:102EB00040F202510DF1060004F048FBBDF8063067
:102EC00013F4006F02D113F4805F05D0044B00228D
:102ED0001A7003B05DF804FB014B01221A70F8E789
:102EE0002A15002010B500F58071044C0822C90095
:102EF000204604F02BFB204610BD00BF3C150020EF
:102F000010B582B04FF48073ADF80630C40004F6FB
:102F10000604022221460DF1060004F099FB02226C
:102F200021460DF1060004F011FBBDF8063013F444
:102F3000807FF4D002B010BD10B582B00023ADF890
:102F40000630C40004F60604022221460DF10600F4
:102F500004F07EFB022221460DF1060004F0F6FA91
:102F6000BDF8063013F4807FF4D102B010BD00002C
:102F700038B59E4B1A8842F6FE739A4240F227817A
:102F800004460020FFF7AEFF4388028813F0010FCC
:102F900040F0208112F0010F40F01E81C18811F035
:102FA000010F3CD0818801F00C00042801D01625C7
:102FB00036E011F0020F3DD0212B3DD9B3F5807FD3
:102FC0003CD8B2F5805F3BD3B2F5405F01D3162504
:102FD00026E00120FFF786FF03464188028811F0B2
:102FE000010F40F0FB8012F0010F40F0F980C08823
:102FF00010F0010F71D09B8813F00C0F6FD113F0FC
:10300000020F6ED021296ED9B1F5807F6DD8B2F54F
:10301000805F6CD3B2F5405F6BD2002500E01625CF
:103020000DB9032C0ED80DB9022C64D8002D00F078
:10303000C980CDE01625F3E71625F1E71625EFE761
:103040001625EDE76A4B01221A700320FFF74AFFAD
:103050004288018812F0010F40F0C48011F0010F86
:1030600040F0C280C38813F0010302D0002A00F0B0
:10307000958053B35F4B1B88934201D01E25D5E743
:10308000002B00F08D80442A00F28C80838813F09E
:103090000C0F40F08980584A1278022A08D0022A80
:1030A00000F08480554A12888A4207D01E25BDE769
:1030B000B1F5805FF3D3B1F5405FF0D213F0020FAA
:1030C000B1D04B4B00221A70ADE7002A70D1494BAA
:1030D0001B88002BA7D01E25A8E71625A3E71625D9
:1030E000A1E716259FE716259DE716259BE71625E0
:1030F00099E7162597E70220FFF7F4FE428801883A
:1031000012F0010F40F0868011F0010F40F0848032
:10311000C38813F0010301D0002A7FD0002B34D0E4
:10312000374B1B88934201D01D2551E0002B77D0EF
:10313000442A77D8838803F00C02042A01D01D2585
:1031400046E02D4A1278022A07D0022A6CD02D4A76
:1031500012888A4207D01D253AE0B1F5805FF4D38A
:10316000B1F5405FF1D213F0400F0AD0264A012199
:10317000117013F0020F3FF459AF1D4B00221A706B
:1031800054E7214A00211170F3E7002A4ED11C4B6D
:103190001B88002B3FF44AAF1D2519E01E2545E78B
:1031A0001E2543E71E2541E71E253FE71E253DE777
:1031B0001E253BE72046FFF795FEC288134B1A8079
:1031C0000134E4B2124B1B78A342F3D800E014257B
:1031D000284638BD1725FBE71725F9E71725F7E738
:1031E0001725F5E71725F3E71725F1E75C1500200C
:1031F00044150020601500205415002058150020AB
:10320000621500205A1500204F15002032150020AD
:103210005E1500201725DBE71725D9E71D25D7E721
:103220001D25D5E71D25D3E71D25D1E71D25CFE7B2
:10323000F0B585B00023ADF80C30ADF80A3001933D
:103240000093684A9489684A92891440674A1380B7
:10325000674A13700220FFF745FE0288654B1A800B
:10326000838813F0020F40F0878003250320FFF7C7
:1032700039FE0388604A1380828812F0020F7DD1E4
:1032800003225E49B1F800E00EFB02325C49098876
:103290008A4205DD5B48008808448342C0F25E82B2
:1032A00059480088824205DD584A128802449342F8
:1032B000C0F256824F4AB2F800C0554A128805FB48
:1032C00002C2914205DA4F4D2D8829448C45C0F247
:1032D0004982904205DA4D49098808448445C0F284
:1032E0004382934203DA73449C45C0F23F82022238
:1032F0004FF418610DF10E0004F028F904224FF488
:103300001A610DEB020004F021F9042240F6A41129
:10331000684604F01BF90098324B5B88324A5188AA
:10332000BDF80E2012F4106533D012F4C06600F020
:103330001F82B6F5806F00F01D826CB114F0040F8F
:1033400003D112F4007F40F0178214F0080F03D16C
:1033500012F4806F40F01282019F47B1A7F5F42C60
:10336000ACF5907CDFF8B0E0F44500F20982B6F5E8
:10337000C06F05D000260DE0012577E7012280E728
:10338000C8B1B84219D314F0100F00F0FB81012628
:1033900000E000261F4C2478002C3FD07DB99A1EF7
:1033A00092B2012A40F2F081022900F0EF81032954
:1033B00046D13020FEE00026ECE70026EAE712F4D2
:1033C000806F05D1032B00F0E381032900F0E28137
:1033D00012F4007F34D1022B00F0DE8102292FD1BC
:1033E0003020E7E044180020001800206415002079
:1033F000481500205A15002058150020601500209F
:10340000F2170020F6170020F0170020F417002014
:1034100062150020FB170020E05E48C3002D40F03D
:10342000D580904B1A88002A00F0C6808E4B1988F0
:10343000002900F0C780222101238C4A01249483B3
:10344000032B00F0D680022B00F0D980884A127836
:103450002AB9002B00F0A281002900F0A18103B954
:1034600011B1844A01241470824A127842B17D4A13
:103470001288002A00F0CA807F4A4FF480641480CA
:103480009A1E92B2012A03D9022901D0032908D138
:103490007A4A01241470734A128812B9764A0024B9
:1034A0001480724A5380764A51800022754C2280E3
:1034B000754C2280754C2280754C2280002E40F085
:1034C000AF80022B00F0CA80032902D06D4B01228D
:1034D0001A80704B00221A8002224FF484610DF191
:1034E0000A0004F033F8BDF80A205E4B1B8813B1C4
:1034F000002A40F0E7800023ADF80C30664A1380C4
:10350000654B1B8823B9654A1278002A40F04A812E
:1035100023B1624B1B78002B00F04681554B1B7882
:103520003BB1504B1B8823B1534A138843F480634B
:10353000138000235A4A13805A4A13805A4A138030
:103540005A4A13805A4A13705A4A13705A4A1380BF
:103550004B4A82F84030454A82F840301385BDF826
:103560000E3013F4007F18D0019959B14A0953481D
:10357000A0FB0202D2095248814200F2C280484AAE
:103580000120108013F4806F07D0009A914240F21E
:10359000C180434B1A88454B1A80324B1B88002B45
:1035A00040F0D480304B1B88002B40F0D38003F0D8
:1035B00009FA002005B0F0BD2B4B1B8823B1134640
:1035C00001213AE7012338E7194636E7254B1B88E6
:1035D0000BB156B103232449098800293FF430AFC9
:1035E00012F4806F03D003212AE70223F3E70221BC
:1035F00026E7019A1D4C6262214C626226E7019A1D
:103600001A4C626292B21E4C62621FE7164A12881E
:10361000002A3FF435AF184A4FF4006414802FE7B6
:10362000019B98420AD3B0FBF3F291B2174C218070
:1036300003FB12022AB90131218002E0134A012161
:103640001180B0FBF3F18AB20E4C228003FB110013
:1036500000283FF43EAF013222803AE70B4B0122B3
:103660001A8031E762150020601500204418002000
:10367000441500204C15002064150020471500203B
:1036800000180020301500202E1500206A1500209B
:1036900068150020FC170020281500204F15002079
:1036A0003615002034150020381500203A1500206A
:1036B000461500204E15002052150020C55A7C0AE0
:1036C0001FA1070002224FF4806103A803F03EFF10
:1036D000BDF80C207AB10232BDF80A1046F2A713E9
:1036E00002FB0133DB08314AA2FB0323C3F30F23A0
:1036F0002F4A138004E70023ADF80A302C4A1380C8
:10370000FEE6520092B22B48A0FB0202D2082A48E1
:10371000028037E753092949A1FB0313DB09284934
:103720008A420AD8274B01221A80264A224B19883E
:10373000138803EB510313802FE75B009BB21D4AF4
:10374000A2FB0323DB081F4A1380EEE70220FFF7EA
:10375000F3FB27E70320FFF7EFFB28E71E2029E70D
:103760001E2027E71D2025E71D2023E71D2021E738
:1037700030201FE730201DE730201BE7302019E7FD
:10378000362017E7302015E7302013E7302011E707
:1037900030200FE730200DE730200BE7292009E724
:1037A000292007E71F2005E71F2003E789B5F81444
:1037B00028150020CDCCCCCC36150020C55A7C0A6B
:1037C0001FA107003A150020094B1B7853B9094B7C
:1037D0001B7853B1084BC8221A80084B00221A806C
:1037E000FF207047064B18887047FF20704700BFC6
:1037F0004D150020471500205215002050150020BF
:10380000661500200023024A1370024A13707047A5
:10381000481500204A15002008B51D4B1B88002BB9
:103820002ED11C4B1B88002B2ED14FF2F330FFF70B
:10383000F9FA0023184A1370184A1370184A1370C3
:10384000184A1370184A1370184A1380184A1380C4
:10385000184A1380184A1380184A1380184A138094
:10386000184A1380184A1380184A82F84030184AC0
:103870001380184A1370184A1370184A137008BD41
:103880000220FFF73DFBCCE70320FFF739FBCCE735
:103890006215002060150020481500204C150020FE
:1038A00047150020461500204E1500206A150020FF
:1038B000681500203615002034150020381500202A
:1038C0003A150020301500202E1500200018002089
:1038D000521500204F15002049150020FB1700202D
:1038E000014B00221A707047FB17002000B583B00F
:1038F000ADF806100F4B1B78834201D00D4B1870AA
:103900004FF6FF7399420DD10A4B1B78ADF8063084
:1039100002224FF498710DF1060003F099FE03B0F6
:103920005DF804FB02224FF49A710DF1060003F0DA
:103930008FFEE9E7541500202DE9F0410E46474B74
:103940004FF6FF721A80464B01221A7010F01007D2
:103950002BD0444A137823F010031370012700F092
:103960000F05404B1C782401E4B22C44E4B2482CEF
:103970002FD8222C28D3A4F12203262B7ED8DFE8CF
:1039800003F02F7D357D7D7D7D7D7D7D7D7D7D7D04
:103990007D7D7D7D7D7D7D7D7D7D7D7D7D7D7D7D57
:1039A0007D7D2F7D3B7D7D7D3B002E4B1B7813F075
:1039B000100F04D000F00F02012A40F0258203F01E
:1039C0000F03284A1370CAE7122C09D04FF00008E1
:1039D00056E0842C10D0882C0ED0822C40F0D2805F
:1039E0000220FFF7C5FA1FFA80F80BE01E491F48B6
:1039F00003F06CFA804628B91D4B1878FFF7B8FA27
:103A00001FFA80F8B8F1000F3AD0164B1B78042B40
:103A100000F0AC81082B00F0A581022B00F0AA81F8
:103A2000B8F1FF0F40F0C581124B01221A70A4B209
:103A3000114B1C80242C00F0B58100F2AD81123CAA
:103A4000A4B2944200F2AA81044B4FF4FA621A80A5
:103A5000024A1388323B1380D6E100BF2C150020A8
:103A60004515002054150020621500206015002027
:103A70005E1500204B150020561500204FF0000861
:103A80009D4B00221A80A4F11103772B00F28F8145
:103A9000DFE813F040018000BC0165018D018D015C
:103AA0008D0165018D018D018D018D018D018D01CE
:103AB0008D018D012A0142016501AC008D018D014E
:103AC0008D0165018D018D018D018D018D018D01AE
:103AD0008D018D017B0065018D0165018D018D01D9
:103AE0008D0165018D018D018D018D018D018D018E
:103AF0008D018D011D010801650142018D018D01BE
:103B00008D01D2008D018D018D018D018D018D0101
:103B10008D018D018D018D018D018D018D018D0135
:103B20008D018D018D018D018D018D018D018D0125
:103B30008D018D018D018D018D018D018D018D0115
:103B40008D018D018D018D018D018D018D018D0105
:103B50008D018D018D018D018D018D018D018D01F5
:103B60008D018D018D018D018D018D018D018D01E5
:103B70008D018D011001FB006501F3008D018D01A8
:103B80008D0142014FF000087AE7FFF7A9FE4FF0E0
:103B900013080EE1FFF786F9584B1B78002B00F055
:103BA000F880B8F1000F7FF43BAF00F0F9FC8046DD
:103BB00068B1B8F1000F3FF433AFB8F1FF0F3FF435
:103BC0002FAF4F4B1B7873B100F036FD28E74C4BFD
:103BD00000221A7003F029F980460028E9D1494BE8
:103BE00001221A70E5E703F022F9EDE7FFF720FB69
:103BF000804668B1B8F1000F3FF412AFB8F1FF0F83
:103C00003FF40EAF3E4B1B789BB1FFF705FE07E775
:103C10003B4B00221A703C4803F00BF98046002809
:103C2000E8D1394B1888FFF71DF9384B01221A707B
:103C3000E0E703F000F9E8E7FFF7C6FD804668B16A
:103C4000B8F1000F3FF4ECAEB8F1FF0F3FF4E8AE6F
:103C50002B4B1B7873B1FFF7D5FDE1E6284B002213
:103C60001A7003F0EAF880460028E9D1284B0122B7
:103C70001A70E5E703F0E4F8EDE703F0E1F8FFF789
:103C8000C1FD1F4B00221A70CAE603F0D9F8804626
:103C9000FFF7B8FD1A4B00221A70B8F1000F7FF43D
:103CA000BFAE422403F0C7F8FFF7B6FD144B002265
:103CB0001A70B5E603F0C4F88046FFF7A3FD104B79
:103CC00000221A70B8F1000F7FF4AAAE412403F06D
:103CD000B2F88046FFF7A0FD094B00221A70B8F138
:103CE000000F7FF49DAE212400F0A6FC03F09FF8A6
:103CF0008046FFF7F5FD93E6561500202A150020B3
:103D0000451500207117002064150020491500207A
:103D10004A150020FFF7E4FD8FB9504B1B78002BAC
:103D200077D14F4B1B7813F00C0F75D04D4B1B8880
:103D30004BB94D4B1B8863B94FF0FE0839E0204664
:103D400003F072F8E9E70220FFF7F6F84FF0FE08FB
:103D50002FE00320FFF7F0F84FF0FE0829E04FF0C6
:103D6000110826E003F06CF8FFF74CFD03F063F850
:103D7000FFF752FDB8F1160F03D0394B02221A702B
:103D80004EE600F059FC03F052F8354B01221A7050
:103D900046E64FF0510843E6482C03D0334BC82287
:103DA0001A8055E6314B42F228321A8050E64FF025
:103DB00012082B4B187800F00F039D4247D0B8F142
:103DC000000F00D166B1284310F0080F08D0284B2F
:103DD0001B7823BB234B1B8833BB234B1B883BBB6C
:103DE000B8F1000F2CD01E4B1B78082B24D01C4A96
:103DF000137843F0100313701E4B00221A704146D3
:103E0000174B1878FFF772FDBDE8F0814FF01308EB
:103E1000CFE74FF0FE08CCE74FF0FE08C9E703F00C
:103E20000FF8FFF7EFFCD5E70220FFF769F8D7E7B7
:103E30000320FFF765F8D3E7094B04221A70D6E791
:103E400016B145F01005B046054B1D70D4E70021B2
:103E5000084B1970FFF74AFDD6E700BF4D1500204B
:103E60005415002062150020601500202C1500203C
:103E70004A1500204B15002038B5784B1B78002BD5
:103E80003BD0774BB3F90030002B62D1754B1B88C8
:103E9000C3F30714242B34D011D8123B9BB2012B4F
:103EA00000F2D680704B1B7843B300F0C5FB6F4B1C
:103EB0001B78002B00F0CE806D4B1D8812E0482B44
:103EC0000FD16C4B1B7863B36B4B1B78002B30D03E
:103ED0006A4B1B78002B33D1694B1B8893BB1A2587
:103EE00028E000254CB15D4B00221A700DB144F062
:103EF000100429462046FFF7F9FC38BD02F097FF71
:103F0000D3E7594B1B784BB1FFF786FC574B1B7817
:103F1000002B00F0A180564B1D88E3E702F08BFFD9
:103F2000F2E7574B1D887DB9564B01221A700824C1
:103F3000D8E72D254C4B1B7843B1FFF763FCD1E745
:103F40001A25F7E71B25F5E71B25F3E702F078FFB5
:103F5000F3E7444B1B88242B40D016D8123B9BB26E
:103F6000012BCAD8404B1B78002BC6D03E4B0022F9
:103F70001A7002F05AFF054648BB434B01221A70E3
:103F8000384B1C7804F00F04ACE7482BB5D1364B06
:103F90001B78002BB1D0374B1B78002B3FD03B4B0D
:103FA000B3F90030002BA8DD394AB2F90020934262
:103FB000A3DC0023354A1380354A138002F03DFF0D
:103FC000054620BB2F4B01221A7008248BE7FF28DF
:103FD00093D002F02CFF00F02FFB8EE7224B1B78D2
:103FE000002B8AD0204B00221A702A4802F021FFB1
:103FF000054620B9284B01221A70042473E7FF28D4
:104000003FF47BAF02F017FFFFF706FC75E7FF28D0
:104010003FF473AF02F014FFFFF7F4FB6DE7184BAA
:104020001B8823B1154B1B78002B3FF466AF02F0C1
:1040300004FF054620B9134B01221A70082452E7E9
:10404000FF283FF45AAF02F0FBFEFFF7DBFB54E71B
:10405000002547E7012545E7012543E74B150020EB
:104060002C15002056150020451500204D15002068
:104070006615002047150020461500204815002031
:10408000621500204A1500207117002052150020EB
:104090005015002064150020491500202C4B1B787A
:1040A000002B54D02B4B1B883BB12B4A12889342D8
:1040B00003D82A4B00221A7009E0274A128893423B
:1040C00002D90132244B1A80244B01221A70234B4F
:1040D0001B784BB1224B1B8833B1224A1288934282
:1040E00018D901321F4B1A801C4B1B784BB31E4B47
:1040F0001A8D1E4B1B899A4210D21D4B01221A7039
:104100001C4BB3F90030002B21DD1B4A138801330F
:1041100013807047114B00221A70E5E7144B1B788F
:10412000ABB1134B00221A700F4B012283F84020D1
:10413000104BB3F90030002B09DD0F4B00221A8021
:1041400070470B4B1B7813B1094B00221A70704754
:104150004715002036150020341500204615002094
:104160003A150020381500204418002024000020B3
:104170004E150020521500205015002000B583B0C8
:104180001D4B1B8873B91D4B1B7843B11C4B1B780F
:104190002BB11C4B1B7823B31B4B1B7833B303B0E1
:1041A0005DF804FB0023ADF8063002224FF488616D
:1041B0000DF1060003F0CAF9BDF8063013F0010F47
:1041C000E1D1124B1B88002BDDD00D4B1B781BB9A6
:1041D0000F4B00221A70D6E71B210420FFF7ACFB1F
:1041E000DDE72C210420FFF7A7FBD8E71A210420E4
:1041F000FFF7A2FBD3E700BF2815002047150020DA
:104200004A150020461500204E150020621500209A
:104210004815002010B582B00024ADF806400222F7
:1042200004210DF1060003F091F9BDF806301B0AD8
:10423000274A1370022206210DEB010003F086F9D4
:10424000BDF806309B029BB203F6FF73214A138030
:10425000FEF728FE04E02046FEF752FE0134E4B2E9
:104260001B4B1B78A342F6D800F030F900241A4B00
:104270001C701A4B1C701A4B1C701A4B1C701A4B7A
:104280001C701A4B1C701A4B1C801A4B1C801A4B4A
:104290001C801A4B1C801A4B1C801A4B1C701A4B2A
:1042A0001C701A4B1C801A4B1C801A4B1C801A4B1A
:1042B0001C800120194B18702146FFF717FB184B83
:1042C0001C80184B1C70FEF765FD02B010BD00BFCE
:1042D0005E1500205C150020451500204B150020C0
:1042E000481500204A150020491500204F150020D0
:1042F0002815002034150020361500203815002020
:104300003A150020471500204D15002066150020A5
:10431000641500206215002060150020541500204F
:10432000561500204C15002010B582B00023ADF8C2
:1043300006300123ADF8043000F0F2FB484B1B7847
:10434000002B4CD103F058F9044610F0010F03D0B4
:10435000444B1B78002B49D014F0100F0BD0414B6D
:104360001B7843B9404B187810F0100F03D120F0A0
:104370001003012B4AD13B4B1B78002B4FD1384BFC
:104380001B7853B3BDF8043013F0010F4AD014F476
:10439000007F4FD1BDF8043013F0020302D0334A3E
:1043A00012781AB1A3B9314B1B788BB100F088FA9F
:1043B0002E4B1B78002B48D0BDF8043043F400731B
:1043C000ADF80430022240F60E0101A803F040F9D6
:1043D00003F012F910F4807F3ED102B010BD02222A
:1043E00040F60E0101A803F0B1F8ABE702224FF44A
:1043F00090710DF1060003F0A9F824F01104A4B2A5
:1044000000219DF80600FFF797FAA5E724F01004B5
:10441000A4B2002100F00F00FFF78EFAABE7FFF720
:104420002BFDACE7104B1878002100F00F00FFF7D0
:1044300083FAACE70E480023038002220D4B198853
:1044400003F006F900F0F2F9A4E7BDF8043023F414
:104450000073ADF80430B5E700F0DEFABDE700BF49
:10446000711700204B1500205415002070170020F4
:104470006C150020F21700204A88531C9BB2B1F83B
:1044800004C09C4509D0B1F800C09C4507D0023259
:1044900041F822004B80002070470023F3E70720FB
:1044A00070470246038841888B420CD0991C50F813
:1044B000210001339BB213809188994200D070474C
:1044C0000023138070470020F9E7000010B582B088
:1044D000224B22221A80224B4FF480721A804FF412
:1044E0008053204A1380204A1380204B00241C80D4
:1044F0005C800A229A801E4B1C805C809A801D4B37
:104500001C601D4B1C601D4B1C601D4B1C601D4B1B
:104510001C70ADF80640022240F60E010DF10600B7
:1045200003F014F8BDF8063023F40073ADF806303C
:10453000022240F60E010DF1060003F089F8124B3D
:104540001C70124B1C70124B1C70124B1C70124BC7
:104550001C70124B1C7002B010BD00BFF41700207D
:10456000F6170020F0170020F2170020881700200F
:10457000BC170020841700207C170020781700202B
:10458000801700207017002071170020741700207A
:1045900073170020F8170020FA170020F9170020E1
:1045A00038B50020FEF79EFC43881D4C238003880D
:1045B0001C4D2B800120FEF795FC43881A4A13807E
:1045C00001881A4A11802888228802448A4202DD22
:1045D0000B44984222DB0020FEF7AEFC0120FEF7E0
:1045E000ABFC0F4B188803F001F9114B186030B188
:1045F0000024104B1C7003F001F9204638BD0D4B10
:1046000001221A700A2003F0F1F8094B186018B162
:10461000002403F0F3F8F0E70224FAE71624ECE7AD
:10462000F4170020F0170020F6170020F2170020E2
:10463000841700207217002010B582B000202F4B85
:104640001870FEF75DFC0120FEF75AFC2C4B186831
:1046500008B103F0D3F82B4B186828B1284B1B681E
:10466000984201D003F0CAF8274B186848B1244B90
:104670001B68984205D0234B1B68984201D003F079
:10468000BDF800241E4B1C601F4B1C601D4B1C60A2
:104690001E4B1C70ADF80640022240F60E010DF1D3
:1046A000060002F053FFBDF8063023F40073ADF8A6
:1046B0000630022240F60E010DF1060002F0C8FF9E
:1046C000134B1C70134B1C70134B1C70134B1C7042
:1046D000134B1C701348FFF7E4FE10B90028F9D102
:1046E00001E003F08BF81048FFF7DBFE10B900285B
:1046F000F9D101E003F082F802B010BD711700207B
:104700007C170020801700207817002070170020E9
:104710007417002073170020F8170020FA170020E4
:10472000F917002088170020BC17002008B58388DF
:10473000C3F30323032B01D0022008BDFEF734FB93
:10474000FBE70000F0B583B02F4B1B7803F00F039D
:10475000012B55D004462D4B1B78002B52D02C4BEF
:104760001D781DB10725284603B0F0BD0788BA1D86
:1047700092B2284B198802F06BFF0023ADF8063087
:10478000022240F60C010DF1060002F0DFFEBDF83A
:1047900006309BB2ADF80630BDF8063013F4006F5A
:1047A00014D11D4B1E88F21BD2B2063AD2B21B4B5B
:1047B00000211980012A15D9164B1988314489B274
:1047C0000239022289B2154802F042FF144B1B68DD
:1047D00093B1144B00221A60114B1C600C4B012248
:1047E0001A70C0E7B91D21F00101C2F10202214493
:1047F000184603F00BF8DFE70A4B0B4A1A60EBE7A9
:10480000F025B0E7F025AEE7541500207117002021
:1048100074170020F2170020F61700206C150020F6
:1048200078170020841700207016002008B51D4B53
:1048300000221A701C4B186810B11C4B1B6893B1F6
:104840001B4B1A68184B1A60184B186888B1FFF791
:1048500079FF164B00221A60164B1B7813B113F028
:10486000020F0ED108BD02F0C9FF0F4B00221A60E3
:10487000E6E71148FFF715FE0028EDD0FFF762FFCD
:10488000EAE723F002030B4A13700C4B1868FEF79B
:10489000A1FA0028E6D0074A137843F00203137008
:1048A000E0E700BF741700207C170020801700206D
:1048B00078170020F8170020BC170020841700206C
:1048C00010B5124B1C685CB1114B1B7813B1114B26
:1048D0001B6863B12046FFF735FF0C4B00221A60BE
:1048E0000D4A1378B3FA83F35B09137010BD0120EE
:1048F000FEF706FB094B1A68064B1A600120FEF70B
:104900001BFB034B00221A70E4E700BF7C1700205A
:1049100074170020801700207017002078170020DF
:1049200038B51D4B1B7803F00F03012B32D0054621
:104930000C468388C3F30B038380184A127812F065
:10494000070F02D1154A01211170144A127843EA67
:104950000233AB802846FFF7F5FE38B90F4A1378CB
:104960000133137064B2002C0DDB38BD0C492846AE
:10497000FFF782FD10B144F08004F3E7074A137893
:1049800001331370EEE704F07F04064B1A781443EA
:104990001C70EAE7F020E8E754150020F917002022
:1049A000BC170020F817002010B504468388018842
:1049B000B1F5807F0DD81A0B1AB1154B1B789342B5
:1049C00022D0134B1A7013492046FFF755FD68B9E2
:1049D00010BD0422028023F4706383800123C3800E
:1049E000082303810021FFF79BFFF1E704222280C7
:1049F000A28822F47062A2800122E280208100213C
:104A00002046FFF78DFFE3E702F0F8FEE0E700BF86
:104A1000FA1700208817002010B582B00222384B08
:104A200019880DF1060002F091FD364B1B78012B21
:104A300010D0BDF8063006339BB2ADF80630324ACE
:104A4000127812B9314A1278D2B1314B01221A7060
:104A500002B010BD0A2002F0C9FE04460028E8D0CA
:104A60000021016041600181042303800123C38090
:104A700007230381FFF754FF204602F0BFFED8E76B
:104A8000234A00211170234A1088834201D9ADF8CE
:104A9000060002F0ABFE204B1860E8B1BDF806201E
:104AA000174B198802F052FD0023ADF804300222A2
:104AB00040F6040101A802F049FDBDF804309BB2A4
:104AC000ADF80430BDF8043013F4006F08D1124B78
:104AD0001868FFF769FFBBE70D4B01221A70B7E7B3
:104AE0000E4800230380064B19880A4B1B88194483
:104AF00089B20239022289B202F028FDE7E700BF3D
:104B0000F01700207217002074170020F8170020FB
:104B100073170020F4170020841700206C15002064
:104B200010B500E0BCB10F48FFF7BBFC04460028FD
:104B3000F8D0FFF7FBFD0028F4D004222280A288E1
:104B400022F47062A2800122E280208100212046AE
:104B5000FFF7E6FEE6E7044B1B7803B910BDFFF74D
:104B60005BFFFBE7881700207317002010B5044691
:104B700001F0E8FD00E0406810B10389A342FAD1DA
:104B800010BD10B5B2F80CE0CEF3032023B35FFAEA
:104B90008EFE072838D0082802D00123002014E018
:104BA0009369187813691B8903FB00F00730C0086C
:104BB000F9B902301DE003EB430C146904EB4C0C13
:104BC000BCF802C060440133DBB27345F3D907304F
:104BD000C00871B902300CE007280BD0B1B1082829
:104BE0000DD0136901EB410103EB41014888073007
:104BF000C01010BD136958880730C010F9E7136959
:104C000018890730C010F4E70020F2E70120F0E730
:104C1000302383700E4BA3FB01234FEA531C027811
:104C200002EB53130370642303FB1C11C9B2094A3E
:104C3000A2FB0132D30890F801C00CEBD202427003
:104C400003EB8303A1EB430130318170704700BF58
:104C50001F85EB51CDCCCCCC2DE9F04184B01D4665
:104C600054699389C3F30323D1B10F46072B17D09F
:104C7000092B24D0002D52D02A4B6C460FCB07C4F1
:104C8000237039460DF10900FFF7C2FF6B4607CBD1
:104C900028606960AA601B782B734FF00C080AE04B
:104CA0002046FBF7A5FA1FFA80F825B142462146B7
:104CB000284602F0ABFD404604B0BDE8F0811FFA83
:104CC00081F82046FBF794FA461C2644012444450B
:104CD0001FD83378FD2B19D8444507D00134A4B22E
:104CE0003046FBF785FA01300644F0E73046FBF723
:104CF0007FFA1FFA80F8002DBCD0B8F1000FB9D0B0
:104D000042463146284602F081FD04E04FF000089B
:104D100001E04FF00008B8F1000FCCD1AAE74FF046
:104D20000C08C8E7140000208389C3F30323082B71
:104D300005D0006901EB410100EB4100704709B962
:104D4000006970470069063070472DE9F0478046DA
:104D500020278740BFB201F0F5FC05464FF0000A5E
:104D600015E0B5F80C904646002401E00134A4B2E9
:104D7000B6B15FFA89F39C4212D8E1B22846FFF738
:104D8000D3FF83883B42F1D00026EFE76D6875B111
:104D90002B89B3F5805FF9D3B8F1000FE1D1464616
:104DA000002EF3D10AF1010A1FFA8AFAEEE7504603
:104DB000BDE8F0872DE9F04F83B082460191174698
:104DC00000934FF0200909FA00F91FFA89F90B88BE
:104DD000B3F5805F0DD0254B1D685DBB002D3FD026
:104DE0002B89019A1380214B1D60384603B0BDE822
:104DF000F08F01F0A7FC05460028EED10C9B002B9C
:104E0000EBD01B230C9A1370E7E795F80CB05646CD
:104E1000002401E00134E4B2CEB15C4517D821464C
:104E20002846FFF781FF838813EA090FF2D0002696
:104E3000F0E76D68002DD1D0012FCFD9B5F80880EB
:104E4000B8F5805FF5D3BAF1000FDED15646002EDB
:104E5000EFD1009B23F8028B0093023FBFB2E8E73B
:104E60004FF6FF73019A1380BDE700BFAC18002016
:104E70000A307047F0B5B1F80CE0CEF3032E0446CB
:104E800000B11020BEF1070F00F0B180012227E031
:104E90000D69063530E0B3F5187F0ED007D3A3F2C5
:104EA000622C1FFA8CFCBCF1010F40F28D809642FF
:104EB00014D96B88184480B210E00F3080B220F013
:104EC0000F0080B2964209D90B2B02D0B3F5187FA0
:104ED00002D16B88184480B2103080B2013292B295
:104EE000A6B29642C0F08480BEF1080FD0D00D6902
:104EF00002EB420305EB43052B882F2BCBD8032B6A
:104F0000D5D3A3F1030CBCF12C0FD0D801A757F8CF
:104F10002CF000BFBB4E0008C94F0008AF4E000880
:104F2000BB4E0008C94F0008C94F0008AF4E00082B
:104F3000AF4E0008BB4E0008AF4E0008AF4E000851
:104F4000AF4E0008AF4E0008AF4E0008AF4E00084D
:104F5000AF4E0008AF4E0008AF4E0008AF4E00083D
:104F6000AF4E0008AF4E0008AF4E0008AF4E00082D
:104F7000AF4E0008AF4E0008AF4E0008AF4E00081D
:104F8000AF4E0008BB4E0008C94F0008AF4E0008E6
:104F9000AF4E0008AF4E0008AF4E0008AF4E0008FD
:104FA000AF4E0008AF4E0008AF4E0008AF4E0008ED
:104FB000AF4E0008AF4E0008AF4E0008AF4E0008DD
:104FC000BB4E0008C94F00081F3080B220F01F0000
:104FD00080B2964282D9A3F262239BB2012B02D9FE
:104FE000203080B27AE76B88184480B276E70020E0
:104FF000F0BD00BF22297AD8DFE801F01214496120
:105000007979797979797979797979797979797910
:1050100079797979797979797979797979793800BA
:105020000020704741F63243984205D041F63343A1
:1050300098420CD012207047354B1B88002BF5D0BE
:10504000344B9B8913F0020FF0D000207047324B95
:105050009B8913F0020F4CD02D4B1B88002B4AD19B
:105060002E4B1B88002B48D11220704741F633434A
:10507000984201D012207047274B9B8913F0020FF2
:105080003DD0234B1B88002B3BD11220704741F6AB
:105090003243984205D041F63343984208D012205B
:1050A00070471C4B9B8913F0040FF4D0002070470D
:1050B000194B9B8913F0040F25D11220704741F63C
:1050C0003243984205D041F63343984208D012202B
:1050D0007047104B9B8913F0080FF4D000207047E5
:1050E0000D4B9B8913F0080F0FD11220704712202F
:1050F000704712207047122070470020704712201E
:10510000704700207047002070470020704700BFA4
:1051100062150020441800200018002060150020AF
:105120002DE9F04F8BB00490079114461F46149E52
:105130009DF8543003931FFA81FBBB89C3F303220C
:105140000992DBB20893072A05D0B0F5805F02D33D
:10515000BB691B780893039BABB1099B072B00F03D
:10516000E781049BB3F5805FC0F0E581089B029363
:10517000FD694DB3039B009333462246079904987B
:10518000A8470590E8E1089B5B45C0F0D7810799E7
:105190003846FFF7C9FD828882B1D3B25B00A249CD
:1051A000097803F00E0301F00F018B4209D212F0CF
:1051B000070F40F0C68106230593CDE1CDF808B076
:1051C000D6E7CDF808B0D3E7049BB3F5805F80F055
:1051D0009D81079D002D00F0A081BC6929463846BD
:1051E000FFF7A2FD40880730C210C00805F18043D8
:1051F000013B54F8231011F0010F22D021F00101DE
:105200000904090C00220AE00B881B0A338031F8DC
:10521000024F43EA042326F8023B013292B2B2EB7A
:10522000500FF1D310F0010F00F08E81338803F49A
:105230007F4333800A8843EA122333800023059397
:105240008AE10B8833804B887380043A0431301D27
:1052500002F0DCFA002305937EE1A046C8F30F1AA2
:1052600009EB4A0BE1B23846FFF75EFD05460379CC
:105270005B006D4A127803F00E0302F00F029342B6
:10528000C0F00181069B9C4206D0039A002A00F0E0
:105290001C819C42C0F01981002C4BD02B88B3F5A7
:1052A000E06F05D36A88082A4BD802F12F039BB21E
:1052B000372B58D8372B00F24A81DFE813F0720001
:1052C00086008600AA0046008600AA004600460026
:1052D000CD005A005A0048014801480148014801E0
:1052E000B900480148014801B90048014801480196
:1052F00048014801B900480148018600AA0046005B
:105300004801480148014801480148014801480155
:1053100048014801480148018600AA00460086006D
:1053200086008600860086008600860086004FF094
:10533000000893E7099B072BB0D0089B26F8023B97
:10534000C3E0102A65D0202AB2D118F00F0F40F028
:105350000D8139F81A303380BBF80230738004367F
:1053600001230793B1E0A3F518739BB2032B00F25E
:10537000F18018F00F0F40F0FF806A880732D210DA
:105380005946304602F042FA6B881A0906EB42068B
:1053900013F00F0F00F0B1803378338001230793AF
:1053A00093E0039B002B00F0DB806B8813F00F0F62
:1053B00004D0984418F00F0F00D10236C3F3031342
:1053C00006EB4306012307937FE06A88174B33F807
:1053D000123008F00F0293401FFA83FC39F81A00CC
:1053E0000AB9002131803188039B63B10CEA0003C4
:1053F0000B4333806B88984418F00F0F7AD1023634
:105400000123079361E00CEA000313410B4333804F
:10541000F0E718F00F0F40F0A68039F81A3026F8A0
:10542000023B0123079350E054150020687A0008DE
:1054300018F00F0F40F09D8039F81A303380BBF818
:1054400002307380BBF80430B380BBF80630F380C1
:1054500008360123079338E018F00F0F40F08F80D3
:105460006A880732D2105946304602F0CFF96B886D
:105470001A0906EB420613F00F0F41D03378338040
:105480000123079321E018F00F0F01D1002333808F
:105490006B8813F00F0F06D0434413F00F0F02D1A7
:1054A000002373800236002304E0002226F8022F36
:1054B0000133DBB26A88C2F303129342F5DBAB8897
:1054C00013F0070F1FD1062305930134A4B2029BEA
:1054D0009C4228D8D7F81890002C3FF4BEAE049B0D
:1054E000B3F5805FFFF423AF3946E0B2FFF7C2FCAB
:1054F0008046B3E601230793E7E701230793E4E738
:1055000001230793E1E71A230593DEE75C460023B6
:1055100005930793CDF818B0D9E7079B05935C4630
:10552000CDF818B0D3E7079BB3B10023059313E080
:105530000523059310E0052305930DE01123059342
:105540000AE01A23059307E00023059304E01823DB
:10555000059301E01823059305980BB0BDE8F08F83
:1055600018230593F8E705230593F5E7052305932D
:10557000F2E705230593EFE705230593ECE7052301
:105580000593E9E72DE9F04F8BB005900C461546E1
:105590001E46DDF850809DF8543004931FFA81FBBD
:1055A000B389C3F303220692DBB20793072A1AD00A
:1055B000B36993F800A0BAF1000F16D1A0F5E0533B
:1055C000103B9BB21F2B1BD9A0F5B0539BB2B3F578
:1055D000007F18D3A0F5D0539BB2B3F5007F04D25F
:1055E000DDF81CA001E04FF0000A049B73B1069B9C
:1055F000072B00F0328214BB0DB398F800A01EE018
:10560000DDF81CA0F1E7DDF81CA0EEE7DA45C0F0FC
:10561000278221463046FFF787FB81888A1002F0F7
:105620000E02A34B1B7803F00F039A4206DA11F027
:10563000380F40F018820723039324E0DA46BCB108
:10564000059AA2F5E053103B9BB21F2B0BD9A2F594
:10565000B0539BB2B3F5007F05D3A2F5D0539BB2F4
:10566000B3F5007F13D2B3691B789BB9099300E0AF
:105670000994376A8FB1049B009343462A4621461A
:105680000598B847039003980BB0BDE8F08F00234E
:105690000993EEE701230993EBE7002D00F0E68183
:1056A0005C4607230393002308931BE1069B072B0B
:1056B00000F04081B8F80030DAB207999142C0F0AA
:1056C000D881A9F8003008F102080123089307E106
:1056D000102A7FD0202A40F0388110F00F0F40F0C0
:1056E000E081099B6BB1B9F80020B8F800309A420C
:1056F00040F0DA81B9F80220B8F802309A4240F05E
:10570000D681B8F80030A9F80030B8F80230A9F80E
:10571000023008F1040801230893E1E0A3F51873AF
:105720009BB2032B00F2AB8110F00F0F40F0C88149
:105730006A880732D2104146484602F067F86B8803
:105740001B0908EB430801230893C9E0049B002BC5
:1057500000F098816B8813F00F0F05D0184410F0FB
:105760000F0F01D108F10208C3F3031308EB43083C
:1057700001230893B4E06A884E4B33F8121000F00E
:105780000F0C01FA0CF297B2B9F8003023EA0203C9
:105790001AB29E46049B8BB1B8F800203A404EEAFC
:1057A0000203A9F800306B88184410F00F0F40F086
:1057B0004A8108F102080123089391E0B8F800300B
:1057C00033EA010740F061810B4003FA0CF3134305
:1057D0009BB2E6E710F00F0F40F05A81B8F8005086
:1057E000099B23B1B9F80030AB4240F05481059BCE
:1057F000A3F5E053103B9BB21F2B0ED8A5F5B05379
:105800009BB2B3F5007F08D3A5F5D0539BB2B3F597
:10581000007F02D3002D40F04181059BA3F5E153A9
:10582000123B9BB2012B06D9A9F8005008F10208DF
:105830000123089354E0012CF6D1B9F80030AB42B3
:1058400007D029460598FFF7D5FB039000287FF481
:105850001AAF194B01221A70E6E710F00F0F40F053
:105860002981B8F80030A9F80030B8F80230A9F85A
:105870000230B8F80430A9F80430B8F80630A9F8B6
:10588000063008F108080123089329E010F00F0FF3
:1058900040F013816A880732D2104146484601F031
:1058A000B5FF6B881B0908EB43080123089317E039
:1058B00054150020687A0008FB170020002C00F027
:1058C000BD806B8813F00F0F05D0184410F00F0F38
:1058D00001D108F102081B0908EB430818230393C0
:1058E0000134A4B2544500F2B180D6F81890E7B262
:1058F00039463046FFF718FA054631463846FFF775
:10590000B9FAAB889B1003F00E036F4A127802F0CD
:105910000F029342D2DB1CB1C0F30F1309EB430912
:105920005C4504D0049B002BDAD05C45D8D3002C16
:105930003FF4BCAE2B88B3F5E06F06D36A88082A23
:105940003FF6C6AE02F12F039BB2372B3FF6E6AE11
:10595000372B00F2918001A252F823F04D57000836
:105960007757000877570008D5570008DB5600081E
:1059700077570008D5570008DB560008DB560008AB
:105980008D5800082957000829570008795A00083F
:10599000795A0008795A0008795A0008795A00089B
:1059A0005B580008795A0008795A0008795A0008AB
:1059B0005B580008795A0008795A0008795A00089B
:1059C000795A0008795A00085B580008795A00088B
:1059D000795A000877570008D5570008DB560008A9
:1059E000795A0008795A0008795A0008795A00084B
:1059F000795A0008795A0008795A0008795A00083B
:105A0000795A0008795A0008795A0008795A00082A
:105A100077570008D5570008DB560008775700086D
:105A2000775700087757000877570008775700081E
:105A300077570008775700087757000808F10208E1
:105A4000182303934CE70123089349E7089B002B95
:105A50003FF419AE0023039315E60523039312E6E2
:105A6000112303930FE61A2303930CE600230393F9
:105A700009E61323039306E61823039303E618238A
:105A8000039300E618230393FDE512230393FAE53D
:105A900005230393F7E51C230393F4E512230393F3
:105AA000F1E505230393EEE51C230393EBE51C23AB
:105AB0000393E8E505230393E5E505230393E2E576
:105AC00005230393DFE500BF54150020F8B5067ADF
:105AD00006F01006454B1B78B34200F08580044663
