:020000040800F2
:10000000000002207D2B00082509000827090008B0
:10001000290900082B0900082D090008000000002C
:100020000000000000000000000000002F09000890
:1000300031090008000000003309000835090008F4
:10004000CD2B0008CD2B0008CD2B0008CD2B0008B0
:10005000CD2B0008CD2B0008CD2B00083D09000852
:10006000CD2B0008CD2B0008CD2B0008CD2B000890
:10007000CD2B0008CD2B0008CD2B0008CD2B000880
:10008000CD2B0008CD2B0008CD2B0008CD2B000870
:10009000CD2B0008CD2B0008CD2B0008CD2B000860
:1000A000CD2B0008CD2B0008CD2B0008CD2B000850
:1000B000CD2B0008CD2B0008CD2B0008CD2B000840
:1000C000CD2B0008CD2B0008CD2B0008CD2B000830
:1000D00049090008AD2500089D2600089127000861
:1000E000CD2B0008CD2B0008CD2B0008CD2B000810
:1000F000CD2B0008CD2B0008CD2B0008CD2B000800
:10010000CD2B0008CD2B0008CD2B0008CD2B0008EF
:10011000CD2B0008CD2B0008CD2B0008CD2B0008DF
:10012000CD2B0008CD2B0008CD2B0008CD2B0008CF
:10013000CD2B00080000000000000000CD2B0008BF
:10014000CD2B0008CD2B0008CD2B0008CD2B0008AF
:10015000CD2B0008CD2B0008CD2B000885280008EA
:10016000CD2B0008CD2B0008CD2B0008CD2B00088F
:10017000CD2B0008CD2B000800000000000000007F
:08018000CD2B0008CD2B000877
:1001880010B5054C237833B9044B13B10448AFF3C9
:1001980000800123237010BD0C0000200000000027
:1001A800282C000808B5034B1BB103490348AFF3DB
:1001B800008008BD0000000010000020282C000866
:1001C80053B94AB9002908BF00281CBF4FF0FF31B6
:1001D8004FF0FF3000F074B9ADF1080C6DE904CEB2
:1001E80000F006F8DDF804E0DDE9022304B070470A
:1001F8002DE9F047089D04468E46002B4DD18A42D2
:10020800944669D9B2FA82F252B101FA02F3C2F104
:10021800200120FA01F10CFA02FC41EA030E944095
:100228004FEA1C48210CBEFBF8F61FFA8CF708FBB6
:1002380016E341EA034306FB07F199420AD91CEB8E
:10024800030306F1FF3080F01F81994240F21C81C0
:10025800023E63445B1AA4B2B3FBF8F008FB103308
:1002680044EA034400FB07F7A7420AD91CEB04043D
:1002780000F1FF3380F00A81A74240F2078164440D
:10028800023840EA0640E41B00261DB1D440002392
:10029800C5E900433146BDE8F0878B4209D9002DF6
:1002A80000F0EF800026C5E9000130463146BDE880
:1002B800F087B3FA83F6002E4AD18B4202D38242EA
:1002C80000F2F980841A61EB030301209E46002D99
:1002D800E0D0C5E9004EDDE702B9FFDEB2FA82F2EE
:1002E800002A40F09280A1EB0C014FEA1C471FFA4C
:1002F8008CFE0126200CB1FBF7F307FB131140EA33
:1003080001410EFB03F0884208D91CEB010103F1FF
:10031800FF3802D2884200F2CB804346091AA4B2C1
:10032800B1FBF7F007FB101144EA01440EFB00FE95
:10033800A64508D91CEB040400F1FF3102D2A645FA
:1003480000F2BB800846A4EB0E0440EA03409CE799
:10035800C6F12007B34022FA07FC4CEA030C20FA46
:1003680007F401FA06F31C43F9404FEA1C4900FA66
:1003780006F3B1FBF9F8200C1FFA8CFE09FB1811E3
:1003880040EA014108FB0EF0884202FA06F20BD956
:100398001CEB010108F1FF3A80F08880884240F2A6
:1003A8008580A8F102086144091AA4B2B1FBF9F0EA
:1003B80009FB101144EA014100FB0EFE8E4508D9E5
:1003C8001CEB010100F1FF346CD28E456AD902386A
:1003D800614440EA0840A0FB0294A1EB0E01A1424F
:1003E800C846A64656D353D05DB1B3EB080261EBBD
:1003F8000E0101FA07F722FA06F3F1401F43C5E997
:10040800007100263146BDE8F087C2F12003D840CC
:100418000CFA02FC21FA03F3914001434FEA1C470E
:100428001FFA8CFEB3FBF7F007FB10360B0C43EA00
:10043800064300FB0EF69E4204FA02F408D91CEBB0
:10044800030300F1FF382FD29E422DD902386344AE
:100458009B1B89B2B3FBF7F607FB163341EA03414E
:1004680006FB0EF38B4208D91CEB010106F1FF389D
:1004780016D28B4214D9023E6144C91A46EA004694
:1004880038E72E46284605E70646E3E61846F8E626
:100498004B45A9D2B9EB020864EB0C0E0138A3E76F
:1004A8004646EAE7204694E74046D1E7D0467BE750
:1004B800023B614432E7304609E76444023842E7C8
:1004C800704700BF10B582B000240094224B1A6B0D
:1004D80042F480021A631A6B02F480020092009AB6
:1004E80001941A6B42F400121A631B6B03F4001395
:1004F8000193019B224621460C2000F057FC0C205A
:1005080000F08CFC224621460E2000F04FFC0E2005
:1005180000F084FC224621460F2000F047FC0F2003
:1005280000F07CFC22462146102000F03FFC102001
:1005380000F074FC22462146392000F037FC3920AF
:1005480000F06CFC224621463A2000F02FFC3A20AD
:1005580000F064FC02B010BD0038024070B58AB0EB
:1005680000240594069407940894099401942F4B49
:100578001A6B42F080021A631A6B02F08002019231
:10058800019A02941A6B42F004021A631A6B02F081
:1005980004020292029A03941A6B42F001021A634F
:1005A8001A6B02F001020392039A04941A6B42F048
:1005B80002021A631B6B03F002030493049B1C4D95
:1005C80022464FF48051284600F020FE01224FF4C5
:1005D8008041284600F01AFE022305934FF4881341
:1005E80006930126079605A9124800F01DFD4FF451
:1005F80080530593069607940323089305A9284674
:1006080000F012FD4FF48043059306960794089472
:1006180005A9284600F008FD22462146072000F0DB
:10062800C5FB072000F0FAFB0AB070BD0038024095
:10063800000402400008024072B6FEE700B595B01B
:100648003022002108A802F0E3FA00230393049360
:100658000593069307930193204A116C41F080514A
:100668001164126C02F080520192019A02931C4BA1
:100678001A6842F480421A601B6803F480430293AC
:10068800029B012308934FF48033099302220E92B0
:100698004FF480030F9304231093A8211191129211
:1006A800139308A800F0C8FD98B90F2303930223F9
:1006B8000493002305934FF4A05306934FF48053FB
:1006C8000793052103A801F01DF820B915B05DF8BE
:1006D80004FBFFF7B1FFFFF7AFFF00BF0038024090
:1006E8000070004008B500F023FBFFF7A7FFFFF7F5
:1006F80035FFFFF7E7FE00F03BF800F033F900F0B4
:100708004DF900F069F900F085F901F0D1FE0021FA
:10071800084602F0D5F90021084601F031FE002113
:10072800012002F0CDF90021012001F029FE01216C
:10073800002002F0C5F90121002001F021FE01216D
:10074800084602F0BDF90121084601F019FE022110
:10075800002002F0B5F90221002001F011FE02216B
:10076800012002F0ADF90221012001F009FECEE7D7
:1007780008B50E480E4B03604FF4827343600023A4
:100788008360C3600222026143614FF40072826198
:100798000822C2610362436283620A23C36201F0D2
:1007A80031F900B908BDFFF747FFFBE7E800002073
:1007B800003800402DE9F04188B0002303930493EA
:1007C80005930693079302683F4B9A4202D008B0FC
:1007D800BDE8F08104460025009503F500331A6C46
:1007E80042F480421A641A6C02F480420092009A21
:1007F80001951A6B42F004021A631A6B02F00402A4
:100808000192019A02951A6B42F002021A631B6B5D
:1008180003F002030293029B0C2303934FF0020898
:10082800CDF8108003270697052607960DEB0301E0
:10083800264800F0F9FB4FF400530393CDF81080DD
:1008480005950697079603A9214800F0EDFB214876
:10085800214B036045608560C5604FF48063036188
:1008680045618561C5614FF400330362456200F05C
:1008780061FB18BB174BE3649C631848184B036073
:100888000023436040228260C3604FF480620261AB
:1008980043618361C3614FF480320262436200F0B6
:1008A80049FB70B90D4BA3649C63002202212420EC
:1008B80000F07CFA242000F0B1FA88E7FFF7BCFECC
:1008C800D8E7FFF7B9FEEDE700380040000802401E
:1008D80000040240280000205860024088000020E0
:1008E8007060024082B0002100910B4B5A6C42F4B8
:1008F80080425A645A6C02F480420092009A019134
:100908001A6C42F080521A641B6C03F080530193F6
:10091800019B02B0704700BF00380240FEE7FEE7C7
:10092800FEE7FEE7FEE770477047704708B500F03E
:1009380019FA08BD08B5022000F070FC08BD0000D7
:1009480008B5024801F0F0F908BD00BFE800002032
:10095800034AD2F8883043F47003C2F888307047ED
:1009680000ED00E008B50A480A4B03600A4B4360F3
:1009780000238360C36003610C2242618361C36109
:1009880001F06BFB00B908BDFFF756FEFBE700BF9F
:10099800C002002000100140003E490008B50B4885
:1009A8000B4B03600B4B436000238360C360036100
:1009B8000C22426183614FF40043C36101F04DFB97
:1009C80000B908BDFFF738FEFBE700BF08030020A9
:1009D80000440040003E490008B50B480B4B03603B
:1009E8000B4B436000238360C36003610C224261A8
:1009F80083614FF40043C36101F02FFB00B908BDC8
:100A0800FFF71AFEFBE700BF500300200048004034
:100A1800003E490008B50A480A4B03600A4B436088
:100A280000238360C36003610C2242618361C36158
:100A380001F013FB00B908BDFFF7FEFDFBE700BF9F
:100A48009803002000140140003E490030B58FB0E3
:100A58000446002309930A930B930C930D930368A0
:100A6800904A93420CD0904A93424ED08F4A934278
:100A780000F08F808E4A934200F0D0800FB030BDD6
:100A8800002501958B4B5A6C42F010025A645A6C3F
:100A980002F010020192019A02951A6B42F00102CB
:100AA8001A631B6B03F001030293029B4FF4C063AC
:100AB800099302230A9303230C9307230D9309A98F
:100AC8007D4800F0B1FA7D487D4B03604FF000632C
:100AD80043608560C5604FF480630361456185614B
:100AE800C5610562456200F025FA58B9734BE363A6
:100AF8009C6300220321252000F058F9252000F0EE
:100B08008DF9BBE7FFF798FDF0E700250395694BE2
:100B18001A6C42F400321A641A6C02F4003203921E
:100B2800039A04951A6B42F001021A631B6B03F0D7
:100B380001030493049B0C23099302230A930323C0
:100B48000C9307230D9309A95B4800F06DFA5D48E3
:100B58005D4B03604FF0006343608560C5604FF4F0
:100B68008063036145618561C5610562456200F086
:100B7800E1F958B9534BE3639C6300220321262013
:100B880000F014F9262000F049F977E7FFF754FD43
:100B9800F0E700250595474B1A6C42F480221A6449
:100BA8001A6C02F480220592059A06951A6B42F097
:100BB80002021A631B6B03F002030693069B4FF4B1
:100BC8004063099302230A9303230C9307230D938D
:100BD80009A93E4800F028FA3D483E4B03604FF013
:100BE800006343608560C5604FF4806303614561BD
:100BF8008561C5610562456200F09CF958B9344BBE
:100C0800E3639C6300220321272000F0CFF827200C
:100C180000F004F932E7FFF70FFDF0E7002507952C
:100C2800244B5A6C42F020025A645A6C02F020029B
:100C38000792079A08951A6B42F004021A631B6B15
:100C480003F004030893089BC023099302230A9323
:100C580003230C9308230D9309A91F4800F0E4F916
:100C68001E481F4B03604FF0206343608560C560DA
:100C78004FF48063036145618561C5610562456222
:100C880000F058F958B9154BE3639C63002203211F
:100C9800472000F08BF8472000F0C0F8EEE6FFF799
:100CA800CBFCF0E700100140004400400048004041
:100CB80000140140003802400000024040010020BA
:100CC80040640240A0010020886002400004024005
:100CD8000002002028600240000802406002002054
:100CE8002864024010B504460E4B18784FF47A7306
:100CF800B3FBF0F30C4A1068B0FBF3F000F09CF87B
:100D080068B90F2C01D901200AE0002221464FF0D2
:100D1800FF3000F04BF8054B1C60002000E001207C
:100D280010BD00BF040000200000002008000020C3
:100D380008B50B4B1A6842F400721A601A6842F43C
:100D480080621A601A6842F480721A60032000F008
:100D58001BF80F20FFF7C6FFFFF7C4FD002008BDF2
:100D6800003C0240034A1168034B1B780B44136094
:100D7800704700BFE003002004000020014B186802
:100D8800704700BFE0030020074AD36823F4E063FC
:100D98001B041B0C000200F4E060034343F0BF6334
:100DA80043F40033D360704700ED00E000B5194B01
:100DB800DB68C3F30223C3F1070CBCF1040F28BF9F
:100DC8004FF0040C03F1040EBEF1060F18D9033BD3
:100DD8004FF0FF3E0EFA0CFC21EA0C0199400EFA86
:100DE80003F322EA0303194300280BDB0901C9B204
:100DF80000F1604000F5614080F800135DF804FBE5
:100E08000023E5E700F00F000901C9B2024B1954AD
:100E1800F4E700BF00ED00E014ED00E0002807DB78
:100E280000F01F02400901239340024A42F8203093
:100E3800704700BF00E100E00138B0F1807F0BD2BD
:100E48004FF0E0235861054AF02182F82310002072
:100E5800986107221A6170470120704700ED00E091
:100E680010B40368D9B210390C4AA2FB0142120926
:100E78000B4CA25CC2655F2909D923F47F7323F068
:100E8800030304338365806D5DF8044B704723F4D6
:100E98007F7323F003038365F5E700BFABAAAAAA13
:100EA800582C0008836A826992B9012B0AD0022B58
:100EB80002D00BB100207047C36A13F0807F28D19D
:100EC80000207047C36AB3F1C07F24D00020704768
:100ED800B2F5005F09D0022B25D9032B25D1C36AAF
:100EE80013F0807F23D100207047032B03D8DFE85D
:100EF80003F01404140A00207047C36A13F0807FBB
:100F08000DD100207047C36AB3F1C07F09D000201B
:100F18007047012070470120704701207047012069
:100F2800704701207047012070470020704701205A
:100F38007047000070B50446FFF720FF002C5BD017
:100F48000546022384F83530002384F834302268BB
:100F5800136823F00103136023681A6812F0010F65
:100F68000AD0FFF70BFF431B052BF5D92023636538
:100F7800032084F8350070BD1A6820481040616865
:100F8800A2680A43E1680A4321690A4361690A437E
:100F9800A1690A43E1690A43216A0A430243616A73
:100FA80004291ED01A602668756925F00705636A4A
:100FB8001D43042B07D1A36A1D43E36A1BB12046D6
:100FC800FFF770FF90B975612046FFF749FFE26DA2
:100FD8003F239340836000206065012384F8353007
:100FE800C9E7E16A206B01430A43DBE740236365F5
:100FF800012084F83500BEE70120BCE73F8010F0EF
:1010080090F83530DBB2022B03D0802343650120F2
:101018007047052380F835300268136823F0010310
:10102800136000207047000000230F2B00F2E480BB
:1010380070B582B060E085685E000324B44025EA9C
:101048000405CC68B4402C438460456825EA020551
:101058004C68C4F300129A402A4342605AE0DC0804
:10106800083450F8246003F0070295000F22AA40C4
:1010780026EA020E0A69AA4042EA0E0240F8242033
:101088005CE0072200E0002202FA0EF22A43023452
:101098005A4D45F824205A4A94686FEA0C0224EA0B
:1010A8000C054E6816F4801F01D04CEA0405544C18
:1010B800A560E46802EA04054E6816F4001F01D032
:1010C8004CEA04054E4CE560646802EA04054E6883
:1010D80016F4003F01D04CEA0405494C65602468C9
:1010E80022404D6815F4803F01D04CEA0402444C7C
:1010F800226001330F2B7DD801229A400C6804EA44
:10110800020C32EA0404F4D14C6804F00304013CF4
:10111800012C90D94A6802F00302032A09D0C46856
:101128005D000322AA4024EA02048A68AA402243F6
:10113800C2604A6802F00302022A90D004684FEAAB
:10114800430E032202FA0EF224EA02044A6802F06D
:10115800030202FA0EF2224302604A6812F4403F88
:10116800C7D000220192274A546C44F48044546446
:10117800526C02F480420192019A9C08A51C1F4AF5
:1011880052F8255003F003024FEA820E0F2202FAAA
:101198000EF225EA02051C4A90423FF474AF02F5AC
:1011A800806290421AD002F58062904218D002F50F
:1011B8008062904216D002F58062904214D002F507
:1011C8008062904212D002F58062904210D002F5FF
:1011D800806290423FF455AF082255E7012253E759
:1011E800022251E703224FE704224DE705224BE78D
:1011F800062249E702B070BD704700BF00380140C1
:10120800003C014000380240000002400AB1816100
:1012180070470904816170477047000008B5054BA5
:101228005B69034200D108BD024B5861FFF7F4FF28
:10123800F9E700BF003C0140002800F0E08170B5EC
:1012480082B00446036813F0010F3BD09F4B9B68A4
:1012580003F00C03042B2CD09C4B9B6803F00C036D
:10126800082B21D06368B3F5803F4FD0B3F5A02F8A
:1012780052D0964B1A6822F480321A601A6822F407
:1012880080221A606368002B50D0FFF777FD05466F
:101298008E4B1B6813F4003F14D1FFF76FFD401B02
:1012A8006428F5D90320B1E1884B5B6813F4800FFB
:1012B800D8D0864B1B6813F4003F03D06368002B1B
:1012C80000F09F81236813F0020F54D07F4B9B6876
:1012D80013F00C0F3ED07D4B9B6803F00C03082BDA
:1012E80033D0E368002B68D0794B01221A60FFF7EE
:1012F80045FD0546754B1B6813F0020F54D1FFF7E7
:101308003DFD401B0228F5D903207FE16F4A136891
:1013180043F480331360B5E76C4B1A6842F48022BB
:101328001A601A6842F480321A60ABE7FFF726FDAC
:101338000546664B1B6813F4003FC3D0FFF71EFD3C
:10134800401B6428F5D9032060E1604B5B6813F407
:10135800800FC6D15D4B1B6813F0020F03D0E36802
:10136800012B40F05081594A136823F0F803216992
:1013780043EAC1031360236813F0080F42D063697E
:101388006BB3534B0122C3F8802EFFF7F7FC0546D9
:101398004E4B5B6F13F0020F34D1FFF7EFFC401B8D
:1013A8000228F5D9032031E1484A136823F0F803ED
:1013B800216943EAC1031360DDE7454B00221A6047
:1013C800FFF7DCFC0546414B1B6813F0020FD2D037
:1013D800FFF7D4FC401B0228F5D9032016E13C4B4B
:1013E8000022C3F8802EFFF7C9FC0546374B5B6F18
:1013F80013F0020F06D0FFF7C1FC401B0228F5D9F5
:10140800032003E1236813F0040F77D02F4B1B6CE4
:1014180013F0805F33D1002301932C4B1A6C42F0F8
:1014280080521A641B6C03F080530193019B0125C1
:10143800284B1B6813F4807F23D0A368012B34D07A
:10144800052B38D0214B1A6F22F001021A671A6F48
:1014580022F004021A67A368002B3DD0FFF78EFC28
:1014680006461A4B1B6F13F0020F46D1FFF786FC96
:10147800801B41F288339842F3D90320C6E0002547
:10148800D6E7144A136843F480731360FFF776FCB9
:101498000646104B1B6813F4807FCED1FFF76EFC15
:1014A800801B0228F5D90320B0E0084A136F43F0E7
:1014B80001031367CFE7054B1A6F42F004021A675E
:1014C8001A6F42F001021A67C5E700BF00380240F0
:1014D8000000474200700040FFF750FC0646524BA0
:1014E8001B6F13F0020F08D0FFF748FC801B41F276
:1014F80088339842F3D9032088E0EDB9A369002B1B
:1015080000F08380484A926802F00C02082A51D001
:10151800022B17D0454B00221A66FFF72FFC044612
:10152800414B1B6813F0007F42D0FFF727FC001BDC
:101538000228F5D9032069E03B4A136C23F0805355
:101548001364DBE7394B00221A66FFF717FC0546E0
:10155800354B1B6813F0007F06D0FFF70FFC401BCC
:101568000228F5D9032051E0E369226A1343626A2D
:1015780043EA8213A26A5208013A43EA0243E26A42
:1015880043EA0263284A5360284B01221A66FFF790
:10159800F5FB0446244B1B6813F0007F06D1FFF7C8
:1015A800EDFB001B0228F5D903202FE000202DE0D9
:1015B80000202BE0012B2BD01B4B5B6803F4800130
:1015C800E269914226D103F03F02216A8A4223D17F
:1015D800616A47F6C0721A40B2EB811F1ED103F44C
:1015E8004031A26A5208013AB1EB024F18D103F018
:1015F8007063E26AB3EB026F14D1002006E00120A9
:101608007047012002E0012000E0002002B070BD18
:101618000120FBE70120F9E70120F7E70120F5E7C2
:101628000120F3E70120F1E70038024000004742BB
:1016380008B5314B9B6803F00C03042B57D0082BDB
:1016480057D12D4B5A6802F03F025B6813F4800FA4
:101658002AD0294B5968C1F3881C4FEA4C11B1EBC9
:101668000C006EEB0E0E4FEA8E1343EA9063810175
:10167800091A63EB0E03DB0043EA5173C90011EB4F
:101688000C0C43F10003590200234FEA4C2041EAB5
:10169800DC51FEF795FD184B5B68C3F3014301333A
:1016A8005B00B0FBF3F025E0134B5968C1F3881CCD
:1016B8004FEA4C11B1EB0C006EEB0E0E4FEA8E1395
:1016C80043EA90638101091A63EB0E03DB0043EAE6
:1016D8005173C90011EB0C0C43F10003990200236C
:1016E8004FEA8C2041EA9C51FEF76AFDD3E7034894
:1016F80000E0034808BD00BF0038024000127A002D
:101708000024F400002800F09B8070B50D460446C4
:101718004F4B1B6803F007038B4208D2CBB24C4AED
:101728001370136803F007038B4240F08B80236823
:1017380013F0020F17D013F0040F04D0454A936832
:1017480043F4E0539360236813F0080F04D0414A30
:10175800936843F4604393603E4A936823F0F00330
:10176800A1680B439360236813F0010F32D06368BC
:10177800012B21D09A1E012A25D9364A126812F067
:10178800020F61D033498A6822F0030213438B6049
:10179800FFF7F4FA06462F4B9B6803F00C036268C8
:1017A800B3EB820F16D0FFF7E9FA801B41F28833BA
:1017B8009842F0D9032042E0264A126812F4003F0A
:1017C800E0D101203BE0234A126812F0007FD9D112
:1017D800012034E01E4B1B6803F00703AB4207D916
:1017E800EAB21B4B1A701B6803F00703AB422DD1FA
:1017F800236813F0040F06D0164A936823F4E053C5
:10180800E1680B439360236813F0080F07D0114A6F
:10181800936823F46043216943EAC1039360FFF7A7
:1018280007FF0C4B9B68C3F303130B4AD35CD840E8
:101838000A4B18600A4B1868FFF754FA002070BD6D
:10184800012070470120FAE70120F8E70120F6E7B8
:10185800003C024000380240402C000800000020F4
:1018680008000020014B1868704700BF00000020E6
:1018780008B5FFF7F7FF044B9B68C3F38223034ABD
:10188800D35CD84008BD00BF00380240502C000887
:1018980008B5FFF7E7FF044B9B68C3F34233034ADD
:1018A800D35CD84008BD00BF00380240502C000867
:1018B8002DE9F04782B00546884617461E46FFF7D1
:1018C8005DFA0A9B1B1A03EB0609FFF757FA8246D3
:1018D8002B4B1B68C3F3CB3309FB03F301932B6832
:1018E8009C6838EA04030CBF4FF0010C4FF0000C61
:1018F800BC4540D0B6F1FF3FF1D0FFF73FFAA0EB6F
:101908000A0048450AD2B9F1000F07D0019A02B17E
:101918004A46019B013B01939146E0E72A685368D8
:1019280023F0E00353606B68B3F5827F0BD0AB6A9A
:10193800B3F5005F14D0012385F85130002385F8F2
:101948005030032018E0AB68B3F5004F02D0B3F570
:10195800806FECD12A68136823F040031360E6E730
:101968002A68136823F4005313602A68136843F441
:1019780000531360DFE7002002B0BDE8F08700BF26
:101988000000002070B584B004460D46164600924B
:101998000B4601220221FFF78BFFD0B9174B1B68BA
:1019A800174AA2FB03235B0D4FF47A7202FB03F381
:1019B80003936368B3F5827F11D0039B3BB1039B0C
:1019C800013B039323689B6813F0800FF5D104B0A3
:1019D80070BD636D43F0200363650320F7E700964D
:1019E8002B46002280212046FFF762FF0028EED018
:1019F800636D43F0200363650320E8E700000020DF
:101A0800819F5E1600285AD010B50446436A33B940
:101A18004368B3F5827F05D00023C36102E0002349
:101A2800036143610023A36294F85130002B40D036
:101A3800022384F851302268136823F040031360AE
:101A4800636803F48273A26802F404421343E268F1
:101A580002F400621343226902F00202134362692E
:101A680002F001021343A26902F400721343E2690F
:101A780002F038021343226A02F080021343A26A7A
:101A880002F40052216813430B60638B03F00403D4
:101A9800626A02F01002216813434B602268D3691E
:101AA80023F40063D36100206065012384F851307A
:101AB80010BD84F850302046FEF77CFEB8E70120C0
:101AC8007047000010B490F851C05FFA8CFC44686D
:101AD800BCF1010F08D0B4F5827F40D18468002C96
:101AE80041D1BCF1040F40D1002940D0002A40D098
:101AF800002B40D090F85040012C3ED0012480F8B3
:101B0800504090F85140E4B2042C02D0052480F8EB
:101B180051400024446501638386C38682638387BA
:101B2800C387C368B3B1164B0364164B4364036899
:101B38001A6812F0400F03D11A6842F040021A6086
:101B4800002380F8503001684A6842F0E0024A6099
:101B5800184605E00C4B03640C4B4364E7E702208E
:101B68005DF8044B70470220FAE70220F8E70120ED
:101B7800F6E70120F4E70120F2E70220F0E700BFD2
:101B8800F91C0008C11C0008891C0008511C000829
:101B9800704770477047000010B582B00446284B64
:101BA8001B68284AA2FB03235B0A642202FB03F397
:101BB8000193FFF7E3F8024621684B6823F02003FE
:101BC8004B60019B43B1019B013B019323689B68D8
:101BD80013F0020FF5D003E0636D43F02003636553
:101BE80064212046FFF7CEFE18B1636D43F0200351
:101BF8006365A36833B900932368DA6800929B6829
:101C08000093009B636D9BB994F85130DBB2042BB1
:101C180007D0012384F851302046FFF7BAFF02B0FD
:101C280010BD012384F851302046FFF7B1FFF6E7D5
:101C3800012384F851302046FFF7ACFFEFE700BFDF
:101C480000000020F119760508B5026B03681278C8
:101C58001A73036B01330363C38E9BB2013B9BB2C0
:101C6800C386C38E9BB23BB90268536823F08003D6
:101C78005360C38F9BB203B108BDFFF78DFFFBE72D
:101C880008B50268836B127B1A70836B0133836318
:101C9800C38F9BB2013B9BB2C387C38F9BB23BB937
:101CA8000268536823F060035360C38E9BB203B18C
:101CB80008BDFFF771FFFBE708B5026B03681288E0
:101CC800DA60036B02330363C38E9BB2013B9BB2A2
:101CD800C386C38E9BB23BB90268536823F0800366
:101CE8005360C38F9BB203B108BDFFF755FFFBE7F5
:101CF80008B50368DA68836B1A80836B02338363E1
:101D0800C38F9BB2013B9BB2C387C38F9BB23BB9C6
:101D18000268536823F040035360C38E9BB203B13B
:101D280008BDFFF739FFFBE730B585B00446026808
:101D380051689368C3F3801013F0400F05D113F076
:101D4800010F02D011F0400F69D113F0020F02D039
:101D580011F0800F67D1C3F3401513F0200F03D1A2
:101D680010B913F4807F61D011F0200F5ED078B1E4
:101D780094F85100C0B203285AD0606D40F00400B6
:101D8800606500200090D0680090906800900098EE
:101D980065B1606D40F001006065002002909068B8
:101DA8000290106820F040001060029A13F4807FBF
:101DB80009D0636D43F00803636500230393236828
:101DC8009B680393039B636D002B2FD02268536895
:101DD80023F0E0035360012384F8513011F0030F1E
:101DE8002ED02268536823F003035360E36C4BB191
:101DF800154A1A65E06CFFF703F918B1636D43F0F3
:101E080040036365A36C8BB10F4A1A65A06CFFF79A
:101E1800F7F858B1636D43F04003636506E0236C3F
:101E28002046984702E0636C2046984705B030BDCD
:101E380000230193D368019393680193019BF5E70D
:101E48002046FFF7A7FEF1E7551E000808B5806B8E
:101E58000023C387C386FFF79DFE08BD90F8510095
:101E68007047026802F10C0353E8003F23F49073B3
:101E78000C3242E800310029F3D1026802F1140360
:101E880053E8003F23F00103143242E800310029EF
:101E9800F3D1036B012B05D0202380F842300023B7
:101EA80003637047026802F10C0353E8003F23F014
:101EB80010030C3242E800310029F3D1ECE70000AE
:101EC80038B504460268136923F44053C1680B43CC
:101ED800136183680269134342691343C2691A4351
:101EE8000168CB6823F4164323F00C031343CB603B
:101EF8000268536923F4407381690B435361036893
:101F0800314A934206D002F58062934202D0FFF72D
:101F1800AFFC01E0FFF7BCFCE369B3F5004F29D043
:101F28000021031849411B1841F10001C90041EA89
:101F38005371DB00181863684FEA83024FEA937302
:101F480041F10001FEF73CF9204DA5FB0032510993
:101F5800642303FB11031B013233A5FB03235B0935
:101F680003F0F00202EB011203F00F03216813449F
:101F78008B6038BD0023021843EB0301121841F1AE
:101F88000001C90041EA5271D200101841F1000164
:101F9800626892185B41FEF713F90C4DA5FB0032FD
:101FA8005109642303FB1103DB003233A5FB032330
:101FB8005B095A0002F4F87202EB011203F00703FE
:101FC800216813448B60D4E7001001401F85EB5152
:101FD8002DE9F04383B005460E4617469946DDF8CD
:101FE80028802C68246836EA04030CBF4FF0010CE3
:101FF8004FF0000CBC4528D1B8F1FF3FF1D0FEF7F7
:10200800BDFEA0EB0900404523D8B8F1000F22D04F
:102018002B68DA6812F0040FE3D0802EE1D0402E4E
:10202800DFD01A6812F0080FDBD0002401941A6878
:1020380001925B680193019B2846FFF712FF082372
:102048006B6485F84040012000E0002003B0BDE843
:10205800F0830320FAE70320F8E760B310B50446DD
:1020680090F8413013B3242384F841302268D368B0
:1020780023F40053D3602046FFF722FF2268136938
:1020880023F4904313612268536923F02A035361B0
:102098002268D36843F40053D3600020606420238F
:1020A80084F8413084F84230606310BD80F84030D5
:1020B800FEF7CCFCD7E7012070472DE9F04182B04C
:1020C8001E4690F84130DBB2202B56D104460D460F
:1020D8009046002955D00AB901204FE000234364F7
:1020E800212380F84130FEF749FE0746A4F82480F2
:1020F800A4F82680A368B3F5805F02D04FF00008EB
:1021080014E023692BB34FF000080FE0202384F874
:102118004130032032E038F8023B2268C3F3080359
:102128005360E28C92B2013A92B2E284E38C9BB2A1
:1021380093B100963B46002280212046FFF748FFD6
:102148000028E3D1002DE6D015F8012B23685A604A
:10215800E7E7A8460025E9E700963B46002240212C
:102168002046FFF735FF18B9202384F8413005E0F1
:10217800202384F84130032000E0022002B0BDE8AB
:10218800F0810120FAE7000010B4164B1B685C6967
:1021980044F040045C61DC6844F01004DC60124BDD
:1021A8001C68236823F00103236003E01C6824F003
:1021B80001041C600C4B1B681C6814F0010FF5D15E
:1021C8000A4C9C60D86019615A601A6842F48022EF
:1021D8001A60054B1A68136843F0010313605DF831
:1021E800044B7047C0020020400100200410014049
:1021F80010B4164B1B685C6944F040045C61DC68F1
:1022080044F01004DC60124B1C68236823F00103BF
:10221800236003E01C6824F001041C600C4B1B685D
:102228001C6814F0010FF5D10A4C9C60D860196144
:102238005A601A6842F480221A60054B1A681368BB
:1022480043F0010313605DF8044B70470803002056
:10225800A00100200444004010B4164B1B685C69C0
:1022680044F040045C61DC6844F01004DC60124B0C
:102278001C68236823F00103236003E01C6824F032
:1022880001041C600C4B1B681C6814F0010FF5D18D
:102298000A4C9C60D86019615A601A6842F480221E
:1022A8001A60054B1A68136843F0010313605DF860
:1022B800044B7047500300200002002004480040EF
:1022C80010B4164B1C68236823F001032360144BD9
:1022D8001B685C6944F040045C61DC6844F01004ED
:1022E800DC6003E01C6824F001041C600B4B1B68D5
:1022F8001C6814F0010FF5D10A4C9C60D860196174
:102308005A601A6842F480221A60044B1A681368EB
:1023180043F0010313605DF8044B7047600200202E
:10232800980300200414014030B505468E464FF04E
:10233800FF304FF0000C17E0104C84EA400006E034
:10234800520801331F2B0DD80028F5DB40000A4244
:10235800F6D080F0986080F48E3080F4DB7080F0E6
:102368000100EDE70CF1010CF44505D255F82C10ED
:102378004FF000420023E5E730BD00BFB71DC104A0
:102388002DE9F0438BB00646DFF8D08001EB41130E
:10239800C62700FB07F707EB430308EB0304FE22FD
:1023A80008F80320EE236370A1700022E27001EBAD
:1023B8004103C3EBC303C0EB80110B4424490B4416
:1023C80019792171FF216171A271E2710021A16067
:1023D800B3F90510A181B3F90710E181D3F8091009
:1023E8002161B3F90D10A182B3F90F30E38222768F
:1023F8006276D4F83E30C4F81A3007212046FFF739
:1024080093FFC4F81E0025460DF1040C20346746DE
:1024180028686968AA68EB680FC71035BC46A542EA
:10242800F5D12B883B8026B1012E09D00BB0BDE831
:10243800F0830123222201A90648FFF73EFEF5E7B3
:102448000123222201A90448FFF737FEEEE700BF67
:1024580064140020C002002098030020E403002038
:10246800034620B319B382780A7002794A708279D8
:102478008A70C279CA70407B1A7B42EA00228A803D
:10248800D87B9A7B42EA0022CA80187FDA7E42EA29
:1024980000220A8193F8210093F82020120442EACE
:1024A8000062D87F42EA00229B7F1A43CA607047C5
:1024B80008B50A4880228118FFF766FE084880227E
:1024C8008118FFF795FE074880228118FFF7C4FEA0
:1024D800054880228118FFF7F3FE08BDBC100020D4
:1024E800BC0F0020BC110020BC1200202DE9F047D1
:1024F80029494FF4D47303FB001191F8983100EB8C
:102508000014264A02EBC402937091F89BC182F82A
:1025180007C091F89971177191F99A619671B1F99B
:102528009C519581B1F99E41D481B1F9A0E1A2F8FD
:102538001AE0D1F8A411C2F81E10DFF8649003EB7A
:102548004308C8EBC808C0EB8012904409EB0802A6
:102558004FF0D20A09F808A04FF0FE0882F801806F
:102568009070D37082F806C017715671A2F80750A0
:10257800A2F80940A2F80BE0C2F80D1000F5E870C7
:1025880003443B4433442B44234473441944614477
:10259800C2F81110BDE8F0871C090020FC060020D5
:1025A8006015002000B583B0324B1B681A6812F022
:1025B800200F09D0002200921A6800925B680093ED
:1025C800009B03B05DF804FB2B4A126812F0100F51
:1025D800F7D0002201921A6801925B680193019B6F
:1025E800264B1B681A6812F4002F20D11A6822F0B3
:1025F80001021A60214802685368C3F180039BB244
:102608001F490B8080215160116841F4002111603D
:1026180001680A6842F001020A604E2BD1D11949BB
:102628001948FFF71DFF0020FFF760FFC9E71A6888
:1026380022F001021A60114908684368C3F1800357
:102648000F4A1380802343601048036C23F400234F
:10265800036409680B6843F001030B6013884E2B71
:10266800AFD108490A48FFF7FBFE0020FFF73EFFFD
:10267800A7E700BFC0020020001001404001002071
:10268800C2130020B40A0020BC10002000640240DD
:102698003C11002000B583B0324B1B681A6812F059
:1026A800200F09D0002200921A6800925B680093FC
:1026B800009B03B05DF804FB2B4A126812F0100F60
:1026C800F7D0002201921A6801925B680193019B7E
:1026D800264B1B681A6812F4002F20D11A6822F0C2
:1026E80001021A60214802685368C3F180039BB253
:1026F8001F490B8080215160116841F4002111604D
:1027080001680A6842F001020A604E2BD1D11949CA
:102718001948FFF7A5FE0120FFF7E8FEC9E7174BA8
:1027280019680A6822F001020A6018684268C2F152
:1027380080020F490A80802242601148826A22F48E
:10274800002282621A68136843F0010313600B8841
:102758004E2BAED107490B48FFF782FE0120FFF749
:10276800C5FEA6E70803002000440040A0010020A1
:10277800C01300205C0C0020BC0F00206002002069
:10278800006402403C10002000B583B0324B1B6847
:102798001A6812F0200F09D0002200921A680092DD
:1027A8005B680093009B03B05DF804FB2B4A12683A
:1027B80012F0100FF7D0002201921A6801925B689C
:1027C8000193019B264B1B681A6812F4002F20D135
:1027D8001A6822F001021A60214802685368C3F19E
:1027E80080039BB21F490B8080215160116841F41E
:1027F8000021116001680A6842F001020A604E2B4C
:10280800D1D119491948FFF72BFE0320FFF76EFEB7
:10281800C9E7174B19680A6822F001020A601868AC
:102828004268C2F180020F490A8080224260114842
:10283800826A22F4002282621A68136843F0010354
:1028480013600B884E2BAED107490B48FFF708FEE3
:102858000320FFF74BFEA6E7500300200048004086
:1028680000020020BE130020AC0F0020BC11002085
:1028780060020020006402403C12002000B583B0D2
:10288800324B1B681A6812F0200F09D00022009200
:102898001A6800925B680093009B03B05DF804FB24
:1028A8002B4A126812F0100FF7D0002201921A6812
:1028B80001925B680193019B264B1B681A6812F40E
:1028C800002F20D11A6822F001021A6021480268FC
:1028D8005368C3F180039BB21F490B80802151606C
:1028E800116841F40021116001680A6842F0010290
:1028F8000A604E2BD1D119491948FFF7B1FD0220C2
:10290800FFF7F4FDC9E71A6822F001021A601149BD
:1029180008684368C3F180030F4A1380802343602B
:102928001048836A23F40023836209680B6843F024
:1029380001030B6013884E2BAFD108490A48FFF7F3
:102948008FFD0220FFF7D2FDA7E700BF9803002004
:102958000014014060020020BC130020040E002077
:10296800BC120020006402403C13002008B500227D
:102978004FF480510148FEF749FC08BD00040240AD
:1029880008B501224FF480510148FEF73FFC08BD0D
:102998000004024000B583B0D2238DF8073000232D
:1029A8008DF806300AE00D48FFF758FA0128FAD1E9
:1029B8009DF806209DF807309A420CD001230DF1AE
:1029C80006020DF107010548FFF77CF80028EAD058
:1029D800FDF732FEE7E703B05DF804FBE8000020EE
:1029E80070B58646264CA4460068DEF80410DEF86A
:1029F8000820DEF80C30ACE80F00DEF81000CCF848
:102A080000009EF814308CF80430A178E27823781E
:102A1800607803440B44134420790344D4F8090034
:102A28000344B4F905000344B4F907000344B4F9B6
:102A38000D000344B4F90F000344D4F81100834295
:102A480000D070BD0329FCD8032AFADC0D4E02EB36
:102A58004202C2EBC202C1EB8111541806EB040C0E
:102A6800074D0FCD3051CCF80410CCF80820CCF825
:102A78000C302868CCF810002B798CF81430E0E77B
:102A8800C413002064140020002305E05A1C10F829
:102A980002C001F803C01346132BF7DD002306E03C
:102AA80003F1140210F803C001F802C00133142B1B
:102AB800F6DDFE230B70D2220A754B7570470000B5
:102AC80070B505460C46FFF751FFFFF763FF234A31
:102AD80004EB4404C4EBC404C5EB85156319D5188D
:102AE8001F4E3446D0586968AA68EB680FC4286935
:102AF80020602B7D23711B4C21463046FFF7C4FF15
:102B08002923194A21461948FEF7DCFF08B9002491
:102B18000EE0FDF791FDFAE7E2181349895C144AC3
:102B2800D1540133142BF7DD1148FFF759FF013455
:102B3800142C0ADC0C4B1B5DD22BF8D1631C0A4AFF
:102B4800D35CFE2BF3D10023ECE70848FFF786F9A6
:102B58000128FAD1FFF714FF70BD00BF60150020EF
:102B68002014002038140020F4130020E80000206E
:102B7800DC130020DFF834D0FDF7EAFE0C480D49DD
:102B88000D4A002302E0D458C4500433C4188C42C0
:102B9800F9D30A4A0A4C002301E013600432A24226
:102BA800FBD300F011F8FDF79DFD704700000220EF
:102BB800000000200C000020702C00080C000020F1
:102BC8005C160020FEE7000070B50D4D0D4C641B2F
:102BD800A4100026A64209D10B4D0C4C00F020F899
:102BE800641BA4100026A64205D170BD55F8043B0D
:102BF80098470136EEE755F8043B98470136F2E767
:102C0800682C0008682C0008682C00086C2C000848
:102C180002440346934200D1704703F8011BF9E7C9
:102C2800F8B500BFF8BC08BC9E467047F8B500BFB1
:082C3800F8BC08BC9E46704781
:102C4000000000000000000001020304060708095C
:102C50000000000001020304000610160006101612
:082C600098D5FF7F0100000080
:042C6800AD010008B2
:042C6C0089010008D2
:0C2C70000024F40001000000100000002F
:0400000508002B7D47
:00000001FF
