:020000040800F2
:1000000000000220A9200008DD070008DF07000823
:10001000E1070008E3070008E5070008000000000A
:10002000000000000000000000000000E7070008DA
:10003000E907000800000000EB070008ED070008D2
:10004000F9200008F9200008F9200008F92000082C
:10005000F9200008F9200008F9200008F92000081C
:10006000F9200008F9200008F9200008F92000080C
:10007000F9200008F9200008F9200008F9200008FC
:10008000F9200008F9200008F9200008F9200008EC
:10009000F9200008F9200008F9200008F9200008DC
:1000A000F9200008F9200008F9200008F9200008CC
:1000B000F9200008F9200008F9200008F9200008BC
:1000C000F9200008F9200008F9200008F9200008AC
:1000D000F9200008C91E0008F9200008F9200008CE
:1000E000F9200008F9200008F9200008F92000088C
:1000F000F9200008F9200008F9200008F92000087C
:10010000F9200008F9200008F9200008F92000086B
:10011000F9200008F9200008F9200008F92000085B
:10012000F9200008F9200008F9200008F92000084B
:10013000F92000080000000000000000F92000087D
:10014000F9200008F9200008F9200008F92000082B
:10015000F9200008F9200008F9200008B91F00085C
:10016000F9200008F9200008F9200008F92000080B
:10017000F9200008F920000800000000000000003D
:08018000F9200008F920000835
:1001880010B5054C237833B9044B13B10448AFF3C9
:1001980000800123237010BD0C0000200000000027
:1001A8005421000808B5034B1BB103490348AFF3BA
:1001B800008008BD00000000100000205421000845
:1001C80053B94AB9002908BF00281CBF4FF0FF31B6
:1001D8004FF0FF3000F074B9ADF1080C6DE904CEB2
:1001E80000F006F8DDF804E0DDE9022304B070470A
:1001F8002DE9F047089D04468E46002B4DD18A42D2
:10020800944669D9B2FA82F252B101FA02F3C2F104
:10021800200120FA01F10CFA02FC41EA030E944095
:100228004FEA1C48210CBEFBF8F61FFA8CF708FBB6
:1002380016E341EA034306FB07F199420AD91CEB8E
:10024800030306F1FF3080F01F81994240F21C81C0
:10025800023E63445B1AA4B2B3FBF8F008FB103308
:1002680044EA034400FB07F7A7420AD91CEB04043D
:1002780000F1FF3380F00A81A74240F2078164440D
:10028800023840EA0640E41B00261DB1D440002392
:10029800C5E900433146BDE8F0878B4209D9002DF6
:1002A80000F0EF800026C5E9000130463146BDE880
:1002B800F087B3FA83F6002E4AD18B4202D38242EA
:1002C80000F2F980841A61EB030301209E46002D99
:1002D800E0D0C5E9004EDDE702B9FFDEB2FA82F2EE
:1002E800002A40F09280A1EB0C014FEA1C471FFA4C
:1002F8008CFE0126200CB1FBF7F307FB131140EA33
:1003080001410EFB03F0884208D91CEB010103F1FF
:10031800FF3802D2884200F2CB804346091AA4B2C1
:10032800B1FBF7F007FB101144EA01440EFB00FE95
:10033800A64508D91CEB040400F1FF3102D2A645FA
:1003480000F2BB800846A4EB0E0440EA03409CE799
:10035800C6F12007B34022FA07FC4CEA030C20FA46
:1003680007F401FA06F31C43F9404FEA1C4900FA66
:1003780006F3B1FBF9F8200C1FFA8CFE09FB1811E3
:1003880040EA014108FB0EF0884202FA06F20BD956
:100398001CEB010108F1FF3A80F08880884240F2A6
:1003A8008580A8F102086144091AA4B2B1FBF9F0EA
:1003B80009FB101144EA014100FB0EFE8E4508D9E5
:1003C8001CEB010100F1FF346CD28E456AD902386A
:1003D800614440EA0840A0FB0294A1EB0E01A1424F
:1003E800C846A64656D353D05DB1B3EB080261EBBD
:1003F8000E0101FA07F722FA06F3F1401F43C5E997
:10040800007100263146BDE8F087C2F12003D840CC
:100418000CFA02FC21FA03F3914001434FEA1C470E
:100428001FFA8CFEB3FBF7F007FB10360B0C43EA00
:10043800064300FB0EF69E4204FA02F408D91CEBB0
:10044800030300F1FF382FD29E422DD902386344AE
:100458009B1B89B2B3FBF7F607FB163341EA03414E
:1004680006FB0EF38B4208D91CEB010106F1FF389D
:1004780016D28B4214D9023E6144C91A46EA004694
:1004880038E72E46284605E70646E3E61846F8E626
:100498004B45A9D2B9EB020864EB0C0E0138A3E76F
:1004A8004646EAE7204694E74046D1E7D0467BE750
:1004B800023B614432E7304609E76444023842E7C8
:1004C800704700BF10B582B0002400941A4B1A6B15
:1004D80042F480021A631A6B02F480020092009AB6
:1004E80001941A6B42F400121A631B6B03F4001395
:1004F8000193019B224621460C2000F0B9FB0C20F9
:1005080000F0EEFB22462146102000F0B1FB10203F
:1005180000F0E6FB22462146392000F0A9FB3920ED
:1005280000F0DEFB224621463A2000F0A1FB3A20EB
:1005380000F0D6FB02B010BD0038024030B58BB0D9
:1005480000240594069407940894099401941E4B7A
:100558001A6B42F080021A631A6B02F08002019251
:10056800019A02941A6B42F004021A631A6B02F0A1
:1005780004020292029A03941A6B42F001021A636F
:100588001A6B02F001020392039A04941A6B42F068
:1005980002021A631B6B03F002030493049B0B4DC6
:1005A80001224FF48041284600F07EFD4FF480433D
:1005B8000593012306930794089405A9284600F09B
:1005C80081FC0BB030BD00BF00380240000402407F
:1005D80072B6FEE700B595B03022002108A801F0F8
:1005E800ADFD0023039304930593069307930193AA
:1005F800204A116C41F080511164126C02F0805253
:100608000192019A02931C4B1A6842F480421A60C4
:100618001B6803F480430293029B012308934FF461
:100628008033099302220E924FF480030F93042320
:100638001093A82111911292139308A800F03AFD83
:1006480098B90F23039302230493002305934FF4CF
:10065800A05306934FF480530793052103A800F095
:100668008FFF20B915B05DF804FBFFF7B1FFFFF766
:10067800AFFF00BF003802400070004010B500F026
:10068800A5FAFFF7A7FFFFF759FFFFF71BFF00F0D9
:100698001BF800F0B5F800F0CFF800F0EBF800F028
:1006A80007F901F08DFB002409E0002001F098FA19
:1006B800002001F0D9FA01340A2000F0B3FA022C24
:1006C800F3DD0024F8E7000008B50B480B4B036086
:1006D800002343608360C3600361436183610362F5
:1006E800436283620A23C36201F020F800B908BD9F
:1006F800FFF76EFFFBE700BF28000020003800402E
:10070800F0B589B0002303930493059306930793E8
:1007180002681F4B9A4201D009B0F0BD0024009432
:1007280003F500331A6C42F480421A641A6C02F41E
:1007380080420092009A01941A6B42F004021A63F4
:100748001A6B02F004020192019A02941A6B42F0A9
:1007580002021A631B6B03F002030293029B0C2331
:1007680003930227049703260696052507950DEBA4
:100778000301084800F0A6FB4FF440530393049785
:1007880005940696079503A9034800F09BFBC3E769
:1007980000380040000802400004024082B00021F6
:1007A80000910B4B5A6C42F480425A645A6C02F422
:1007B80080420092009A01911A6C42F080521A64A9
:1007C8001B6C03F080530193019B02B0704700BF7C
:1007D80000380240FEE7FEE7FEE7FEE7FEE7704767
:1007E8007047704708B500F00BFA08BD034AD2F805
:1007F800883043F47003C2F88830704700ED00E099
:1008080008B50A480A4B03600A4B4360002383601B
:10081800C36003610C2242618361C36101F0E1F8A6
:1008280000B908BDFFF7D4FEFBE700BF00020020B7
:1008380000100140003E490008B50B480B4B03600F
:100848000B4B436000238360C36003610C22426149
:1008580083614FF40043C36101F0C3F800B908BDD8
:10086800FFF7B6FEFBE700BF480200200044004047
:10087800003E490008B50B480B4B03600B4B436027
:1008880000238360C36003610C22426183614FF4DB
:100898000043C36101F0A5F800B908BDFFF798FE51
:1008A800FBE700BF9002002000480040003E4900DE
:1008B80008B50A480A4B03600A4B4360002383606B
:1008C800C36003610C2242618361C36101F089F84E
:1008D80000B908BDFFF77CFEFBE700BFD802002087
:1008E80000140140003E490030B58FB00446002393
:1008F80009930A930B930C930D930368904A9342C0
:100908000CD0904A93424ED08F4A934200F08F8089
:100918008E4A934200F0D0800FB030BD002501957B
:100928008B4B5A6C42F010025A645A6C02F0100257
:100938000192019A02951A6B42F001021A631B6B2D
:1009480003F001030293029B4FF4C063099302234F
:100958000A9303230C9307230D9309A97D4800F0FC
:10096800B1FA7D487D4B03604FF0006343608560BA
:10097800C5604FF48063036145618561C5610562A7
:10098800456200F039FA58B9734BE3639C6300225F
:100998001146252000F06CF9252000F0A1F9BBE7ED
:1009A800FFF716FEF0E700250395694B1A6C42F431
:1009B80000321A641A6C02F400320392039A049506
:1009C8001A6B42F001021A631B6B03F001030493D4
:1009D800049B0C23099302230A9303230C930723F4
:1009E8000D9309A95B4800F06DFA5D485D4B036003
:1009F8004FF0006343608560C5604FF48063036116
:100A080045618561C5610562456200F0F5F958B92F
:100A1800534BE3639C6300221146262000F028F91B
:100A2800262000F05DF977E7FFF7D2FDF0E7002513
:100A38000595474B1A6C42F480221A641A6C02F42A
:100A480080220592059A06951A6B42F002021A63F3
:100A58001B6B03F002030693069B4FF44063099354
:100A680002230A9303230C9307230D9309A93E48F5
:100A780000F028FA3D483E4B03604FF000634360A6
:100A88008560C5604FF48063036145618561C56118
:100A98000562456200F0B0F958B9344BE3639C63D2
:100AA80000221146272000F0E3F8272000F018F96B
:100AB80032E7FFF78DFDF0E700250795244B5A6CC8
:100AC80042F020025A645A6C02F020020792079AF8
:100AD80008951A6B42F004021A631B6B03F00403B7
:100AE8000893089BC023099302230A9303230C93BA
:100AF80008230D9309A91F4800F0E4F91E481F4B6D
:100B080003604FF0206343608560C5604FF48063E5
:100B1800036145618561C5610562456200F06CF954
:100B280058B9154BE3639C6300221146472000F037
:100B38009FF8472000F0D4F8EEE6FFF749FDF0E70C
:100B480000100140004400400048004000140140EB
:100B5800003802400000024080000020406402404B
:100B6800E0000020886002400004024040010020AC
:100B78002860024000080240A001002028640240CA
:100B880010B504460E4B18784FF47A73B3FBF0F3A4
:100B98000C4A1068B0FBF3F000F0B0F868B90F2CFD
:100BA80001D901200AE0002221464FF0FF3000F071
:100BB8005FF8054B1C60002000E0012010BD00BF5D
:100BC80004000020000000200800002008B50B4B9E
:100BD8001A6842F400721A601A6842F480621A6055
:100BE8001A6842F480721A60032000F02FF80F2070
:100BF800FFF7C6FFFFF7D2FD002008BD003C02400A
:100C0800034A1168034B1B780B441360704700BFFD
:100C18002003002004000020014B1868704700BF23
:100C28002003002038B50446FFF7F6FF0546B4F167
:100C3800FF3F02D0044B1B781C44FFF7EDFF401B1D
:100C4800A042FAD338BD00BF04000020074AD36889
:100C580023F4E0631B041B0C000200F4E060034370
:100C680043F0BF6343F40033D360704700ED00E006
:100C780000B5194BDB68C3F30223C3F1070CBCF1C1
:100C8800040F28BF4FF0040C03F1040EBEF1060F49
:100C980018D9033B4FF0FF3E0EFA0CFC21EA0C0179
:100CA80099400EFA03F322EA0303194300280BDBE9
:100CB8000901C9B200F1604000F5614080F80013F5
:100CC8005DF804FB0023E5E700F00F000901C9B255
:100CD800024B1954F4E700BF00ED00E014ED00E00A
:100CE800002807DB00F01F02400901239340024A55
:100CF80042F82030704700BF00E100E00138B0F151
:100D0800807F0BD24FF0E0235861054AF02182F82A
:100D180023100020986107221A617047012070474C
:100D280000ED00E010B40368D9B210390C4AA2FBF8
:100D3800014212090B4CA25CC2655F2909D923F450
:100D48007F7323F0030304338365806D5DF8044BE0
:100D5800704723F47F7323F003038365F5E700BF2F
:100D6800ABAAAAAA84210008836A826992B9012BD6
:100D78000AD0022B02D00BB100207047C36A13F0CF
:100D8800807F28D100207047C36AB3F1C07F24D088
:100D980000207047B2F5005F09D0022B25D9032B3C
:100DA80025D1C36A13F0807F23D100207047032B1D
:100DB80003D8DFE803F01404140A00207047C36A5C
:100DC80013F0807F0DD100207047C36AB3F1C07F54
:100DD80009D000207047012070470120704701208A
:100DE800704701207047012070470120704700209C
:100DF800704701207047000070B50446FFF70CFFEC
:100E0800002C5BD00546022384F83530002384F893
:100E180034302268136823F00103136023681A68CA
:100E280012F0010F0AD0FFF7F7FE431B052BF5D987
:100E380020236365032084F8350070BD1A682048B4
:100E480010406168A2680A43E1680A4321690A43BD
:100E580061690A43A1690A43E1690A43216A0A43AD
:100E68000243616A04291ED01A602668756925F054
:100E78000705636A1D43042B07D1A36A1D43E36A70
:100E88001BB12046FFF770FF90B975612046FFF748
:100E980049FFE26D3F239340836000206065012392
:100EA80084F83530C9E7E16A206B01430A43DBE780
:100EB80040236365012084F83500BEE70120BCE7C4
:100EC8003F8010F000230F2B00F2E48070B582B051
:100ED80060E085685E000324B44025EA0405CC6818
:100EE800B4402C438460456825EA02054C68C4F385
:100EF80000129A402A4342605AE0DC08083450F84D
:100F0800246003F0070295000F22AA4026EA020E89
:100F18000A69AA4042EA0E0240F824205CE007224F
:100F280000E0002202FA0EF22A4302345A4D45F834
:100F380024205A4A94686FEA0C0224EA0C054E6889
:100F480016F4801F01D04CEA0405544CA560E468EF
:100F580002EA04054E6816F4001F01D04CEA0405A5
:100F68004E4CE560646802EA04054E6816F4003FDA
:100F780001D04CEA0405494C6560246822404D685C
:100F880015F4803F01D04CEA0402444C226001333E
:100F98000F2B7DD801229A400C6804EA020C32EA31
:100FA8000404F4D14C6804F00304013C012C90D9EA
:100FB8004A6802F00302032A09D0C4685D000322CC
:100FC800AA4024EA02048A68AA402243C2604A6806
:100FD80002F00302022A90D004684FEA430E03226B
:100FE80002FA0EF224EA02044A6802F0030202FA44
:100FF8000EF2224302604A6812F4403FC7D0002232
:101008000192274A546C44F480445464526C02F4AC
:1010180080420192019A9C08A51C1F4A52F825504B
:1010280003F003024FEA820E0F2202FA0EF225EABB
:1010380002051C4A90423FF474AF02F58062904268
:101048001AD002F58062904218D002F58062904270
:1010580016D002F58062904214D002F58062904268
:1010680012D002F58062904210D002F58062904260
:101078003FF455AF082255E7012253E7022251E712
:1010880003224FE704224DE705224BE7062249E7F2
:1010980002B070BD704700BF00380140003C0140FD
:1010A80000380240000002400AB18161704709041B
:1010B80081617047002800F0E08170B582B0044675
:1010C800036813F0010F3BD09F4B9B6803F00C03A0
:1010D800042B2CD09C4B9B6803F00C03082B21D0CD
:1010E8006368B3F5803F4FD0B3F5A02F52D0964B2D
:1010F8001A6822F480321A601A6822F480221A6070
:101108006368002B50D0FFF787FD05468E4B1B68A0
:1011180013F4003F14D1FFF77FFD401B6428F5D975
:101128000320B1E1884B5B6813F4800FD8D0864B5D
:101138001B6813F4003F03D06368002B00F09F8105
:10114800236813F0020F54D07F4B9B6813F00C0FE9
:101158003ED07D4B9B6803F00C03082B33D0E3682B
:10116800002B68D0794B01221A60FFF755FD054620
:10117800754B1B6813F0020F54D1FFF74DFD401B50
:101188000228F5D903207FE16F4A136843F48033BE
:101198001360B5E76C4B1A6842F480221A601A682B
:1011A80042F480321A60ABE7FFF736FD0546664B1E
:1011B8001B6813F4003FC3D0FFF72EFD401B6428C3
:1011C800F5D9032060E1604B5B6813F4800FC6D14A
:1011D8005D4B1B6813F0020F03D0E368012B40F04E
:1011E8005081594A136823F0F803216943EAC1037F
:1011F8001360236813F0080F42D063696BB3534B35
:101208000122C3F8802EFFF707FD05464E4B5B6FA2
:1012180013F0020F34D1FFF7FFFC401B0228F5D969
:10122800032031E1484A136823F0F803216943EAAF
:10123800C1031360DDE7454B00221A60FFF7ECFCA1
:101248000546414B1B6813F0020FD2D0FFF7E4FCB0
:10125800401B0228F5D9032016E13C4B0022C3F8B5
:10126800802EFFF7D9FC0546374B5B6F13F0020F52
:1012780006D0FFF7D1FC401B0228F5D9032003E173
:10128800236813F0040F77D02F4B1B6C13F0805F8B
:1012980033D1002301932C4B1A6C42F080521A640C
:1012A8001B6C03F080530193019B0125284B1B689D
:1012B80013F4807F23D0A368012B34D0052B38D0BA
:1012C800214B1A6F22F001021A671A6F22F00402EA
:1012D8001A67A368002B3DD0FFF79EFC06461A4B01
:1012E8001B6F13F0020F46D1FFF796FC801B41F2EB
:1012F80088339842F3D90320C6E00025D6E7144A7C
:10130800136843F480731360FFF786FC0646104B9E
:101318001B6813F4807FCED1FFF77EFC801B022868
:10132800F5D90320B0E0084A136F43F001031367AF
:10133800CFE7054B1A6F42F004021A671A6F42F0A2
:1013480001021A67C5E700BF0038024000004742A3
:1013580000700040FFF760FC0646524B1B6F13F00D
:10136800020F08D0FFF758FC801B41F288339842DF
:10137800F3D9032088E0EDB9A369002B00F083803E
:10138800484A926802F00C02082A51D0022B17D062
:10139800454B00221A66FFF73FFC0446414B1B6889
:1013A80013F0007F42D0FFF737FC001B0228F5D965
:1013B800032069E03B4A136C23F080531364DBE796
:1013C800394B00221A66FFF727FC0546354B1B6888
:1013D80013F0007F06D0FFF71FFC401B0228F5D949
:1013E800032051E0E369226A1343626A43EA8213E5
:1013F800A26A5208013A43EA0243E26A43EA0263F4
:10140800284A5360284B01221A66FFF705FC044658
:10141800244B1B6813F0007F06D1FFF7FDFB001B70
:101428000228F5D903202FE000202DE000202BE032
:10143800012B2BD01B4B5B6803F48001E2699142BE
:1014480026D103F03F02216A8A4223D1616A47F616
:10145800C0721A40B2EB811F1ED103F44031A26A58
:101468005208013AB1EB024F18D103F07063E26AF7
:10147800B3EB026F14D1002006E001207047012071
:1014880002E0012000E0002002B070BD0120FBE76F
:101498000120F9E70120F7E70120F5E70120F3E74C
:1014A8000120F1E7003802400000474208B5314BFF
:1014B8009B6803F00C03042B57D0082B57D12D4BF6
:1014C8005A6802F03F025B6813F4800F2AD0294B58
:1014D8005968C1F3881C4FEA4C11B1EB0C006EEB54
:1014E8000E0E4FEA8E1343EA90638101091A63EBEB
:1014F8000E03DB0043EA5173C90011EB0C0C43F1F6
:101508000003590200234FEA4C2041EADC51FEF760
:1015180057FE184B5B68C3F3014301335B00B0FB14
:10152800F3F025E0134B5968C1F3881C4FEA4C11BE
:10153800B1EB0C006EEB0E0E4FEA8E1343EA90638C
:101548008101091A63EB0E03DB0043EA5173C900FA
:1015580011EB0C0C43F10003990200234FEA8C2095
:1015680041EA9C51FEF72CFED3E7034800E003480C
:1015780008BD00BF0038024000127A000024F400C1
:10158800002800F09B8070B50D4604464F4B1B6841
:1015980003F007038B4208D2CBB24C4A137013688E
:1015A80003F007038B4240F08B80236813F0020F8F
:1015B80017D013F0040F04D0454A936843F4E0535E
:1015C8009360236813F0080F04D0414A936843F4EA
:1015D800604393603E4A936823F0F003A1680B438D
:1015E8009360236813F0010F32D06368012B21D078
:1015F8009A1E012A25D9364A126812F0020F61D0C4
:1016080033498A6822F0030213438B60FFF704FB17
:1016180006462F4B9B6803F00C036268B3EB820FFE
:1016280016D0FFF7F9FA801B41F288339842F0D9B7
:10163800032042E0264A126812F4003FE0D101205C
:101648003BE0234A126812F0007FD9D1012034E030
:101658001E4B1B6803F00703AB4207D9EAB21B4BCA
:101668001A701B6803F00703AB422DD1236813F0EF
:10167800040F06D0164A936823F4E053E1680B433D
:101688009360236813F0080F07D0114A936823F476
:101698006043216943EAC1039360FFF707FF0C4BDE
:1016A8009B68C3F303130B4AD35CD8400A4B1860FA
:1016B8000A4B1868FFF764FA002070BD01207047D4
:1016C8000120FAE70120F8E70120F6E7003C024094
:1016D800003802406C2100080000002008000020AB
:1016E800014B1868704700BF0000002008B5FFF7DD
:1016F800F7FF044B9B68C3F38223034AD35CD840AB
:1017080008BD00BF003802407C21000808B5FFF77B
:10171800E7FF044B9B68C3F34233034AD35CD840CA
:1017280008BD00BF003802407C21000800285AD0BC
:1017380010B50446436A33B94368B3F5827F05D0D0
:101748000023C36102E00023036143610023A36215
:1017580094F85130002B40D0022384F8513022688D
:10176800136823F040031360636803F48273A2686C
:1017780002F404421343E26802F40062134322694C
:1017880002F002021343626902F001021343A269E4
:1017980002F400721343E26902F038021343226A2A
:1017A80002F080021343A26A02F400522168134334
:1017B8000B60638B03F00403626A02F01002216875
:1017C80013434B602268D36923F40063D36100207C
:1017D8006065012384F8513010BD84F850302046EC
:1017E800FEF78EFFB8E701207047026802F10C038C
:1017F80053E8003F23F490730C3242E8003100298B
:10180800F3D1026802F1140353E8003F23F0010307
:10181800143242E800310029F3D1036B012B05D0C3
:10182800202380F84230002303637047026802F1E6
:101838000C0353E8003F23F010030C3242E8003158
:101848000029F3D1ECE7000038B5044602681369B3
:1018580023F44053C1680B4313618368026913433F
:1018680042691343C2691A430168CB6823F41643DB
:1018780023F00C031343CB600268536923F44073CD
:1018880081690B4353610368314A934206D002F5DC
:101898008062934202D0FFF729FF01E0FFF736FF8D
:1018A800E369B3F5004F29D00021031849411B18FB
:1018B80041F10001C90041EA5371DB00181863685F
:1018C8004FEA83024FEA937341F10001FEF778FC77
:1018D800204DA5FB00325109642303FB11031B01B2
:1018E8003233A5FB03235B0903F0F00202EB01127C
:1018F80003F00F03216813448B6038BD00230218DE
:1019080043EB0301121841F10001C90041EA527189
:10191800D200101841F10001626892185B41FEF78D
:101928004FFC0C4DA5FB00325109642303FB110346
:10193800DB003233A5FB03235B095A0002F4F8727B
:1019480002EB011203F00703216813448B60D4E70C
:10195800001001401F85EB512DE9F04383B0054687
:101968000E4617469946DDF828802C68246836EA22
:1019780004030CBF4FF0010C4FF0000CBC4528D1FC
:10198800B8F1FF3FF1D0FFF747F9A0EB0900404558
:1019980023D8B8F1000F22D02B68DA6812F0040FB0
:1019A800E3D0802EE1D0402EDFD01A6812F0080F65
:1019B800DBD0002401941A6801925B680193019BB3
:1019C8002846FFF712FF08236B6485F84040012082
:1019D80000E0002003B0BDE8F0830320FAE703200D
:1019E800F8E760B310B5044690F8413013B32423E8
:1019F80084F841302268D36823F40053D36020462A
:101A0800FFF722FF2268136923F4904313612268C9
:101A1800536923F02A0353612268D36843F40053BF
:101A2800D36000206064202384F8413084F8423079
:101A3800606310BD80F84030FEF756FFD7E70120FD
:101A480070472DE9F04182B01E4690F84130DBB274
:101A5800202B56D104460D469046002955D00AB988
:101A680001204FE000234364212380F84130FFF731
:101A7800D3F80746A4F82480A4F82680A368B3F511
:101A8800805F02D04FF0000814E023692BB34FF0B9
:101A980000080FE0202384F84130032032E038F8B2
:101AA800023B2268C3F308035360E28C92B2013A06
:101AB80092B2E284E38C9BB293B100963B4600223B
:101AC80080212046FFF748FF0028E3D1002DE6D00B
:101AD80015F8012B23685A60E7E7A8460025E9E7CF
:101AE80000963B46002240212046FFF735FF18B9F3
:101AF800202384F8413005E0202384F84130032076
:101B080000E0022002B0BDE8F0810120FAE7000001
:101B180010B4164B1B685C6944F040045C61DC68D7
:101B280044F01004DC60124B1C68236823F00103A6
:101B3800236003E01C6824F001041C600C4B1B6844
:101B48001C6814F0010FF5D10A4C9C60D86019612B
:101B58005A601A6842F480221A60054B1A681368A2
:101B680043F0010313605DF8044B70470002002046
:101B7800800000200410014010B4164B1C68236834
:101B880023F001032360144B1B685C6944F0400494
:101B98005C61DC6844F01004DC6003E01C6824F03D
:101BA80001041C600B4B1B681C6814F0010FF5D175
:101BB8000A4C9C60D86019615A601A6842F4802205
:101BC8001A60044B1A68136843F0010313605DF848
:101BD800044B7047A0010020D802002004140140E3
:101BE8000A4B22225A8400229A840122DA840A2289
:101BF8001A850022C3F83620C3F83A20C3F83220E9
:101C0800C3F82E20C3F82A20704700BF2403002001
:101C180030B505468E464FF0FF304FF0000C17E008
:101C2800104C84EA400006E0520801331F2B0DD8FF
:101C38000028F5DB40000A42F6D080F0986080F476
:101C48008E3080F4DB7080F00100EDE70CF1010CC0
:101C5800F44505D255F82C104FF000420023E5E773
:101C680030BD00BFB71DC10470B58AB005463E4BF4
:101C780000EB401203EB4204FE2103F81210EE239E
:101C88006370E38CA3700023E370228D2271FF221E
:101C98006271A371E3710022A260D4F82A2007EED2
:101CA800902AFEEECC7A17EE902AA281D4F82E2044
:101CB80007EE902AFEEEEC7A17EE902AE281D4F82D
:101CC80032209FED2A7A07EE902AC7EE877AFEEE39
:101CD800C97A17EE902A2261D4F8362007EE902AA6
:101CE800FEEEEA7A17EE902AA282D4F83A2007EE9E
:101CF800902AFEEECB7A17EE902AE282237663765C
:101D0800D4F83E30C4F81A3007212046FFF780FF88
:101D1800C4F81E00A44601AE2034B646DCF8000024
:101D2800DCF80410DCF80820DCF80C30AEE80F0012
:101D38000CF1100C7646A445EFD1BCF80030AEF893
:101D480000301DB1012D08D00AB070BD0123222238
:101D580001A90748FFF775FEF6E70123222201A92A
:101D68000448FFF76EFEEFE724030020F90FC9408F
:101D780000020020D8020020034600B3F9B182789F
:101D88000A70C2794A70407B1A7B42EA00224A8074
:101D9800D87B9A7B42EA00228A80187FDA7E42EA60
:101DA8000022CA8093F8210093F82020120442EA06
:101DB8000062D87F42EA00229B7F1A438A607047FC
:101DC80038B5074C04F18005802229462046FFF7E4
:101DD8009FFE802229462046FFF7CEFE38BD00BF71
:101DE800F40F002030B52F4A4FF4D27303FB0022C2
:101DF80092F8981100EB00142B4B03EBC403997075
:101E080092F89951DD71B2F99AE1A3F80CE0B2F9B0
:101E18009CC1A3F80EC0B2F99E415C83D2F8A02100
:101E2800C3F81E2083F852109D6507EE90EAF8EE7D
:101E3800E76ADFED1E7A66EEA76A16EE90EAC3F847
:101E48005CE007EE90CAB8EEE77ADFED197A27EE84
:101E5800277A17EE10CAC3F860C0DC6607EE902A2E
:101E6800F8EEE77A9FED136A67EE867A9FED126ABD
:101E780067EE867A17EE902A5A66104A01EB01132C
:101E88004FF4CC7C0CFB00F000EBC303134483F845
:101E980052109D65C3ED176A83ED187ADC66C3EDB1
:101EA800197A30BDAC0C00202C0400200000803BC7
:101EB8000000003C00008038F90FC9404C060020A3
:101EC80000B583B0324B1B681A6812F0200F09D096
:101ED800002200921A6800925B680093009B03B08E
:101EE8005DF804FB2B4A126812F0100FF7D000229D
:101EF80001921A6801925B680193019B264B1B684B
:101F08001A6812F4002F20D11A6822F001021A6010
:101F1800214802685368C3F180039BB21F490B80B4
:101F280080215160116841F40021116001680A683C
:101F380042F001020A604E2BD1D119491948FFF726
:101F48001BFF0020FFF74EFFC9E71A6822F00102C5
:101F58001A60114908684368C3F180030F4A138067
:101F6800802343601048036C23F40023036409684A
:101F78000B6843F001030B6013884E2BAFD108495F
:101F88000A48FFF7F9FE0020FFF72CFFA7E700BF7C
:101F9800000200200010014080000020F610002000
:101FA800440E0020F40F002000640240741000204A
:101FB80000B583B0324B1B681A6812F0200F09D0A5
:101FC800002200921A6800925B680093009B03B09D
:101FD8005DF804FB2B4A126812F0100FF7D00022AC
:101FE80001921A6801925B680193019B264B1B685A
:101FF8001A6812F4002F20D11A6822F001021A6020
:10200800214802685368C3F180039BB21F490B80C3
:1020180080215160116841F40021116001680A684B
:1020280042F001020A604E2BD1D119491948FFF735
:10203800A3FE0120FFF7D6FEC9E71A6822F00102C5
:102048001A60114908684368C3F180030F4A138076
:10205800802343601048836A23F40023836209685D
:102068000B6843F001030B6013884E2BAFD108496E
:102078000A48FFF781FE0120FFF7B4FEA7E700BF7B
:10208800D802002000140140A0010020F410002014
:10209800E80F0020F40F00200064024074100020B4
:1020A800DFF834D0FEF7A2FB0C480D490D4A002397
:1020B80002E0D458C4500433C4188C42F9D30A4AF5
:1020C8000A4C002301E013600432A242FBD300F063
:1020D80011F8FEF7D3FA7047000002200000002034
:1020E8000C0000209C2100080C000020F8100020A3
:1020F800FEE7000070B50D4D0D4C641BA4100026C2
:10210800A64209D10B4D0C4C00F020F8641BA4101A
:102118000026A64205D170BD55F8043B9847013604
:10212800EEE755F8043B98470136F2E7942100089A
:1021380094210008942100089821000802440346CD
:10214800934200D1704703F8011BF9E7F8B500BFC7
:10215800F8BC08BC9E467047F8B500BFF8BC08BC80
:042168009E467047D8
:10216C00000000000000000001020304060708093B
:10217C0000000000010203040006101600061016F1
:08218C006CE0FF7F0100000080
:04219400AD01000891
:0421980089010008B1
:0C219C000024F40001000000100000000E
:04000005080020A926
:00000001FF
