:020000040800F2
:10000000000002209D2D00089508000897080008B0
:10001000990800089B0800089D08000800000000DF
:100020000000000000000000000000009F08000821
:10003000A108000800000000A3080008A5080008A7
:10004000ED2D0008ED2D0008ED2D0008ED2D000828
:10005000ED2D0008ED2D0008ED2D0008ED2D000818
:10006000ED2D0008ED2D0008ED2D0008ED2D000808
:10007000ED2D0008ED2D0008AD080008BD080008B2
:10008000ED2D0008ED2D0008ED2D0008ED2D0008E8
:10009000ED2D0008ED2D0008ED2D0008ED2D0008D8
:1000A000ED2D0008ED2D0008ED2D0008ED2D0008C8
:1000B000ED2D0008ED2D0008ED2D0008ED2D0008B8
:1000C000ED2D0008ED2D0008ED2D0008ED2D0008A8
:1000D000BD2C0008D1250008CD260008CD2700083A
:1000E000ED2D0008ED2D0008ED2D0008ED2D000888
:1000F000ED2D0008ED2D0008ED2D0008ED2D000878
:10010000ED2D0008ED2D0008ED2D0008ED2D000867
:10011000ED2D0008ED2D0008ED2D0008ED2D000857
:10012000ED2D0008ED2D0008ED2D0008ED2D000847
:10013000ED2D00080000000000000000ED2D00087B
:10014000ED2D0008ED2D0008ED2D0008ED2D000827
:10015000ED2D0008ED2D0008ED2D0008CD2800083C
:10016000ED2D0008ED2D0008ED2D0008ED2D000807
:10017000ED2D0008ED2D000800000000000000003B
:08018000ED2D0008ED2D000833
:1001880010B5054C237833B9044B13B10448AFF3C9
:1001980000800123237010BD0C0000200000000027
:1001A800482E000808B5034B1BB103490348AFF3B9
:1001B800008008BD0000000010000020482E000844
:1001C80053B94AB9002908BF00281CBF4FF0FF31B6
:1001D8004FF0FF3000F074B9ADF1080C6DE904CEB2
:1001E80000F006F8DDF804E0DDE9022304B070470A
:1001F8002DE9F047089D04468E46002B4DD18A42D2
:10020800944669D9B2FA82F252B101FA02F3C2F104
:10021800200120FA01F10CFA02FC41EA030E944095
:100228004FEA1C48210CBEFBF8F61FFA8CF708FBB6
:1002380016E341EA034306FB07F199420AD91CEB8E
:10024800030306F1FF3080F01F81994240F21C81C0
:10025800023E63445B1AA4B2B3FBF8F008FB103308
:1002680044EA034400FB07F7A7420AD91CEB04043D
:1002780000F1FF3380F00A81A74240F2078164440D
:10028800023840EA0640E41B00261DB1D440002392
:10029800C5E900433146BDE8F0878B4209D9002DF6
:1002A80000F0EF800026C5E9000130463146BDE880
:1002B800F087B3FA83F6002E4AD18B4202D38242EA
:1002C80000F2F980841A61EB030301209E46002D99
:1002D800E0D0C5E9004EDDE702B9FFDEB2FA82F2EE
:1002E800002A40F09280A1EB0C014FEA1C471FFA4C
:1002F8008CFE0126200CB1FBF7F307FB131140EA33
:1003080001410EFB03F0884208D91CEB010103F1FF
:10031800FF3802D2884200F2CB804346091AA4B2C1
:10032800B1FBF7F007FB101144EA01440EFB00FE95
:10033800A64508D91CEB040400F1FF3102D2A645FA
:1003480000F2BB800846A4EB0E0440EA03409CE799
:10035800C6F12007B34022FA07FC4CEA030C20FA46
:1003680007F401FA06F31C43F9404FEA1C4900FA66
:1003780006F3B1FBF9F8200C1FFA8CFE09FB1811E3
:1003880040EA014108FB0EF0884202FA06F20BD956
:100398001CEB010108F1FF3A80F08880884240F2A6
:1003A8008580A8F102086144091AA4B2B1FBF9F0EA
:1003B80009FB101144EA014100FB0EFE8E4508D9E5
:1003C8001CEB010100F1FF346CD28E456AD902386A
:1003D800614440EA0840A0FB0294A1EB0E01A1424F
:1003E800C846A64656D353D05DB1B3EB080261EBBD
:1003F8000E0101FA07F722FA06F3F1401F43C5E997
:10040800007100263146BDE8F087C2F12003D840CC
:100418000CFA02FC21FA03F3914001434FEA1C470E
:100428001FFA8CFEB3FBF7F007FB10360B0C43EA00
:10043800064300FB0EF69E4204FA02F408D91CEBB0
:10044800030300F1FF382FD29E422DD902386344AE
:100458009B1B89B2B3FBF7F607FB163341EA03414E
:1004680006FB0EF38B4208D91CEB010106F1FF389D
:1004780016D28B4214D9023E6144C91A46EA004694
:1004880038E72E46284605E70646E3E61846F8E626
:100498004B45A9D2B9EB020864EB0C0E0138A3E76F
:1004A8004646EAE7204694E74046D1E7D0467BE750
:1004B800023B614432E7304609E76444023842E7C8
:1004C800704700BF10B582B000240094224B1A6B0D
:1004D80042F480021A631A6B02F480020092009AB6
:1004E80001941A6B42F400121A631B6B03F4001395
:1004F8000193019B224621460C2000F011FC0C20A0
:1005080000F046FC224621460E2000F009FC0E2091
:1005180000F03EFC224621460F2000F001FC0F208F
:1005280000F036FC22462146102000F0F9FB10208E
:1005380000F02EFC22462146392000F0F1FB39203C
:1005480000F026FC224621463A2000F0E9FB3A203A
:1005580000F01EFC02B010BD0038024030B58BB070
:1005680000240594069407940894099401941E4B5A
:100578001A6B42F080021A631A6B02F08002019231
:10058800019A02941A6B42F004021A631A6B02F081
:1005980004020292029A03941A6B42F001021A634F
:1005A8001A6B02F001020392039A04941A6B42F048
:1005B80002021A631B6B03F002030493049B0B4DA6
:1005C80001224FF48041284600F000FF4FF4804399
:1005D8000593012306930794089405A9284600F07B
:1005E80003FE0BB030BD00BF0038024000040240DB
:1005F80072B6FEE700B595B03022002108A802F0D7
:1006080017FC002303930493059306930793019320
:10061800204A116C41F080511164126C02F0805232
:100628000192019A02931C4B1A6842F480421A60A4
:100638001B6803F480430293029B012308934FF441
:100648008033099302220E924FF480030F93042300
:100658001093A82111911292139308A800F0C6FED6
:1006680098B90F23039302230493002305934FF4AF
:10067800A05306934FF480530793052103A801F074
:100688001BF920B915B05DF804FBFFF7B1FFFFF7C0
:10069800AFFF00BF003802400070004008B500F00E
:1006A80001FBFFF7A7FFFFF759FFFFF70BFF00F06C
:1006B80019F800F011F900F02BF900F047F900F0F3
:1006C80063F901F01DFF02F0E9F9002001F058FE7E
:1006D800012001F055FE022001F052FE032001F036
:1006E8004FFEF2E708B50D480D4B03604FF48273D7
:1006F800436000238360C360036143614FF4802239
:100708008261C3610362436283620A23C36201F0A8
:1007180053FA00B908BDFFF76BFFFBE7E8000020BC
:10072800003800402DE9F04188B00023039304937A
:1007380005930693079302683F4B9A4202D008B08C
:10074800BDE8F08104460025009503F500331A6CD6
:1007580042F480421A641A6C02F480420092009AB1
:1007680001951A6B42F004021A631A6B02F0040234
:100778000192019A02951A6B42F002021A631B6BEE
:1007880003F002030293029B0C2303934FF0020829
:10079800CDF8108003270697052607960DEB030171
:1007A800264800F021FD4FF440530393CDF8108004
:1007B80005950697079603A9214800F015FD2148DD
:1007C800214B036045608560C5604FF48063036119
:1007D80045618561C5614FF400330362456200F0ED
:1007E80079FB18BB174BE3649C631848184B0360EC
:1007F8000023436040228260C3604FF4806202613C
:1008080043618361C3614FF480320262436200F046
:1008180061FB70B90D4BA3649C6300220221242064
:1008280000F07EFA242000F0B3FA88E7FFF7E0FE34
:10083800D8E7FFF7DDFEEDE700380040000802408A
:100848000004024028000020586002408800002070
:100858007060024082B0002100910B4B5A6C42F448
:1008680080425A645A6C02F480420092009A0191C4
:100878001A6C42F080521A641B6C03F08053019387
:10088800019B02B0704700BF00380240FEE7FEE758
:10089800FEE7FEE7FEE770477047704708B500F0CF
:1008A8001BFA08BD08B5024800F0B0FB08BD00BF40
:1008B8002800002008B5024800F0A8FB08BD00BFCA
:1008C80088000020034AD2F8883043F47003C2F845
:1008D8008830704700ED00E008B50A480A4B03600D
:1008E8000A4B436000238360C36003610C224261AA
:1008F8008361C36101F079FB00B908BDFFF778FE99
:10090800FBE700BFC002002000100140003E490084
:1009180008B50B480B4B03600B4B43600023836007
:10092800C36003610C22426183614FF40043C361D9
:1009380001F05BFB00B908BDFFF75AFEFBE700BFFB
:100948000803002000440040003E490008B50B4859
:100958000B4B03600B4B436000238360C360036150
:100968000C22426183614FF40043C36101F03DFBF7
:1009780000B908BDFFF73CFEFBE700BF50030020AD
:1009880000480040003E490008B50A480A4B036089
:100998000A4B436000238360C36003610C224261F9
:1009A8008361C36101F021FB00B908BDFFF720FE98
:1009B800FBE700BF9803002000140140003E4900F7
:1009C80030B58FB00446002309930A930B930C9318
:1009D8000D930368904A93420CD0904A93424ED0AC
:1009E8008F4A934200F08F808E4A934200F0D08065
:1009F8000FB030BD002501958B4B5A6C42F01002A8
:100A08005A645A6C02F010020192019A02951A6B0C
:100A180042F001021A631B6B03F001030293029B6D
:100A28004FF4C063099302230A9303230C9307230B
:100A38000D9309A97D4800F0D7FB7D487D4B0360E5
:100A48004FF0006343608560C5604FF480630361C5
:100A580045618561C5610562456200F03BFA58B998
:100A6800734BE3639C6300220321252000F058F9AF
:100A7800252000F08DF9BBE7FFF7BAFDF0E7002568
:100A88000395694B1A6C42F400321A641A6C02F42A
:100A980000320392039A04951A6B42F001021A631A
:100AA8001B6B03F001030493049B0C23099302239B
:100AB8000A9303230C9307230D9309A95B4800F0BD
:100AC80093FB5D485D4B03604FF0006343608560B6
:100AD800C5604FF48063036145618561C561056246
:100AE800456200F0F7F958B9534BE3639C63002261
:100AF8000321262000F014F9262000F049F977E7B1
:100B0800FFF776FDF0E700250595474B1A6C42F490
:100B180080221A641A6C02F480220592059A0695BE
:100B28001A6B42F002021A631B6B03F0020306936E
:100B3800069B4FF44063099302230A9303230C9303
:100B480007230D9309A93E4800F04EFB3D483E4B54
:100B580003604FF0006343608560C5604FF48063B5
:100B6800036145618561C5610562456200F0B2F9BE
:100B780058B9344BE3639C6300220321272000F01B
:100B8800CFF8272000F004F932E7FFF731FDF0E74E
:100B980000250795244B5A6C42F020025A645A6C7F
:100BA80002F020020792079A08951A6B42F0040295
:100BB8001A631B6B03F004030893089BC023099373
:100BC80002230A9303230C9308230D9309A91F48B2
:100BD80000F00AFB1E481F4B03604FF02063436080
:100BE8008560C5604FF48063036145618561C561B7
:100BF8000562456200F06EF958B9154BE3639C63D2
:100C080000220321472000F08BF8472000F0C0F8AD
:100C1800EEE6FFF7EDFCF0E700100140004400406D
:100C28000048004000140140003802400000024023
:100C38004001002040640240A0010020886002407A
:100C48000004024000020020286002400008024020
:100C5800600200202864024010B504460E4B187844
:100C68004FF47A73B3FBF0F30C4A1068B0FBF3F05F
:100C780000F09CF868B90F2C01D901200AE0002285
:100C880021464FF0FF3000F04BF8054B1C60002068
:100C980000E0012010BD00BF04000020000000207B
:100CA8000800002008B50B4B1A6842F400721A605D
:100CB8001A6842F480621A601A6842F480721A60F4
:100CC800032000F01BF80F20FFF7C6FFFFF7C2FD57
:100CD800002008BD003C0240034A1168034B1B7802
:100CE8000B441360704700BFE0030020040000209D
:100CF800014B1868704700BFE0030020074AD3681B
:100D080023F4E0631B041B0C000200F4E0600343BF
:100D180043F0BF6343F40033D360704700ED00E055
:100D280000B5194BDB68C3F30223C3F1070CBCF110
:100D3800040F28BF4FF0040C03F1040EBEF1060F98
:100D480018D9033B4FF0FF3E0EFA0CFC21EA0C01C8
:100D580099400EFA03F322EA0303194300280BDB38
:100D68000901C9B200F1604000F5614080F8001344
:100D78005DF804FB0023E5E700F00F000901C9B2A4
:100D8800024B1954F4E700BF00ED00E014ED00E059
:100D9800002807DB00F01F02400901239340024AA4
:100DA80042F82030704700BF00E100E00138B0F1A0
:100DB800807F0BD24FF0E0235861054AF02182F87A
:100DC80023100020986107221A617047012070479C
:100DD80000ED00E030B405682C6824F480242C6011
:100DE800046863608368402B05D0036899600368D2
:100DF800DA6030BC704703689A600368D960F8E726
:100E080010B40368D9B210390C4AA2FB0142120986
:100E18000B4CA25CC2655F2909D923F47F7323F0C8
:100E2800030304338365806D5DF8044B704723F436
:100E38007F7323F003038365F5E700BFABAAAAAA73
:100E4800782E0008836A826992B9012B0AD0022B96
:100E580002D00BB100207047C36A13F0807F28D1FD
:100E680000207047C36AB3F1C07F24D000207047C8
:100E7800B2F5005F09D0022B25D9032B25D1C36A0F
:100E880013F0807F23D100207047032B03D8DFE8BD
:100E980003F01404140A00207047C36A13F0807F1B
:100EA8000DD100207047C36AB3F1C07F09D000207C
:100EB80070470120704701207047012070470120CA
:100EC80070470120704701207047002070470120BB
:100ED8007047000070B50446FFF70AFF002C5BD08E
:100EE8000546022384F83530002384F8343022681C
:100EF800136823F00103136023681A6812F0010FC6
:100F08000AD0FFF7F5FE431B052BF5D920236365AF
:100F1800032084F8350070BD1A68204810406168C5
:100F2800A2680A43E1680A4321690A4361690A43DE
:100F3800A1690A43E1690A43216A0A430243616AD3
:100F480004291ED01A602668756925F00705636AAA
:100F58001D43042B07D1A36A1D43E36A1BB1204636
:100F6800FFF770FF90B975612046FFF749FFE26D02
:100F78003F239340836000206065012384F8353067
:100F8800C9E7E16A206B01430A43DBE74023636555
:100F9800012084F83500BEE70120BCE73F8010F04F
:100FA80038B50446856D90F8340001282BD001200F
:100FB80084F8340094F83500C0B2012804D0002326
:100FC80084F83430022038BD022084F8350000202F
:100FD80060652046FFF7FEFEE26D3F239340AB605D
:100FE8002268136843F016031360236C23B1226848
:100FF800136843F0080313602268136843F0010381
:1010080013600020DFE70220DDE70000F0B583B0C1
:10101800044600230193724B1D68724BA3FB0535F0
:10102800AD0A876D3E68C26D08239340334210D0E5
:1010380003681A6812F0040F0BD01A6822F0040231
:101048001A60C26D08239340BB60436D43F00103EF
:101058004365E26D01239340334209D02268526907
:1010680012F0800F04D0BB60636D43F00203636528
:10107800E26D04239340334209D02268126812F0CB
:10108800020F04D0BB60636D43F004036365E26D37
:1010980010239340334224D02268126812F0080FBC
:1010A8001FD0BB6023681A6812F4802F0DD01B680C
:1010B80013F4002F04D1236C9BB12046984710E00D
:1010C800A36C73B1204698470BE01A6812F4807F2E
:1010D80003D11A6822F008021A60236C0BB120466B
:1010E8009847E26D20239340334255D02268126816
:1010F80012F0100F50D0BB6094F83530DBB2052BDE
:101108000ED023681A6812F4802F33D01B6813F4AA
:10111800002F2AD1636C002B3ED0204698473BE035
:101128002268136823F0160313602268536923F0BA
:1011380080035361236CA3B12268136823F008036A
:101148001360E26D3F239340BB60012384F8353080
:10115800002384F83430236D002B3FD02046984775
:101168003CE0A36C002BE7D1EBE7E36BA3B120468F
:10117800984711E01A6812F4807F09D11A6822F0A2
:1011880010021A60012384F83530002384F83430C3
:10119800E36B0BB120469847636DFBB1636D13F0A9
:1011A800010F17D0052384F835302268136823F01F
:1011B80001031360019B01330193AB4204D82368F8
:1011C8001B6813F0010FF5D1012384F83530002393
:1011D80084F83430E36C0BB12046984703B0F0BD77
:1011E80000000020B5814E1B00230F2B00F2E48085
:1011F80070B582B060E085685E000324B44025EADB
:101208000405CC68B4402C438460456825EA02058F
:101218004C68C4F300129A402A4342605AE0DC0842
:10122800083450F8246003F0070295000F22AA4002
:1012380026EA020E0A69AA4042EA0E0240F8242071
:101248005CE0072200E0002202FA0EF22A43023490
:101258005A4D45F824205A4A94686FEA0C0224EA49
:101268000C054E6816F4801F01D04CEA0405544C56
:10127800A560E46802EA04054E6816F4001F01D070
:101288004CEA04054E4CE560646802EA04054E68C1
:1012980016F4003F01D04CEA0405494C6560246807
:1012A80022404D6815F4803F01D04CEA0402444CBA
:1012B800226001330F2B7DD801229A400C6804EA82
:1012C800020C32EA0404F4D14C6804F00304013C33
:1012D800012C90D94A6802F00302032A09D0C46895
:1012E8005D000322AA4024EA02048A68AA40224335
:1012F800C2604A6802F00302022A90D004684FEAEA
:10130800430E032202FA0EF224EA02044A6802F0AB
:10131800030202FA0EF2224302604A6812F4403FC6
:10132800C7D000220192274A546C44F48044546484
:10133800526C02F480420192019A9C08A51C1F4A33
:1013480052F8255003F003024FEA820E0F2202FAE8
:101358000EF225EA02051C4A90423FF474AF02F5EA
:10136800806290421AD002F58062904218D002F54D
:101378008062904216D002F58062904214D002F545
:101388008062904212D002F58062904210D002F53D
:10139800806290423FF455AF082255E7012253E797
:1013A800022251E703224FE704224DE705224BE7CB
:1013B800062249E702B070BD704700BF00380140FF
:1013C800003C014000380240000002400AB181613F
:1013D8007047090481617047436901EA030221EA01
:1013E800030141EA0241816170470000002800F0D2
:1013F800E08170B582B00446036813F0010F3BD05A
:101408009F4B9B6803F00C03042B2CD09C4B9B68D0
:1014180003F00C03082B21D06368B3F5803F4FD04D
:10142800B3F5A02F52D0964B1A6822F480321A6076
:101438001A6822F480221A606368002B50D0FFF7E4
:1014480057FC05468E4B1B6813F4003F14D1FFF779
:101458004FFC401B6428F5D90320B1E1884B5B6839
:1014680013F4800FD8D0864B1B6813F4003F03D0C9
:101478006368002B00F09F81236813F0020F54D09B
:101488007F4B9B6813F00C0F3ED07D4B9B6803F09D
:101498000C03082B33D0E368002B68D0794B01226A
:1014A8001A60FFF725FC0546754B1B6813F0020F01
:1014B80054D1FFF71DFC401B0228F5D903207FE11A
:1014C8006F4A136843F480331360B5E76C4B1A68AE
:1014D80042F480221A601A6842F480321A60ABE73C
:1014E800FFF706FC0546664B1B6813F4003FC3D0A4
:1014F800FFF7FEFB401B6428F5D9032060E1604B31
:101508005B6813F4800FC6D15D4B1B6813F0020FA4
:1015180003D0E368012B40F05081594A136823F047
:10152800F803216943EAC1031360236813F0080F25
:1015380042D063696BB3534B0122C3F8802EFFF787
:10154800D7FB05464E4B5B6F13F0020F34D1FFF704
:10155800CFFB401B0228F5D9032031E1484A136824
:1015680023F0F803216943EAC1031360DDE7454B23
:1015780000221A60FFF7BCFB0546414B1B6813F0BD
:10158800020FD2D0FFF7B4FB401B0228F5D9032085
:1015980016E13C4B0022C3F8802EFFF7A9FB054655
:1015A800374B5B6F13F0020F06D0FFF7A1FB401B10
:1015B8000228F5D9032003E1236813F0040F77D03C
:1015C8002F4B1B6C13F0805F33D1002301932C4BFE
:1015D8001A6C42F080521A641B6C03F0805301931A
:1015E800019B0125284B1B6813F4807F23D0A36837
:1015F800012B34D0052B38D0214B1A6F22F0010271
:101608001A671A6F22F004021A67A368002B3DD0EC
:10161800FFF76EFB06461A4B1B6F13F0020F46D1FD
:10162800FFF766FB801B41F288339842F3D9032009
:10163800C6E00025D6E7144A136843F480731360A4
:10164800FFF756FB0646104B1B6813F4807FCED17C
:10165800FFF74EFB801B0228F5D90320B0E0084AAB
:10166800136F43F001031367CFE7054B1A6F42F07E
:1016780004021A671A6F42F001021A67C5E700BF31
:10168800003802400000474200700040FFF730FB7E
:101698000646524B1B6F13F0020F08D0FFF728FBCA
:1016A800801B41F288339842F3D9032088E0EDB9D2
:1016B800A369002B00F08380484A926802F00C026C
:1016C800082A51D0022B17D0454B00221A66FFF783
:1016D8000FFB0446414B1B6813F0007F42D0FFF715
:1016E80007FB001B0228F5D9032069E03B4A136C6D
:1016F80023F080531364DBE7394B00221A66FFF7A7
:10170800F7FA0546354B1B6813F0007F06D0FFF744
:10171800EFFA401B0228F5D9032051E0E369226A59
:101728001343626A43EA8213A26A5208013A43EAFF
:101738000243E26A43EA0263284A5360284B0122C3
:101748001A66FFF7D5FA0446244B1B6813F0007F8E
:1017580006D1FFF7CDFA001B0228F5D903202FE0A8
:1017680000202DE000202BE0012B2BD01B4B5B68C9
:1017780003F48001E269914226D103F03F02216A15
:101788008A4223D1616A47F6C0721A40B2EB811FC0
:101798001ED103F44031A26A5208013AB1EB024F5C
:1017A80018D103F07063E26AB3EB026F14D1002022
:1017B80006E001207047012002E0012000E000203F
:1017C80002B070BD0120FBE70120F9E70120F7E72F
:1017D8000120F5E70120F3E70120F1E70038024096
:1017E8000000474208B5314B9B6803F00C03042BFB
:1017F80057D0082B57D12D4B5A6802F03F025B682F
:1018080013F4800F2AD0294B5968C1F3881C4FEA7A
:101818004C11B1EB0C006EEB0E0E4FEA8E1343EA3F
:1018280090638101091A63EB0E03DB0043EA5173ED
:10183800C90011EB0C0C43F10003590200234FEAD5
:101848004C2041EADC51FEF7BBFC184B5B68C3F344
:10185800014301335B00B0FBF3F025E0134B5968FB
:10186800C1F3881C4FEA4C11B1EB0C006EEB0E0E65
:101878004FEA8E1343EA90638101091A63EB0E0362
:10188800DB0043EA5173C90011EB0C0C43F1000370
:10189800990200234FEA8C2041EA9C51FEF790FC04
:1018A800D3E7034800E0034808BD00BF0038024002
:1018B80000127A000024F400002800F09B8070B524
:1018C8000D4604464F4B1B6803F007038B4208D2B2
:1018D800CBB24C4A1370136803F007038B4240F0F5
:1018E8008B80236813F0020F17D013F0040F04D075
:1018F800454A936843F4E0539360236813F0080F54
:1019080004D0414A936843F4604393603E4A936825
:1019180023F0F003A1680B439360236813F0010FD1
:1019280032D06368012B21D09A1E012A25D9364A64
:10193800126812F0020F61D033498A6822F003025C
:1019480013438B60FFF7D4F906462F4B9B6803F0CF
:101958000C036268B3EB820F16D0FFF7C9F9801B3E
:1019680041F288339842F0D9032042E0264A1268AF
:1019780012F4003FE0D101203BE0234A126812F044
:10198800007FD9D1012034E01E4B1B6803F0070308
:10199800AB4207D9EAB21B4B1A701B6803F0070366
:1019A800AB422DD1236813F0040F06D0164A936872
:1019B80023F4E053E1680B439360236813F0080FA6
:1019C80007D0114A936823F46043216943EAC103AD
:1019D8009360FFF707FF0C4B9B68C3F303130B4A95
:1019E800D35CD8400A4B18600A4B1868FFF734F9E3
:1019F800002070BD012070470120FAE70120F8E7B8
:101A08000120F6E7003C024000380240602E000842
:101A18000000002008000020014B1868704700BF34
:101A28000000002008B5FFF7F7FF044B9B68C3F3DD
:101A38008223034AD35CD84008BD00BF0038024067
:101A4800702E000808B5FFF7E7FF044B9B68C3F347
:101A58004233034AD35CD84008BD00BF0038024077
:101A6800702E00082DE9F04782B0054688461746D3
:101A78001E46FFF73DF90A9B1B1A03EB0609FFF701
:101A880037F982462B4B1B68C3F3CB3309FB03F3AF
:101A980001932B689C6838EA04030CBF4FF0010CD3
:101AA8004FF0000CBC4540D0B6F1FF3FF1D0FFF736
:101AB8001FF9A0EB0A0048450AD2B9F1000F07D078
:101AC800019A02B14A46019B013B01939146E0E726
:101AD8002A68536823F0E00353606B68B3F5827F8C
:101AE8000BD0AB6AB3F5005F14D0012385F85130F1
:101AF800002385F85030032018E0AB68B3F5004F99
:101B080002D0B3F5806FECD12A68136823F0400344
:101B18001360E6E72A68136823F4005313602A6801
:101B2800136843F400531360DFE7002002B0BDE8F8
:101B3800F08700BF0000002070B584B004460D4651
:101B4800164600920B4601220221FFF78BFFD0B9FF
:101B5800174B1B68174AA2FB03235B0D4FF47A72DD
:101B680002FB03F303936368B3F5827F11D0039BF1
:101B78003BB1039B013B039323689B6813F0800FE1
:101B8800F5D104B070BD636D43F020036365032095
:101B9800F7E700962B46002280212046FFF762FFD8
:101BA8000028EED0636D43F0200363650320E8E767
:101BB80000000020819F5E1600285AD010B5044608
:101BC800436A33B94368B3F5827F05D00023C36104
:101BD80002E00023036143610023A36294F85130BB
:101BE800002B40D0022384F851302268136823F078
:101BF80040031360636803F48273A26802F404422A
:101C08001343E26802F400621343226902F00202FD
:101C18001343626902F001021343A26902F40072DD
:101C28001343E26902F038021343226A02F0800289
:101C38001343A26A02F40052216813430B60638BBA
:101C480003F00403626A02F01002216813434B6038
:101C58002268D36923F40063D361002060650123FF
:101C680084F8513010BD84F850302046FEF75AFDF4
:101C7800B8E701207047000038B590F85030012BC4
:101C88005ED00446012380F8503090F85150EDB2F0
:101C98009D424FD100294ED0002A4CD0032380F812
:101CA80051300023436501638286C286836343649F
:101CB80003648387C3878368B3F5004F2AD0A36C76
:101CC800204A1A64A36C204ADA63A36C1F4ADA64B8
:101CD800A36C00221A652268E38E9BB20C32216B3A
:101CE800A06CFFF75DF90146F8B923681A6812F08D
:101CF800400F03D11A6842F040021A602268536804
:101D080043F0200353602268536843F00203536092
:101D18000D4610E00268136823F040031360026860
:101D2800136843F480431360C9E7636D43F01003FD
:101D3800636500E00225002384F85030284638BD4A
:101D48000225FBE75D1D00088B1D0008691D0008C2
:101D58007047704708B5806BFFF7FBFF08BD7047F9
:101D680008B5806B0268536823F003035360436D22
:101D780043F010034365012380F85130FFF7EFFF6C
:101D880008BD30B583B00546846BFEF7B1FF2B68FC
:101D98001B6813F4807F23D1024621684B6823F027
:101DA80020034B6021684B6823F002034B606421D9
:101DB8002046FFF7C1FE18B1636D43F02003636549
:101DC800A36833B901932368DA6801929B68019389
:101DD800019B0023E386012384F85130636D23B906
:101DE8002046FFF7B5FF03B030BD2046FFF7B7FF29
:101DF800F9E7026802F10C0353E8003F23F49073FB
:101E08000C3242E800310029F3D1026802F11403D0
:101E180053E8003F23F00103143242E8003100295F
:101E2800F3D1036B012B05D0202380F84230002327
:101E380003637047026802F10C0353E8003F23F084
:101E480010030C3242E800310029F3D1ECE700001E
:101E580038B504460268136923F44053C1680B433C
:101E6800136183680269134342691343C2691A43C1
:101E78000168CB6823F4164323F00C031343CB60AB
:101E88000268536923F4407381690B435361036803
:101E9800314A934206D002F58062934202D0FFF79E
:101EA800C1FD01E0FFF7CEFDE369B3F5004F29D08E
:101EB8000021031849411B1841F10001C90041EAFA
:101EC8005371DB00181863684FEA83024FEA937373
:101ED80041F10001FEF774F9204DA5FB00325109CC
:101EE800642303FB11031B013233A5FB03235B09A6
:101EF80003F0F00202EB011203F00F032168134410
:101F08008B6038BD0023021843EB0301121841F11E
:101F18000001C90041EA5271D200101841F10001D4
:101F2800626892185B41FEF74BF90C4DA5FB003235
:101F38005109642303FB1103DB003233A5FB0323A0
:101F48005B095A0002F4F87202EB011203F007036E
:101F5800216813448B60D4E7001001401F85EB51C2
:101F68002DE9F04383B005460E4617469946DDF83D
:101F780028802C68246836EA04030CBF4FF0010C53
:101F88004FF0000CBC4528D1B8F1FF3FF1D0FEF767
:101F9800AFFEA0EB0900404523D8B8F1000F22D0CE
:101FA8002B68DA6812F0040FE3D0802EE1D0402EBF
:101FB800DFD01A6812F0080FDBD0002401941A68E9
:101FC80001925B680193019B2846FFF712FF0823E3
:101FD8006B6485F84040012000E0002003B0BDE8B4
:101FE800F0830320FAE70320F8E760B310B504464E
:101FF80090F8413013B3242384F841302268D36821
:1020080023F40053D3602046FFF722FF22681369A8
:1020180023F4904313612268536923F02A03536120
:102028002268D36843F40053D360002060642023FF
:1020380084F8413084F84230606310BD80F8403045
:10204800FEF7BEFCD7E7012070472DE9F04182B0CA
:102058001E4690F84130DBB2202B56D104460D467F
:102068009046002955D00AB901204FE00023436467
:10207800212380F84130FEF73BFE0746A4F8248070
:10208800A4F82680A368B3F5805F02D04FF000085B
:1020980014E023692BB34FF000080FE0202384F8E5
:1020A8004130032032E038F8023B2268C3F30803CA
:1020B8005360E28C92B2013A92B2E284E38C9BB212
:1020C80093B100963B46002280212046FFF748FF47
:1020D8000028E3D1002DE6D015F8012B23685A60BB
:1020E800E7E7A8460025E9E700963B46002240219D
:1020F8002046FFF735FF18B9202384F8413005E062
:10210800202384F84130032000E0022002B0BDE81B
:10211800F0810120FAE7000010B4164B1B685C69D7
:1021280044F040045C61DC6844F01004DC60124B4D
:102138001C68236823F00103236003E01C6824F073
:1021480001041C600C4B1B681C6814F0010FF5D1CE
:102158000A4C9C60D86019615A601A6842F480225F
:102168001A60054B1A68136843F0010313605DF8A1
:10217800044B7047C00200204001002004100140B9
:1021880010B4164B1B685C6944F040045C61DC6861
:1021980044F01004DC60124B1C68236823F0010330
:1021A800236003E01C6824F001041C600C4B1B68CE
:1021B8001C6814F0010FF5D10A4C9C60D8601961B5
:1021C8005A601A6842F480221A60054B1A6813682C
:1021D80043F0010313605DF8044B704708030020C7
:1021E800A00100200444004010B4164B1B685C6931
:1021F80044F040045C61DC6844F01004DC60124B7D
:102208001C68236823F00103236003E01C6824F0A2
:1022180001041C600C4B1B681C6814F0010FF5D1FD
:102228000A4C9C60D86019615A601A6842F480228E
:102238001A60054B1A68136843F0010313605DF8D0
:10224800044B70475003002000020020044800405F
:1022580010B4164B1C68236823F001032360144B49
:102268001B685C6944F040045C61DC6844F010045D
:10227800DC6003E01C6824F001041C600B4B1B6845
:102288001C6814F0010FF5D10A4C9C60D8601961E4
:102298005A601A6842F480221A60044B1A6813685C
:1022A80043F0010313605DF8044B7047600200209F
:1022B800980300200414014010B4174B1C682368CD
:1022C80023F001032360154C636843F00103636046
:1022D800134B1C68636843F04003636003E01C68A9
:1022E80024F001041C600C4B1B681C6814F0010FDF
:1022F800F5D10C4C9C60D86019615A601A6842F498
:1023080080221A60044B1A68136843F001031360B3
:102318005DF8044B704700BF2800002000380040DB
:10232800E80000200C38004030B505468E464FF0D6
:10233800FF304FF0000C17E0104C84EA400006E034
:10234800520801331F2B0DD80028F5DB40000A4244
:10235800F6D080F0986080F48E3080F4DB7080F0E6
:102368000100EDE70CF1010CF44505D255F82C10ED
:102378004FF000420023E5E730BD00BFB71DC104A0
:1023880070B58AB00546464B00EB401203EB420499
:10239800FE2103F81210EE236370E38CA370002370
:1023A800E370228D2271FF226271A371E371002212
:1023B800A260D4F82A2007EE902AFEEECC7A17EE17
:1023C800902AA281D4F82E2007EE902AFEEEEC7A0D
:1023D80017EE902AE281D4F832209FED327A07EE88
:1023E800902AC7EE877AFEEEC97A17EE902A226104
:1023F800D4F8362007EE902AFEEEEA7A17EE902AF5
:10240800A282D4F83A2007EE902AFEEECB7A17EE95
:10241800902AE28223766376D4F83E30C4F81A30E4
:1024280007212046FFF780FFC4F81E00A44601AE2E
:102438002034B646DCF80000DCF80410DCF808208C
:10244800DCF80C30AEE80F000CF1100C7646A44511
:10245800EFD1BCF80030AEF80030032D09D8DFE822
:1024680005F0020A11180123222201A90E48FFF7DC
:10247800ECFD0AB070BD0123222201A90B48FFF729
:10248800E4FDF6E70123222201A90948FFF7DDFD53
:10249800EFE70123222201A90648FFF7D6FDE8E766
:1024A800E4030020F90FC940C002002008030020FF
:1024B8009803002050030020034600B3F9B1827846
:1024C8000A70C2794A70407B1A7B42EA00224A802D
:1024D800D87B9A7B42EA00228A80187FDA7E42EA19
:1024E8000022CA8093F8210093F82020120442EABF
:1024F8000062D87F42EA00229B7F1A438A607047B5
:1025080008B50A4880228118FFF706FE084880228D
:102518008118FFF735FE074880228118FFF764FE0F
:10252800054880228118FFF793FE08BD9C0E002005
:102538009C0D00209C0F00209C100020F0B51F4B24
:102548004FF4D27C0CFB003C9CF8983100EB001255
:102558001B4901EBC2018B709CF89921CA71BCF927
:102568009A718F81BCF99C61CE81BCF99EE1A1F87A
:102578001AE0DCF8A051C1F81E50124C03EB83029C
:10258800C0EB001C4FEA8C0C0CEB820C04EB0C012A
:10259800FF2204F80C20FE224A708870CB708F80CE
:1025A800CE80A1F808E0CD6000F2FD121A443A444A
:1025B800324472442A440A61F0BD00BF0C0700206F
:1025C800EC040020A411002000B583B0354B1B6833
:1025D8001A6812F0200F09D0002200921A6800929F
:1025E8005B680093009B03B05DF804FB2E4A1268F9
:1025F80012F0100FF7D0002201921A6801925B685E
:102608000193019B294B1B681A6812F4002F23D1F0
:102618001A6822F001021A60244802685368C3F15C
:1026280080039BB222490B8080215160116841F4DC
:102638000021116001680A6842F001020A604E2B0D
:10264800D1D11C491C48FFF737FF0020FFF776FF60
:10265800002000F0FDF9C6E71A6822F001021A60AE
:10266800124908684368C3F18003114A1380802324
:1026780043601248036C23F40023036409680B6861
:1026880043F001030B6013884E2BACD109490C4869
:10269800FFF712FF0020FFF751FF002000F0D8F9E4
:1026A800A1E700BFC0020020001001404001002047
:1026B800A2110020A40800209C0E00200064024003
:1026C8001C0F002000B583B0354B1B681A6812F048
:1026D800200F09D0002200921A6800925B680093CC
:1026E800009B03B05DF804FB2E4A126812F0100F2D
:1026F800F7D0002201921A6801925B680193019B4E
:10270800294B1B681A6812F4002F23D11A6822F08B
:1027180001021A60244802685368C3F180039BB21F
:1027280022490B8080215160116841F40021116019
:1027380001680A6842F001020A604E2BD1D11C4997
:102748001C48FFF7B9FE0120FFF7F8FE012000F052
:102758007FF9C6E7184B19680A6822F001020A6077
:1027680018684268C2F1800210490A8080224260DB
:102778001248826A22F4002282621A68136843F0BF
:10278800010313600B884E2BABD109490C48FFF7A6
:1027980093FE0120FFF7D2FE012000F059F9A0E7CF
:1027A8000803002000440040A0010020A0110020E0
:1027B800480A00209C0D00206002002000640240AE
:1027C8001C0E002000B583B0354B1B681A6812F048
:1027D800200F09D0002200921A6800925B680093CB
:1027E800009B03B05DF804FB2E4A126812F0100F2C
:1027F800F7D0002201921A6801925B680193019B4D
:10280800294B1B681A6812F4002F23D11A6822F08A
:1028180001021A60244802685368C3F180039BB21E
:1028280022490B8080215160116841F40021116018
:1028380001680A6842F001020A604E2BD1D11C4996
:102848001C48FFF739FE0320FFF778FE032000F04D
:10285800FFF8C6E7184B19680A6822F001020A60F7
:1028680018684268C2F1800210490A8080224260DA
:102878001248826A22F4002282621A68136843F0BE
:10288800010313600B884E2BABD109490C48FFF7A5
:1028980013FE0320FFF752FE032000F0D9F8A0E74B
:1028A8005003002000480040000200209E11002034
:1028B800900D00209C0F0020600200200064024060
:1028C8001C10002000B583B0354B1B681A6812F045
:1028D800200F09D0002200921A6800925B680093CA
:1028E800009B03B05DF804FB2E4A126812F0100F2B
:1028F800F7D0002201921A6801925B680193019B4C
:10290800294B1B681A6812F4002F23D11A6822F089
:1029180001021A60244802685368C3F180039BB21D
:1029280022490B8080215160116841F40021116017
:1029380001680A6842F001020A604E2BD1D11C4995
:102948001C48FFF7B9FD0220FFF7F8FD022000F050
:102958007FF8C6E71A6822F001021A60124908686F
:102968004368C3F18003114A1380802343601248EF
:10297800836A23F40023836209680B6843F0010328
:102988000B6013884E2BACD109490C48FFF794FD16
:102998000220FFF7D3FD022000F05AF8A1E700BF9C
:1029A8009803002000140140600200209C110020C0
:1029B800EC0B00209C100020006402401C11002039
:1029C800002842D008B50346002937D002780A709B
:1029D80042784A708278CA70C2788A7002790A711D
:1029E80040799A7942EA0022CA80D8791A7A42EA6A
:1029F80000220A81587A9A7A120442EA0062D87A46
:102A080042EA0022187B0243CA60587B9A7B42EA5A
:102A180000220A82D87B1A7C42EA00224A82587C29
:102A28009A7C120442EA0062D87C42EA0022187DAD
:102A380002434A611B78DBB2012B00D008BD4FF47A
:102A480080410248FEF7C8FCF8E7704700040240DE
:102A580000B585B000EB00120D4B03EBC2039B7869
:102A68000C4A03EB8303C0EB0010800000EB8300EB
:102A78001318EC46105859689A68DB68ACE80F00E0
:102A8800102269460448FFF7F7F805B05DF804FB23
:102A9800EC040020A4110020E800002008B5034839
:102AA80014228118FFF708FC08BD00BFAC120020F3
:102AB80010B54269037841780B4481780B4490F84B
:102AC80003C0634490F804E07344B0F906E073442B
:102AD800B0F908E07344C4682344B0F910E07344C3
:102AE800B0F912E073449A4200D010BDA1BB704BFC
:102AF800A3F826C002791A85B0F9102007EE902AAB
:102B0800F8EEE77A17EE902AC3F83620B0F91220CB
:102B180007EE902AF8EEE77A17EE902AC3F83A20E3
:102B2800D0ED037AF8EEE77A17EE902AC3F8322050
:102B3800B0F9082007EE902AF8EEE77A17EE902A07
:102B4800C3F82E20B0F9062007EE902AF8EEE77AAF
:102B580017EE902AC3F82A208378012B3DD083787A
:102B6800022B6DD08378032BBFD1C278504BA3F8CA
:102B7800EC200279A3F8EE20B0F9102007EE902A95
:102B8800F8EEE77A17EE902AC3F8FC20B0F9122085
:102B980007EE902AF8EEE77A17EE902AC3F800219C
:102BA800D0ED037AF8EEE77A17EE902AC3F8F8200A
:102BB800B0F9082007EE902AF8EEE77A17EE902A87
:102BC800C3F8F420B0F9062007EE902AF8EEE77A69
:102BD80017EE902AC3F8F02087E7C278344BA3F8A1
:102BE80068200279A3F86A20B0F9102007EE902A2D
:102BF800F8EEE77A17EE902A9A67B0F9122007EEF6
:102C0800902AF8EEE77A17EE902ADA67D0ED037A81
:102C1800F8EEE77A17EE902A5A67B0F9082007EE1F
:102C2800902AF8EEE77A17EE902A1A67B0F906208C
:102C380007EE902AF8EEE77A17EE902ADA668EE722
:102C4800C2781B4BA3F8AA200279A3F8AC20B0F9EC
:102C5800102007EE902AF8EEE77A17EE902AC3F8CC
:102C6800BA20B0F9122007EE902AF8EEE77A17EEAC
:102C7800902AC3F8BE20D0ED037AF8EEE77A17EE73
:102C8800902AC3F8B620B0F9082007EE902AF8EE8B
:102C9800E77A17EE902AC3F8B220B0F9062007EEBB
:102CA800902AF8EEE77A17EE902AC3F8AE2059E793
:102CB800E40300202E4B9B6813F0010F56D010B58B
:102CC80082B0002301932B4B1B689B680193019BE7
:102CD800294B1B681A6812F4002F24D11A6822F0B5
:102CE80001021A60244B1A685368C3F124039BB28B
:102CF80022490B8024215160116841F400211160A0
:102D08001F4A11680A6842F001020A60142B01D0B8
:102D180002B010BD1B4C21461B48FFF751FE204650
:102D2800FFF7C6FEF4E71A6822F001021A6012499A
:102D380008684368C3F12403104A138024234360BE
:102D48001248836D23F40023836509680B6843F0F8
:102D580001030B601388142BDAD10A4C21460C4866
:102D6800FFF72EFE2046FFF7A3FED1E7704700BF0E
:102D780000380040E800002028000020D41200207D
:102D88006002002094120020AC1200200060024073
:102D9800C0120020DFF834D0FDF794FD0C480D492F
:102DA8000D4A002302E0D458C4500433C4188C429E
:102DB800F9D30A4A0A4C002301E013600432A24204
:102DC800FBD300F011F8FDF769FC70470000022002
:102DD800000000200C000020902E00080C000020AD
:102DE800D8120020FEE7000070B50D4D0D4C641B95
:102DF800A4100026A64209D10B4D0C4C00F020F877
:102E0800641BA4100026A64205D170BD55F8043BEA
:102E180098470136EEE755F8043B98470136F2E744
:102E2800882E0008882E0008882E00088C2E00089E
:102E380002440346934200D1704703F8011BF9E7A7
:102E4800F8B500BFF8BC08BC9E467047F8B500BF8F
:082E5800F8BC08BC9E4670475F
:102E6000000000000000000001020304060708093A
:102E700000000000010203040006101600061016F0
:082E800078D3FF7F0100000080
:042E8800AD01000890
:042E8C0089010008B0
:0C2E90000024F40001000000100000000D
:0400000508002D9D25
:00000001FF
